{"abi":[{"type":"constructor","inputs":[{"name":"name","type":"string","internalType":"string"},{"name":"symbol","type":"string","internalType":"string"},{"name":"minter","type":"address","internalType":"address"}],"stateMutability":"nonpayable"},{"type":"function","name":"DEFAULT_ADMIN_ROLE","inputs":[],"outputs":[{"name":"","type":"bytes32","internalType":"bytes32"}],"stateMutability":"view"},{"type":"function","name":"MINTER_ROLE","inputs":[],"outputs":[{"name":"","type":"bytes32","internalType":"bytes32"}],"stateMutability":"view"},{"type":"function","name":"allowance","inputs":[{"name":"owner","type":"address","internalType":"address"},{"name":"spender","type":"address","internalType":"address"}],"outputs":[{"name":"","type":"uint256","internalType":"uint256"}],"stateMutability":"view"},{"type":"function","name":"approve","inputs":[{"name":"spender","type":"address","internalType":"address"},{"name":"value","type":"uint256","internalType":"uint256"}],"outputs":[{"name":"","type":"bool","internalType":"bool"}],"stateMutability":"nonpayable"},{"type":"function","name":"balanceOf","inputs":[{"name":"account","type":"address","internalType":"address"}],"outputs":[{"name":"","type":"uint256","internalType":"uint256"}],"stateMutability":"view"},{"type":"function","name":"burn","inputs":[{"name":"from","type":"address","internalType":"address"},{"name":"amount","type":"uint256","internalType":"uint256"}],"outputs":[],"stateMutability":"nonpayable"},{"type":"function","name":"decimals","inputs":[],"outputs":[{"name":"","type":"uint8","internalType":"uint8"}],"stateMutability":"view"},{"type":"function","name":"getRoleAdmin","inputs":[{"name":"role","type":"bytes32","internalType":"bytes32"}],"outputs":[{"name":"","type":"bytes32","internalType":"bytes32"}],"stateMutability":"view"},{"type":"function","name":"grantRole","inputs":[{"name":"role","type":"bytes32","internalType":"bytes32"},{"name":"account","type":"address","internalType":"address"}],"outputs":[],"stateMutability":"nonpayable"},{"type":"function","name":"hasRole","inputs":[{"name":"role","type":"bytes32","internalType":"bytes32"},{"name":"account","type":"address","internalType":"address"}],"outputs":[{"name":"","type":"bool","internalType":"bool"}],"stateMutability":"view"},{"type":"function","name":"mint","inputs":[{"name":"to","type":"address","internalType":"address"},{"name":"amount","type":"uint256","internalType":"uint256"}],"outputs":[],"stateMutability":"nonpayable"},{"type":"function","name":"name","inputs":[],"outputs":[{"name":"","type":"string","internalType":"string"}],"stateMutability":"view"},{"type":"function","name":"renounceRole","inputs":[{"name":"role","type":"bytes32","internalType":"bytes32"},{"name":"callerConfirmation","type":"address","internalType":"address"}],"outputs":[],"stateMutability":"nonpayable"},{"type":"function","name":"revokeRole","inputs":[{"name":"role","type":"bytes32","internalType":"bytes32"},{"name":"account","type":"address","internalType":"address"}],"outputs":[],"stateMutability":"nonpayable"},{"type":"function","name":"supportsInterface","inputs":[{"name":"interfaceId","type":"bytes4","internalType":"bytes4"}],"outputs":[{"name":"","type":"bool","internalType":"bool"}],"stateMutability":"view"},{"type":"function","name":"symbol","inputs":[],"outputs":[{"name":"","type":"string","internalType":"string"}],"stateMutability":"view"},{"type":"function","name":"totalSupply","inputs":[],"outputs":[{"name":"","type":"uint256","internalType":"uint256"}],"stateMutability":"view"},{"type":"function","name":"transfer","inputs":[{"name":"to","type":"address","internalType":"address"},{"name":"value","type":"uint256","internalType":"uint256"}],"outputs":[{"name":"","type":"bool","internalType":"bool"}],"stateMutability":"nonpayable"},{"type":"function","name":"transferFrom","inputs":[{"name":"from","type":"address","internalType":"address"},{"name":"to","type":"address","internalType":"address"},{"name":"value","type":"uint256","internalType":"uint256"}],"outputs":[{"name":"","type":"bool","internalType":"bool"}],"stateMutability":"nonpayable"},{"type":"event","name":"Approval","inputs":[{"name":"owner","type":"address","indexed":true,"internalType":"address"},{"name":"spender","type":"address","indexed":true,"internalType":"address"},{"name":"value","type":"uint256","indexed":false,"internalType":"uint256"}],"anonymous":false},{"type":"event","name":"RoleAdminChanged","inputs":[{"name":"role","type":"bytes32","indexed":true,"internalType":"bytes32"},{"name":"previousAdminRole","type":"bytes32","indexed":true,"internalType":"bytes32"},{"name":"newAdminRole","type":"bytes32","indexed":true,"internalType":"bytes32"}],"anonymous":false},{"type":"event","name":"RoleGranted","inputs":[{"name":"role","type":"bytes32","indexed":true,"internalType":"bytes32"},{"name":"account","type":"address","indexed":true,"internalType":"address"},{"name":"sender","type":"address","indexed":true,"internalType":"address"}],"anonymous":false},{"type":"event","name":"RoleRevoked","inputs":[{"name":"role","type":"bytes32","indexed":true,"internalType":"bytes32"},{"name":"account","type":"address","indexed":true,"internalType":"address"},{"name":"sender","type":"address","indexed":true,"internalType":"address"}],"anonymous":false},{"type":"event","name":"Transfer","inputs":[{"name":"from","type":"address","indexed":true,"internalType":"address"},{"name":"to","type":"address","indexed":true,"internalType":"address"},{"name":"value","type":"uint256","indexed":false,"internalType":"uint256"}],"anonymous":false},{"type":"error","name":"AccessControlBadConfirmation","inputs":[]},{"type":"error","name":"AccessControlUnauthorizedAccount","inputs":[{"name":"account","type":"address","internalType":"address"},{"name":"neededRole","type":"bytes32","internalType":"bytes32"}]},{"type":"error","name":"ERC20InsufficientAllowance","inputs":[{"name":"spender","type":"address","internalType":"address"},{"name":"allowance","type":"uint256","internalType":"uint256"},{"name":"needed","type":"uint256","internalType":"uint256"}]},{"type":"error","name":"ERC20InsufficientBalance","inputs":[{"name":"sender","type":"address","internalType":"address"},{"name":"balance","type":"uint256","internalType":"uint256"},{"name":"needed","type":"uint256","internalType":"uint256"}]},{"type":"error","name":"ERC20InvalidApprover","inputs":[{"name":"approver","type":"address","internalType":"address"}]},{"type":"error","name":"ERC20InvalidReceiver","inputs":[{"name":"receiver","type":"address","internalType":"address"}]},{"type":"error","name":"ERC20InvalidSender","inputs":[{"name":"sender","type":"address","internalType":"address"}]},{"type":"error","name":"ERC20InvalidSpender","inputs":[{"name":"spender","type":"address","internalType":"address"}]},{"type":"error","name":"Unauthorized","inputs":[{"name":"caller","type":"address","internalType":"address"},{"name":"requiredRole","type":"bytes32","internalType":"bytes32"}]}],"bytecode":{"object":"0x608060405234801562000010575f80fd5b5060405162000f9d38038062000f9d83398101604081905262000033916200020b565b828260036200004383826200031c565b5060046200005282826200031c565b506200006391505f9050826200009a565b50620000907f9f2df0fed2c77648de5860a4cc508cd0818c85b8b8a1ab4ceeef8d981c8956a6826200009a565b50505050620003e8565b5f8281526005602090815260408083206001600160a01b038516845290915281205460ff1662000141575f8381526005602090815260408083206001600160a01b03861684529091529020805460ff19166001179055620000f83390565b6001600160a01b0316826001600160a01b0316847f2f8788117e7eff1d82e926ec794901d17c78024a50270940304540a733656f0d60405160405180910390a450600162000144565b505f5b92915050565b634e487b7160e01b5f52604160045260245ffd5b5f82601f8301126200016e575f80fd5b81516001600160401b03808211156200018b576200018b6200014a565b604051601f8301601f19908116603f01168101908282118183101715620001b657620001b66200014a565b8160405283815260209250866020858801011115620001d3575f80fd5b5f91505b83821015620001f65785820183015181830184015290820190620001d7565b5f602085830101528094505050505092915050565b5f805f606084860312156200021e575f80fd5b83516001600160401b038082111562000235575f80fd5b62000243878388016200015e565b9450602086015191508082111562000259575f80fd5b5062000268868287016200015e565b604086015190935090506001600160a01b038116811462000287575f80fd5b809150509250925092565b600181811c90821680620002a757607f821691505b602082108103620002c657634e487b7160e01b5f52602260045260245ffd5b50919050565b601f8211156200031757805f5260205f20601f840160051c81016020851015620002f35750805b601f840160051c820191505b8181101562000314575f8155600101620002ff565b50505b505050565b81516001600160401b038111156200033857620003386200014a565b620003508162000349845462000292565b84620002cc565b602080601f83116001811462000386575f84156200036e5750858301515b5f19600386901b1c1916600185901b178555620003e0565b5f85815260208120601f198616915b82811015620003b65788860151825594840194600190910190840162000395565b5085821015620003d457878501515f19600388901b60f8161c191681555b505060018460011b0185555b505050505050565b610ba780620003f65f395ff3fe608060405234801561000f575f80fd5b506004361061011c575f3560e01c806340c10f19116100a9578063a217fddf1161006e578063a217fddf14610257578063a9059cbb1461025e578063d539139314610271578063d547741f14610298578063dd62ed3e146102ab575f80fd5b806340c10f19146101ee57806370a082311461020157806391d148541461022957806395d89b411461023c5780639dc29fac14610244575f80fd5b806323b872dd116100ef57806323b872dd14610182578063248a9ca3146101955780632f2ff15d146101b7578063313ce567146101cc57806336568abe146101db575f80fd5b806301ffc9a71461012057806306fdde0314610148578063095ea7b31461015d57806318160ddd14610170575b5f80fd5b61013361012e3660046109a2565b6102e3565b60405190151581526020015b60405180910390f35b610150610319565b60405161013f91906109d0565b61013361016b366004610a37565b6103a9565b6002545b60405190815260200161013f565b610133610190366004610a5f565b6103c0565b6101746101a3366004610a98565b5f9081526005602052604090206001015490565b6101ca6101c5366004610aaf565b6103e3565b005b6040516012815260200161013f565b6101ca6101e9366004610aaf565b61040d565b6101ca6101fc366004610a37565b610445565b61017461020f366004610ad9565b6001600160a01b03165f9081526020819052604090205490565b610133610237366004610aaf565b610479565b6101506104a3565b6101ca610252366004610a37565b6104b2565b6101745f81565b61013361026c366004610a37565b6104e6565b6101747f9f2df0fed2c77648de5860a4cc508cd0818c85b8b8a1ab4ceeef8d981c8956a681565b6101ca6102a6366004610aaf565b6104f3565b6101746102b9366004610af2565b6001600160a01b039182165f90815260016020908152604080832093909416825291909152205490565b5f6001600160e01b03198216637965db0b60e01b148061031357506301ffc9a760e01b6001600160e01b03198316145b92915050565b60606003805461032890610b1a565b80601f016020809104026020016040519081016040528092919081815260200182805461035490610b1a565b801561039f5780601f106103765761010080835404028352916020019161039f565b820191905f5260205f20905b81548152906001019060200180831161038257829003601f168201915b5050505050905090565b5f336103b6818585610517565b5060019392505050565b5f336103cd858285610524565b6103d885858561059f565b506001949350505050565b5f828152600560205260409020600101546103fd816105fc565b6104078383610609565b50505050565b6001600160a01b03811633146104365760405163334bd91960e11b815260040160405180910390fd5b610440828261069a565b505050565b7f9f2df0fed2c77648de5860a4cc508cd0818c85b8b8a1ab4ceeef8d981c8956a661046f816105fc565b6104408383610705565b5f9182526005602090815260408084206001600160a01b0393909316845291905290205460ff1690565b60606004805461032890610b1a565b7f9f2df0fed2c77648de5860a4cc508cd0818c85b8b8a1ab4ceeef8d981c8956a66104dc816105fc565b610440838361073d565b5f336103b681858561059f565b5f8281526005602052604090206001015461050d816105fc565b610407838361069a565b6104408383836001610771565b6001600160a01b038381165f908152600160209081526040808320938616835292905220545f19811015610407578181101561059157604051637dc7a0d960e11b81526001600160a01b038416600482015260248101829052604481018390526064015b60405180910390fd5b61040784848484035f610771565b6001600160a01b0383166105c857604051634b637e8f60e11b81525f6004820152602401610588565b6001600160a01b0382166105f15760405163ec442f0560e01b81525f6004820152602401610588565b610440838383610843565b6106068133610969565b50565b5f6106148383610479565b610693575f8381526005602090815260408083206001600160a01b03861684529091529020805460ff1916600117905561064b3390565b6001600160a01b0316826001600160a01b0316847f2f8788117e7eff1d82e926ec794901d17c78024a50270940304540a733656f0d60405160405180910390a4506001610313565b505f610313565b5f6106a58383610479565b15610693575f8381526005602090815260408083206001600160a01b0386168085529252808320805460ff1916905551339286917ff6391f5c32d9c69d2a47ea670b442974b53935d1edc7fd64eb21e047a839171b9190a4506001610313565b6001600160a01b03821661072e5760405163ec442f0560e01b81525f6004820152602401610588565b6107395f8383610843565b5050565b6001600160a01b03821661076657604051634b637e8f60e11b81525f6004820152602401610588565b610739825f83610843565b6001600160a01b03841661079a5760405163e602df0560e01b81525f6004820152602401610588565b6001600160a01b0383166107c357604051634a1406b160e11b81525f6004820152602401610588565b6001600160a01b038085165f908152600160209081526040808320938716835292905220829055801561040757826001600160a01b0316846001600160a01b03167f8c5be1e5ebec7d5bd14f71427d1e84f3dd0314c0f7b2291e5b200ac8c7c3b9258460405161083591815260200190565b60405180910390a350505050565b6001600160a01b03831661086d578060025f8282546108629190610b52565b909155506108dd9050565b6001600160a01b0383165f90815260208190526040902054818110156108bf5760405163391434e360e21b81526001600160a01b03851660048201526024810182905260448101839052606401610588565b6001600160a01b0384165f9081526020819052604090209082900390555b6001600160a01b0382166108f957600280548290039055610917565b6001600160a01b0382165f9081526020819052604090208054820190555b816001600160a01b0316836001600160a01b03167fddf252ad1be2c89b69c2b068fc378daa952ba7f163c4a11628f55a4df523b3ef8360405161095c91815260200190565b60405180910390a3505050565b6109738282610479565b6107395760405163e2517d3f60e01b81526001600160a01b038216600482015260248101839052604401610588565b5f602082840312156109b2575f80fd5b81356001600160e01b0319811681146109c9575f80fd5b9392505050565b5f602080835283518060208501525f5b818110156109fc578581018301518582016040015282016109e0565b505f604082860101526040601f19601f8301168501019250505092915050565b80356001600160a01b0381168114610a32575f80fd5b919050565b5f8060408385031215610a48575f80fd5b610a5183610a1c565b946020939093013593505050565b5f805f60608486031215610a71575f80fd5b610a7a84610a1c565b9250610a8860208501610a1c565b9150604084013590509250925092565b5f60208284031215610aa8575f80fd5b5035919050565b5f8060408385031215610ac0575f80fd5b82359150610ad060208401610a1c565b90509250929050565b5f60208284031215610ae9575f80fd5b6109c982610a1c565b5f8060408385031215610b03575f80fd5b610b0c83610a1c565b9150610ad060208401610a1c565b600181811c90821680610b2e57607f821691505b602082108103610b4c57634e487b7160e01b5f52602260045260245ffd5b50919050565b8082018082111561031357634e487b7160e01b5f52601160045260245ffdfea26469706673582212207e4afb6aea28789dcc49d400b4275c22e1e3ecb767213a6fb8e0d5385eb6341f64736f6c63430008180033","linkReferences":{}},"methodIdentifiers":{"DEFAULT_ADMIN_ROLE()":"a217fddf","MINTER_ROLE()":"d5391393","allowance(address,address)":"dd62ed3e","approve(address,uint256)":"095ea7b3","balanceOf(address)":"70a08231","burn(address,uint256)":"9dc29fac","decimals()":"313ce567","getRoleAdmin(bytes32)":"248a9ca3","grantRole(bytes32,address)":"2f2ff15d","hasRole(bytes32,address)":"91d14854","mint(address,uint256)":"40c10f19","name()":"06fdde03","renounceRole(bytes32,address)":"36568abe","revokeRole(bytes32,address)":"d547741f","supportsInterface(bytes4)":"01ffc9a7","symbol()":"95d89b41","totalSupply()":"18160ddd","transfer(address,uint256)":"a9059cbb","transferFrom(address,address,uint256)":"23b872dd"},"id":85}