{"abi":[{"type":"constructor","inputs":[{"name":"admin","type":"address","internalType":"address"}],"stateMutability":"nonpayable"},{"type":"function","name":"DEFAULT_ADMIN_ROLE","inputs":[],"outputs":[{"name":"","type":"bytes32","internalType":"bytes32"}],"stateMutability":"view"},{"type":"function","name":"MINTER_ROLE","inputs":[],"outputs":[{"name":"","type":"bytes32","internalType":"bytes32"}],"stateMutability":"view"},{"type":"function","name":"achievements","inputs":[{"name":"","type":"uint256","internalType":"uint256"}],"outputs":[{"name":"achievementType","type":"uint8","internalType":"enum AchievementNFT.AchievementType"},{"name":"tier","type":"uint8","internalType":"enum AchievementNFT.Tier"},{"name":"awardedAt","type":"uint256","internalType":"uint256"}],"stateMutability":"view"},{"type":"function","name":"approve","inputs":[{"name":"to","type":"address","internalType":"address"},{"name":"tokenId","type":"uint256","internalType":"uint256"}],"outputs":[],"stateMutability":"nonpayable"},{"type":"function","name":"balanceOf","inputs":[{"name":"owner","type":"address","internalType":"address"}],"outputs":[{"name":"","type":"uint256","internalType":"uint256"}],"stateMutability":"view"},{"type":"function","name":"getAchievement","inputs":[{"name":"tokenId","type":"uint256","internalType":"uint256"}],"outputs":[{"name":"","type":"tuple","internalType":"struct AchievementNFT.AchievementData","components":[{"name":"achievementType","type":"uint8","internalType":"enum AchievementNFT.AchievementType"},{"name":"tier","type":"uint8","internalType":"enum AchievementNFT.Tier"},{"name":"awardedAt","type":"uint256","internalType":"uint256"}]}],"stateMutability":"view"},{"type":"function","name":"getApproved","inputs":[{"name":"tokenId","type":"uint256","internalType":"uint256"}],"outputs":[{"name":"","type":"address","internalType":"address"}],"stateMutability":"view"},{"type":"function","name":"getRoleAdmin","inputs":[{"name":"role","type":"bytes32","internalType":"bytes32"}],"outputs":[{"name":"","type":"bytes32","internalType":"bytes32"}],"stateMutability":"view"},{"type":"function","name":"grantRole","inputs":[{"name":"role","type":"bytes32","internalType":"bytes32"},{"name":"account","type":"address","internalType":"address"}],"outputs":[],"stateMutability":"nonpayable"},{"type":"function","name":"hasAchievement","inputs":[{"name":"","type":"address","internalType":"address"},{"name":"","type":"uint8","internalType":"enum AchievementNFT.AchievementType"}],"outputs":[{"name":"","type":"bool","internalType":"bool"}],"stateMutability":"view"},{"type":"function","name":"hasRole","inputs":[{"name":"role","type":"bytes32","internalType":"bytes32"},{"name":"account","type":"address","internalType":"address"}],"outputs":[{"name":"","type":"bool","internalType":"bool"}],"stateMutability":"view"},{"type":"function","name":"isApprovedForAll","inputs":[{"name":"owner","type":"address","internalType":"address"},{"name":"operator","type":"address","internalType":"address"}],"outputs":[{"name":"","type":"bool","internalType":"bool"}],"stateMutability":"view"},{"type":"function","name":"mintAchievement","inputs":[{"name":"recipient","type":"address","internalType":"address"},{"name":"achievementType","type":"uint8","internalType":"enum AchievementNFT.AchievementType"},{"name":"tier","type":"uint8","internalType":"enum AchievementNFT.Tier"},{"name":"uri","type":"string","internalType":"string"}],"outputs":[{"name":"tokenId","type":"uint256","internalType":"uint256"}],"stateMutability":"nonpayable"},{"type":"function","name":"name","inputs":[],"outputs":[{"name":"","type":"string","internalType":"string"}],"stateMutability":"view"},{"type":"function","name":"ownerOf","inputs":[{"name":"tokenId","type":"uint256","internalType":"uint256"}],"outputs":[{"name":"","type":"address","internalType":"address"}],"stateMutability":"view"},{"type":"function","name":"renounceRole","inputs":[{"name":"role","type":"bytes32","internalType":"bytes32"},{"name":"callerConfirmation","type":"address","internalType":"address"}],"outputs":[],"stateMutability":"nonpayable"},{"type":"function","name":"revokeRole","inputs":[{"name":"role","type":"bytes32","internalType":"bytes32"},{"name":"account","type":"address","internalType":"address"}],"outputs":[],"stateMutability":"nonpayable"},{"type":"function","name":"safeTransferFrom","inputs":[{"name":"from","type":"address","internalType":"address"},{"name":"to","type":"address","internalType":"address"},{"name":"tokenId","type":"uint256","internalType":"uint256"}],"outputs":[],"stateMutability":"nonpayable"},{"type":"function","name":"safeTransferFrom","inputs":[{"name":"from","type":"address","internalType":"address"},{"name":"to","type":"address","internalType":"address"},{"name":"tokenId","type":"uint256","internalType":"uint256"},{"name":"data","type":"bytes","internalType":"bytes"}],"outputs":[],"stateMutability":"nonpayable"},{"type":"function","name":"setApprovalForAll","inputs":[{"name":"operator","type":"address","internalType":"address"},{"name":"approved","type":"bool","internalType":"bool"}],"outputs":[],"stateMutability":"nonpayable"},{"type":"function","name":"supportsInterface","inputs":[{"name":"interfaceId","type":"bytes4","internalType":"bytes4"}],"outputs":[{"name":"","type":"bool","internalType":"bool"}],"stateMutability":"view"},{"type":"function","name":"symbol","inputs":[],"outputs":[{"name":"","type":"string","internalType":"string"}],"stateMutability":"view"},{"type":"function","name":"tokenURI","inputs":[{"name":"tokenId","type":"uint256","internalType":"uint256"}],"outputs":[{"name":"","type":"string","internalType":"string"}],"stateMutability":"view"},{"type":"function","name":"totalMinted","inputs":[],"outputs":[{"name":"","type":"uint256","internalType":"uint256"}],"stateMutability":"view"},{"type":"function","name":"transferFrom","inputs":[{"name":"from","type":"address","internalType":"address"},{"name":"to","type":"address","internalType":"address"},{"name":"tokenId","type":"uint256","internalType":"uint256"}],"outputs":[],"stateMutability":"nonpayable"},{"type":"event","name":"AchievementMinted","inputs":[{"name":"recipient","type":"address","indexed":true,"internalType":"address"},{"name":"tokenId","type":"uint256","indexed":true,"internalType":"uint256"},{"name":"achievementType","type":"uint8","indexed":false,"internalType":"enum AchievementNFT.AchievementType"},{"name":"tier","type":"uint8","indexed":false,"internalType":"enum AchievementNFT.Tier"}],"anonymous":false},{"type":"event","name":"Approval","inputs":[{"name":"owner","type":"address","indexed":true,"internalType":"address"},{"name":"approved","type":"address","indexed":true,"internalType":"address"},{"name":"tokenId","type":"uint256","indexed":true,"internalType":"uint256"}],"anonymous":false},{"type":"event","name":"ApprovalForAll","inputs":[{"name":"owner","type":"address","indexed":true,"internalType":"address"},{"name":"operator","type":"address","indexed":true,"internalType":"address"},{"name":"approved","type":"bool","indexed":false,"internalType":"bool"}],"anonymous":false},{"type":"event","name":"BatchMetadataUpdate","inputs":[{"name":"_fromTokenId","type":"uint256","indexed":false,"internalType":"uint256"},{"name":"_toTokenId","type":"uint256","indexed":false,"internalType":"uint256"}],"anonymous":false},{"type":"event","name":"MetadataUpdate","inputs":[{"name":"_tokenId","type":"uint256","indexed":false,"internalType":"uint256"}],"anonymous":false},{"type":"event","name":"RoleAdminChanged","inputs":[{"name":"role","type":"bytes32","indexed":true,"internalType":"bytes32"},{"name":"previousAdminRole","type":"bytes32","indexed":true,"internalType":"bytes32"},{"name":"newAdminRole","type":"bytes32","indexed":true,"internalType":"bytes32"}],"anonymous":false},{"type":"event","name":"RoleGranted","inputs":[{"name":"role","type":"bytes32","indexed":true,"internalType":"bytes32"},{"name":"account","type":"address","indexed":true,"internalType":"address"},{"name":"sender","type":"address","indexed":true,"internalType":"address"}],"anonymous":false},{"type":"event","name":"RoleRevoked","inputs":[{"name":"role","type":"bytes32","indexed":true,"internalType":"bytes32"},{"name":"account","type":"address","indexed":true,"internalType":"address"},{"name":"sender","type":"address","indexed":true,"internalType":"address"}],"anonymous":false},{"type":"event","name":"Transfer","inputs":[{"name":"from","type":"address","indexed":true,"internalType":"address"},{"name":"to","type":"address","indexed":true,"internalType":"address"},{"name":"tokenId","type":"uint256","indexed":true,"internalType":"uint256"}],"anonymous":false},{"type":"error","name":"AccessControlBadConfirmation","inputs":[]},{"type":"error","name":"AccessControlUnauthorizedAccount","inputs":[{"name":"account","type":"address","internalType":"address"},{"name":"neededRole","type":"bytes32","internalType":"bytes32"}]},{"type":"error","name":"AchievementAlreadyAwarded","inputs":[{"name":"user","type":"address","internalType":"address"},{"name":"achievementType","type":"uint8","internalType":"enum AchievementNFT.AchievementType"}]},{"type":"error","name":"ERC721IncorrectOwner","inputs":[{"name":"sender","type":"address","internalType":"address"},{"name":"tokenId","type":"uint256","internalType":"uint256"},{"name":"owner","type":"address","internalType":"address"}]},{"type":"error","name":"ERC721InsufficientApproval","inputs":[{"name":"operator","type":"address","internalType":"address"},{"name":"tokenId","type":"uint256","internalType":"uint256"}]},{"type":"error","name":"ERC721InvalidApprover","inputs":[{"name":"approver","type":"address","internalType":"address"}]},{"type":"error","name":"ERC721InvalidOperator","inputs":[{"name":"operator","type":"address","internalType":"address"}]},{"type":"error","name":"ERC721InvalidOwner","inputs":[{"name":"owner","type":"address","internalType":"address"}]},{"type":"error","name":"ERC721InvalidReceiver","inputs":[{"name":"receiver","type":"address","internalType":"address"}]},{"type":"error","name":"ERC721InvalidSender","inputs":[{"name":"sender","type":"address","internalType":"address"}]},{"type":"error","name":"ERC721NonexistentToken","inputs":[{"name":"tokenId","type":"uint256","internalType":"uint256"}]},{"type":"error","name":"SoulboundTransferForbidden","inputs":[{"name":"from","type":"address","internalType":"address"},{"name":"to","type":"address","internalType":"address"},{"name":"tokenId","type":"uint256","internalType":"uint256"}]},{"type":"error","name":"TokenDoesNotExist","inputs":[{"name":"tokenId","type":"uint256","internalType":"uint256"}]}],"bytecode":{"object":"0x608060405234801562000010575f80fd5b5060405162001e7938038062001e7983398101604081905262000033916200018e565b6040518060400160405280601081526020016f1119519a481058da1a595d995b595b9d60821b815250604051806040016040528060048152602001630888286960e31b815250815f90816200008991906200025b565b5060016200009882826200025b565b50620000a991505f905082620000de565b50620000d67f9f2df0fed2c77648de5860a4cc508cd0818c85b8b8a1ab4ceeef8d981c8956a682620000de565b505062000327565b5f8281526007602090815260408083206001600160a01b038516845290915281205460ff1662000185575f8381526007602090815260408083206001600160a01b03861684529091529020805460ff191660011790556200013c3390565b6001600160a01b0316826001600160a01b0316847f2f8788117e7eff1d82e926ec794901d17c78024a50270940304540a733656f0d60405160405180910390a450600162000188565b505f5b92915050565b5f602082840312156200019f575f80fd5b81516001600160a01b0381168114620001b6575f80fd5b9392505050565b634e487b7160e01b5f52604160045260245ffd5b600181811c90821680620001e657607f821691505b6020821081036200020557634e487b7160e01b5f52602260045260245ffd5b50919050565b601f8211156200025657805f5260205f20601f840160051c81016020851015620002325750805b601f840160051c820191505b8181101562000253575f81556001016200023e565b50505b505050565b81516001600160401b03811115620002775762000277620001bd565b6200028f81620002888454620001d1565b846200020b565b602080601f831160018114620002c5575f8415620002ad5750858301515b5f19600386901b1c1916600185901b1785556200031f565b5f85815260208120601f198616915b82811015620002f557888601518255948401946001909101908401620002d4565b50858210156200031357878501515f19600388901b60f8161c191681555b505060018460011b0185555b505050505050565b611b4480620003355f395ff3fe608060405234801561000f575f80fd5b506004361061016d575f3560e01c806370a08231116100d9578063a2309ff811610093578063d53913931161006e578063d539139314610375578063d547741f1461039c578063e985e9c5146103af578063f2ccc543146103c2575f80fd5b8063a2309ff814610347578063b88d4fde1461034f578063c87b56dd14610362575f80fd5b806370a08231146102ec5780637caa2e58146102ff57806391d148541461031257806395d89b4114610325578063a217fddf1461032d578063a22cb46514610334575f80fd5b806327aed72e1161012a57806327aed72e146102315780632f2ff15d1461027357806336568abe1461028657806342842e0e1461029957806345fd14b0146102ac5780636352211e146102d9575f80fd5b806301ffc9a71461017157806306fdde0314610199578063081812fc146101ae578063095ea7b3146101d957806323b872dd146101ee578063248a9ca314610201575b5f80fd5b61018461017f366004611516565b6103e2565b60405190151581526020015b60405180910390f35b6101a16103f2565b604051610190919061157e565b6101c16101bc366004611590565b610481565b6040516001600160a01b039091168152602001610190565b6101ec6101e73660046115c2565b6104a8565b005b6101ec6101fc3660046115ea565b6104b7565b61022361020f366004611590565b5f9081526007602052604090206001015490565b604051908152602001610190565b61026461023f366004611590565b60096020525f90815260409020805460019091015460ff808316926101009004169083565b6040516101909392919061165b565b6101ec610281366004611684565b610545565b6101ec610294366004611684565b610569565b6101ec6102a73660046115ea565b6105a1565b6101846102ba3660046116bc565b600a60209081525f928352604080842090915290825290205460ff1681565b6101c16102e7366004611590565b6105bb565b6102236102fa3660046116e4565b6105c5565b61022361030d3660046116fd565b61060a565b610184610320366004611684565b61084e565b6101a1610878565b6102235f81565b6101ec61034236600461179c565b610887565b600854610223565b6101ec61035d3660046117e9565b610892565b6101a1610370366004611590565b6108aa565b6102237f9f2df0fed2c77648de5860a4cc508cd0818c85b8b8a1ab4ceeef8d981c8956a681565b6101ec6103aa366004611684565b6108b5565b6101846103bd3660046118be565b6108d9565b6103d56103d0366004611590565b610906565b60405161019091906118e6565b5f6103ec826109e6565b92915050565b60605f805461040090611919565b80601f016020809104026020016040519081016040528092919081815260200182805461042c90611919565b80156104775780601f1061044e57610100808354040283529160200191610477565b820191905f5260205f20905b81548152906001019060200180831161045a57829003601f168201915b5050505050905090565b5f61048b82610a0a565b505f828152600460205260409020546001600160a01b03166103ec565b6104b3828233610a42565b5050565b6001600160a01b0382166104e557604051633250574960e11b81525f60048201526024015b60405180910390fd5b5f6104f1838333610a4f565b9050836001600160a01b0316816001600160a01b03161461053f576040516364283d7b60e01b81526001600160a01b03808616600483015260248201849052821660448201526064016104dc565b50505050565b5f8281526007602052604090206001015461055f81610acb565b61053f8383610ad8565b6001600160a01b03811633146105925760405163334bd91960e11b815260040160405180910390fd5b61059c8282610b69565b505050565b61059c83838360405180602001604052805f815250610892565b5f6103ec82610a0a565b5f6001600160a01b0382166105ef576040516322718ad960e21b81525f60048201526024016104dc565b506001600160a01b03165f9081526003602052604090205490565b5f7f9f2df0fed2c77648de5860a4cc508cd0818c85b8b8a1ab4ceeef8d981c8956a661063581610acb565b6001600160a01b0387165f908152600a602052604081209087600481111561065f5761065f611623565b600481111561067057610670611623565b815260208101919091526040015f205460ff16156106a557868660405163dfba01ff60e01b81526004016104dc929190611951565b600880546001908101918290556001600160a01b0389165f908152600a602052604081209294509091908860048111156106e1576106e1611623565b60048111156106f2576106f2611623565b81526020019081526020015f205f6101000a81548160ff021916908315150217905550604051806060016040528087600481111561073257610732611623565b815260200186600381111561074957610749611623565b8152426020918201525f84815260099091526040902081518154829060ff1916600183600481111561077d5761077d611623565b021790555060208201518154829061ff0019166101008360038111156107a5576107a5611623565b0217905550604082015181600101559050506107c18783610bd4565b6108008285858080601f0160208091040260200160405190810160405280939291908181526020018383808284375f92019190915250610bed92505050565b81876001600160a01b03167fa8e0f23d1901a9832b2f17c36d9969213abadb024b21e37c6f0b1ac3ed6be14e888860405161083c92919061196e565b60405180910390a35095945050505050565b5f9182526007602090815260408084206001600160a01b0393909316845291905290205460ff1690565b60606001805461040090611919565b6104b3338383610c3c565b61089d8484846104b7565b61053f3385858585610d03565b60606103ec82610e2b565b5f828152600760205260409020600101546108cf81610acb565b61053f8383610b69565b6001600160a01b039182165f90815260056020908152604080832093909416825291909152205460ff1690565b6109286040805160608101909152805f81526020015f81526020015f81525090565b5f610932836105bb565b6001600160a01b03160361095c5760405163c927e5bf60e01b8152600481018390526024016104dc565b5f82815260096020526040908190208151606081019092528054829060ff16600481111561098c5761098c611623565b600481111561099d5761099d611623565b81528154602090910190610100900460ff1660038111156109c0576109c0611623565b60038111156109d1576109d1611623565b81526020016001820154815250509050919050565b5f6001600160e01b03198216637965db0b60e01b14806103ec57506103ec82610eac565b5f818152600260205260408120546001600160a01b0316806103ec57604051637e27328960e01b8152600481018490526024016104dc565b61059c8383836001610ed0565b5f828152600260205260408120546001600160a01b03168015801590610a7d57506001600160a01b03851615155b15610ab557604051633c51fbbd60e01b81526001600160a01b03808316600483015286166024820152604481018590526064016104dc565b610ac0858585610fd4565b9150505b9392505050565b610ad581336110c6565b50565b5f610ae3838361084e565b610b62575f8381526007602090815260408083206001600160a01b03861684529091529020805460ff19166001179055610b1a3390565b6001600160a01b0316826001600160a01b0316847f2f8788117e7eff1d82e926ec794901d17c78024a50270940304540a733656f0d60405160405180910390a45060016103ec565b505f6103ec565b5f610b74838361084e565b15610b62575f8381526007602090815260408083206001600160a01b0386168085529252808320805460ff1916905551339286917ff6391f5c32d9c69d2a47ea670b442974b53935d1edc7fd64eb21e047a839171b9190a45060016103ec565b6104b3828260405180602001604052805f8152506110ff565b5f828152600660205260409020610c0482826119cd565b506040518281527ff8e1a15aba9398e019f0b49df1a4fde98ee17ae345cb5f6b5e2c27f5033e8ce79060200160405180910390a15050565b6001600160a01b038316610c655760405163a9fbf51f60e01b81525f60048201526024016104dc565b6001600160a01b038216610c9757604051630b61174360e31b81526001600160a01b03831660048201526024016104dc565b6001600160a01b038381165f81815260056020908152604080832094871680845294825291829020805460ff191686151590811790915591519182527f17307eab39ab6107e8899845ad3d59bd9653f200f220920489ca2b5937696c31910160405180910390a3505050565b6001600160a01b0383163b15610e2457604051630a85bd0160e11b81526001600160a01b0384169063150b7a0290610d45908890889087908790600401611a89565b6020604051808303815f875af1925050508015610d7f575060408051601f3d908101601f19168201909252610d7c91810190611ac5565b60015b610de6573d808015610dac576040519150601f19603f3d011682016040523d82523d5f602084013e610db1565b606091505b5080515f03610dde57604051633250574960e11b81526001600160a01b03851660048201526024016104dc565b805160208201fd5b6001600160e01b03198116630a85bd0160e11b14610e2257604051633250574960e11b81526001600160a01b03851660048201526024016104dc565b505b5050505050565b6060610e3682610a0a565b505f610e4c60408051602081019091525f815290565b90505f610e5884611116565b905081515f03610e69579392505050565b805115610e9b578181604051602001610e83929190611ae0565b60405160208183030381529060405292505050919050565b610ea4846111b5565b949350505050565b5f6001600160e01b03198216632483248360e11b14806103ec57506103ec82611225565b8080610ee457506001600160a01b03821615155b15610fa5575f610ef384610a0a565b90506001600160a01b03831615801590610f1f5750826001600160a01b0316816001600160a01b031614155b8015610f325750610f3081846108d9565b155b15610f5b5760405163a9fbf51f60e01b81526001600160a01b03841660048201526024016104dc565b8115610fa35783856001600160a01b0316826001600160a01b03167f8c5be1e5ebec7d5bd14f71427d1e84f3dd0314c0f7b2291e5b200ac8c7c3b92560405160405180910390a45b505b50505f90815260046020526040902080546001600160a01b0319166001600160a01b0392909216919091179055565b5f828152600260205260408120546001600160a01b039081169083161561100057611000818486611274565b6001600160a01b0381161561103a5761101b5f855f80610ed0565b6001600160a01b0381165f90815260036020526040902080545f190190555b6001600160a01b03851615611068576001600160a01b0385165f908152600360205260409020805460010190555b5f8481526002602052604080822080546001600160a01b0319166001600160a01b0389811691821790925591518793918516917fddf252ad1be2c89b69c2b068fc378daa952ba7f163c4a11628f55a4df523b3ef91a4949350505050565b6110d0828261084e565b6104b35760405163e2517d3f60e01b81526001600160a01b0382166004820152602481018390526044016104dc565b61110983836112d8565b61059c335f858585610d03565b5f81815260066020526040902080546060919061113290611919565b80601f016020809104026020016040519081016040528092919081815260200182805461115e90611919565b80156111a95780601f10611180576101008083540402835291602001916111a9565b820191905f5260205f20905b81548152906001019060200180831161118c57829003601f168201915b50505050509050919050565b60606111c082610a0a565b505f6111d660408051602081019091525f815290565b90505f8151116111f45760405180602001604052805f815250610ac4565b806111fe84611339565b60405160200161120f929190611ae0565b6040516020818303038152906040529392505050565b5f6001600160e01b031982166380ac58cd60e01b148061125557506001600160e01b03198216635b5e139f60e01b145b806103ec57506301ffc9a760e01b6001600160e01b03198316146103ec565b61127f8383836113c9565b61059c576001600160a01b0383166112ad57604051637e27328960e01b8152600481018290526024016104dc565b60405163177e802f60e01b81526001600160a01b0383166004820152602481018290526044016104dc565b6001600160a01b03821661130157604051633250574960e11b81525f60048201526024016104dc565b5f61130d83835f610a4f565b90506001600160a01b0381161561059c576040516339e3563760e11b81525f60048201526024016104dc565b60605f6113458361142a565b60010190505f8167ffffffffffffffff811115611364576113646117d5565b6040519080825280601f01601f19166020018201604052801561138e576020820181803683370190505b5090508181016020015b5f19016f181899199a1a9b1b9c1cb0b131b232b360811b600a86061a8153600a850494508461139857509392505050565b5f6001600160a01b03831615801590610ea45750826001600160a01b0316846001600160a01b03161480611402575061140284846108d9565b80610ea45750505f908152600460205260409020546001600160a01b03908116911614919050565b5f8072184f03e93ff9f4daa797ed6e38ed64bf6a1f0160401b83106114685772184f03e93ff9f4daa797ed6e38ed64bf6a1f0160401b830492506040015b6d04ee2d6d415b85acef81000000008310611494576d04ee2d6d415b85acef8100000000830492506020015b662386f26fc1000083106114b257662386f26fc10000830492506010015b6305f5e10083106114ca576305f5e100830492506008015b61271083106114de57612710830492506004015b606483106114f0576064830492506002015b600a83106103ec5760010192915050565b6001600160e01b031981168114610ad5575f80fd5b5f60208284031215611526575f80fd5b8135610ac481611501565b5f5b8381101561154b578181015183820152602001611533565b50505f910152565b5f815180845261156a816020860160208601611531565b601f01601f19169290920160200192915050565b602081525f610ac46020830184611553565b5f602082840312156115a0575f80fd5b5035919050565b80356001600160a01b03811681146115bd575f80fd5b919050565b5f80604083850312156115d3575f80fd5b6115dc836115a7565b946020939093013593505050565b5f805f606084860312156115fc575f80fd5b611605846115a7565b9250611613602085016115a7565b9150604084013590509250925092565b634e487b7160e01b5f52602160045260245ffd5b6005811061164757611647611623565b9052565b6004811061164757611647611623565b606081016116698286611637565b611676602083018561164b565b826040830152949350505050565b5f8060408385031215611695575f80fd5b823591506116a5602084016115a7565b90509250929050565b8035600581106115bd575f80fd5b5f80604083850312156116cd575f80fd5b6116d6836115a7565b91506116a5602084016116ae565b5f602082840312156116f4575f80fd5b610ac4826115a7565b5f805f805f60808688031215611711575f80fd5b61171a866115a7565b9450611728602087016116ae565b935060408601356004811061173b575f80fd5b9250606086013567ffffffffffffffff80821115611757575f80fd5b818801915088601f83011261176a575f80fd5b813581811115611778575f80fd5b896020828501011115611789575f80fd5b9699959850939650602001949392505050565b5f80604083850312156117ad575f80fd5b6117b6836115a7565b9150602083013580151581146117ca575f80fd5b809150509250929050565b634e487b7160e01b5f52604160045260245ffd5b5f805f80608085870312156117fc575f80fd5b611805856115a7565b9350611813602086016115a7565b925060408501359150606085013567ffffffffffffffff80821115611836575f80fd5b818701915087601f830112611849575f80fd5b81358181111561185b5761185b6117d5565b604051601f8201601f19908116603f01168101908382118183101715611883576118836117d5565b816040528281528a602084870101111561189b575f80fd5b826020860160208301375f60208483010152809550505050505092959194509250565b5f80604083850312156118cf575f80fd5b6118d8836115a7565b91506116a5602084016115a7565b5f6060820190506118f8828451611637565b602083015161190a602084018261164b565b50604092830151919092015290565b600181811c9082168061192d57607f821691505b60208210810361194b57634e487b7160e01b5f52602260045260245ffd5b50919050565b6001600160a01b038316815260408101610ac46020830184611637565b6040810161197c8285611637565b610ac4602083018461164b565b601f82111561059c57805f5260205f20601f840160051c810160208510156119ae5750805b601f840160051c820191505b81811015610e24575f81556001016119ba565b815167ffffffffffffffff8111156119e7576119e76117d5565b6119fb816119f58454611919565b84611989565b602080601f831160018114611a2e575f8415611a175750858301515b5f19600386901b1c1916600185901b178555610e22565b5f85815260208120601f198616915b82811015611a5c57888601518255948401946001909101908401611a3d565b5085821015611a7957878501515f19600388901b60f8161c191681555b5050505050600190811b01905550565b6001600160a01b03858116825284166020820152604081018390526080606082018190525f90611abb90830184611553565b9695505050505050565b5f60208284031215611ad5575f80fd5b8151610ac481611501565b5f8351611af1818460208801611531565b835190830190611b05818360208801611531565b0194935050505056fea2646970667358221220cc717d324e00d4606d2ded7956cbd860b082416ca897bd102e475305b416769e64736f6c63430008180033","linkReferences":{}},"methodIdentifiers":{"DEFAULT_ADMIN_ROLE()":"a217fddf","MINTER_ROLE()":"d5391393","achievements(uint256)":"27aed72e","approve(address,uint256)":"095ea7b3","balanceOf(address)":"70a08231","getAchievement(uint256)":"f2ccc543","getApproved(uint256)":"081812fc","getRoleAdmin(bytes32)":"248a9ca3","grantRole(bytes32,address)":"2f2ff15d","hasAchievement(address,uint8)":"45fd14b0","hasRole(bytes32,address)":"91d14854","isApprovedForAll(address,address)":"e985e9c5","mintAchievement(address,uint8,uint8,string)":"7caa2e58","name()":"06fdde03","ownerOf(uint256)":"6352211e","renounceRole(bytes32,address)":"36568abe","revokeRole(bytes32,address)":"d547741f","safeTransferFrom(address,address,uint256)":"42842e0e","safeTransferFrom(address,address,uint256,bytes)":"b88d4fde","setApprovalForAll(address,bool)":"a22cb465","supportsInterface(bytes4)":"01ffc9a7","symbol()":"95d89b41","tokenURI(uint256)":"c87b56dd","totalMinted()":"a2309ff8","transferFrom(address,address,uint256)":"23b872dd"},"id":89}