{"abi":[{"type":"constructor","inputs":[{"name":"admin","type":"address","internalType":"address"}],"stateMutability":"nonpayable"},{"type":"function","name":"DEFAULT_ADMIN_ROLE","inputs":[],"outputs":[{"name":"","type":"bytes32","internalType":"bytes32"}],"stateMutability":"view"},{"type":"function","name":"DEPLOYER_ROLE","inputs":[],"outputs":[{"name":"","type":"bytes32","internalType":"bytes32"}],"stateMutability":"view"},{"type":"function","name":"ammBySalt","inputs":[{"name":"","type":"bytes32","internalType":"bytes32"}],"outputs":[{"name":"","type":"address","internalType":"address"}],"stateMutability":"view"},{"type":"function","name":"computeAmmAddress","inputs":[{"name":"tokenA","type":"address","internalType":"address"},{"name":"tokenB","type":"address","internalType":"address"},{"name":"salt","type":"bytes32","internalType":"bytes32"}],"outputs":[{"name":"predicted","type":"address","internalType":"address"}],"stateMutability":"view"},{"type":"function","name":"deployAmm","inputs":[{"name":"tokenA","type":"address","internalType":"address"},{"name":"tokenB","type":"address","internalType":"address"}],"outputs":[{"name":"amm","type":"address","internalType":"address"}],"stateMutability":"nonpayable"},{"type":"function","name":"deployAmm2","inputs":[{"name":"tokenA","type":"address","internalType":"address"},{"name":"tokenB","type":"address","internalType":"address"},{"name":"salt","type":"bytes32","internalType":"bytes32"}],"outputs":[{"name":"amm","type":"address","internalType":"address"}],"stateMutability":"nonpayable"},{"type":"function","name":"deployVault","inputs":[{"name":"asset","type":"address","internalType":"address"},{"name":"name","type":"string","internalType":"string"},{"name":"symbol","type":"string","internalType":"string"}],"outputs":[{"name":"vault","type":"address","internalType":"address"}],"stateMutability":"nonpayable"},{"type":"function","name":"deployVault2","inputs":[{"name":"asset","type":"address","internalType":"address"},{"name":"name","type":"string","internalType":"string"},{"name":"symbol","type":"string","internalType":"string"},{"name":"salt","type":"bytes32","internalType":"bytes32"}],"outputs":[{"name":"vault","type":"address","internalType":"address"}],"stateMutability":"nonpayable"},{"type":"function","name":"deployedAmmCount","inputs":[],"outputs":[{"name":"","type":"uint256","internalType":"uint256"}],"stateMutability":"view"},{"type":"function","name":"deployedAmms","inputs":[{"name":"","type":"uint256","internalType":"uint256"}],"outputs":[{"name":"","type":"address","internalType":"address"}],"stateMutability":"view"},{"type":"function","name":"deployedVaultCount","inputs":[],"outputs":[{"name":"","type":"uint256","internalType":"uint256"}],"stateMutability":"view"},{"type":"function","name":"deployedVaults","inputs":[{"name":"","type":"uint256","internalType":"uint256"}],"outputs":[{"name":"","type":"address","internalType":"address"}],"stateMutability":"view"},{"type":"function","name":"getRoleAdmin","inputs":[{"name":"role","type":"bytes32","internalType":"bytes32"}],"outputs":[{"name":"","type":"bytes32","internalType":"bytes32"}],"stateMutability":"view"},{"type":"function","name":"grantRole","inputs":[{"name":"role","type":"bytes32","internalType":"bytes32"},{"name":"account","type":"address","internalType":"address"}],"outputs":[],"stateMutability":"nonpayable"},{"type":"function","name":"hasRole","inputs":[{"name":"role","type":"bytes32","internalType":"bytes32"},{"name":"account","type":"address","internalType":"address"}],"outputs":[{"name":"","type":"bool","internalType":"bool"}],"stateMutability":"view"},{"type":"function","name":"renounceRole","inputs":[{"name":"role","type":"bytes32","internalType":"bytes32"},{"name":"callerConfirmation","type":"address","internalType":"address"}],"outputs":[],"stateMutability":"nonpayable"},{"type":"function","name":"revokeRole","inputs":[{"name":"role","type":"bytes32","internalType":"bytes32"},{"name":"account","type":"address","internalType":"address"}],"outputs":[],"stateMutability":"nonpayable"},{"type":"function","name":"supportsInterface","inputs":[{"name":"interfaceId","type":"bytes4","internalType":"bytes4"}],"outputs":[{"name":"","type":"bool","internalType":"bool"}],"stateMutability":"view"},{"type":"function","name":"vaultBySalt","inputs":[{"name":"","type":"bytes32","internalType":"bytes32"}],"outputs":[{"name":"","type":"address","internalType":"address"}],"stateMutability":"view"},{"type":"event","name":"AMMDeployed","inputs":[{"name":"amm","type":"address","indexed":true,"internalType":"address"},{"name":"tokenA","type":"address","indexed":true,"internalType":"address"},{"name":"tokenB","type":"address","indexed":true,"internalType":"address"},{"name":"salt","type":"bytes32","indexed":false,"internalType":"bytes32"}],"anonymous":false},{"type":"event","name":"RoleAdminChanged","inputs":[{"name":"role","type":"bytes32","indexed":true,"internalType":"bytes32"},{"name":"previousAdminRole","type":"bytes32","indexed":true,"internalType":"bytes32"},{"name":"newAdminRole","type":"bytes32","indexed":true,"internalType":"bytes32"}],"anonymous":false},{"type":"event","name":"RoleGranted","inputs":[{"name":"role","type":"bytes32","indexed":true,"internalType":"bytes32"},{"name":"account","type":"address","indexed":true,"internalType":"address"},{"name":"sender","type":"address","indexed":true,"internalType":"address"}],"anonymous":false},{"type":"event","name":"RoleRevoked","inputs":[{"name":"role","type":"bytes32","indexed":true,"internalType":"bytes32"},{"name":"account","type":"address","indexed":true,"internalType":"address"},{"name":"sender","type":"address","indexed":true,"internalType":"address"}],"anonymous":false},{"type":"event","name":"VaultDeployed","inputs":[{"name":"vault","type":"address","indexed":true,"internalType":"address"},{"name":"asset","type":"address","indexed":true,"internalType":"address"},{"name":"salt","type":"bytes32","indexed":false,"internalType":"bytes32"}],"anonymous":false},{"type":"error","name":"AccessControlBadConfirmation","inputs":[]},{"type":"error","name":"AccessControlUnauthorizedAccount","inputs":[{"name":"account","type":"address","internalType":"address"},{"name":"neededRole","type":"bytes32","internalType":"bytes32"}]},{"type":"error","name":"DeploymentFailed","inputs":[]},{"type":"error","name":"SaltAlreadyUsed","inputs":[{"name":"salt","type":"bytes32","internalType":"bytes32"}]},{"type":"error","name":"ZeroAddress","inputs":[]}],"bytecode":{"object":"0x608060405234801561000f575f80fd5b506040516200530e3803806200530e83398101604081905261003091610115565b61003a5f8261006c565b506100657ffc425f2263d0df187444b70e47283d622c70181c5baebb1306a01edba1ce184c8261006c565b5050610142565b5f828152602081815260408083206001600160a01b038516845290915281205460ff1661010c575f838152602081815260408083206001600160a01b03861684529091529020805460ff191660011790556100c43390565b6001600160a01b0316826001600160a01b0316847f2f8788117e7eff1d82e926ec794901d17c78024a50270940304540a733656f0d60405160405180910390a450600161010f565b505f5b92915050565b5f60208284031215610125575f80fd5b81516001600160a01b038116811461013b575f80fd5b9392505050565b6151be80620001505f395ff3fe608060405234801562000010575f80fd5b506004361062000134575f3560e01c806391d1485411620000b7578063cf60c61f1162000077578063cf60c61f14620002bf578063d547741f14620002d6578063ecd0026114620002ed578063f0aed8dc1462000303578063f8b4e6e8146200031a575f80fd5b806391d148541462000269578063a217fddf1462000280578063a9949c961462000288578063ae6460901462000291578063c53d662414620002a8575f80fd5b8063248a9ca31162000103578063248a9ca314620001d25780632f2ff15d14620001f757806336568abe1462000210578063594c2329146200022757806379bc830a1462000252575f80fd5b806301ffc9a714620001385780630ac214df14620001645780630e11db9514620001945780631ce31dd514620001a7575b5f80fd5b6200014f6200014936600462000c6e565b62000331565b60405190151581526020015b60405180910390f35b6200017b6200017536600462000c9e565b62000368565b6040516001600160a01b0390911681526020016200015b565b6002545b6040519081526020016200015b565b6200017b620001b836600462000c9e565b60036020525f90815260409020546001600160a01b031681565b62000198620001e336600462000c9e565b5f9081526020819052604090206001015490565b6200020e6200020836600462000cd2565b62000391565b005b6200020e6200022136600462000cd2565b620003bf565b6200017b6200023836600462000c9e565b60046020525f90815260409020546001600160a01b031681565b6200017b6200026336600462000c9e565b620003fa565b6200014f6200027a36600462000cd2565b6200040a565b620001985f81565b60015462000198565b6200017b620002a236600462000cff565b62000432565b6200017b620002b936600462000cff565b620004e3565b6200017b620002d036600462000d85565b620006a9565b6200020e620002e736600462000cd2565b620007bd565b620001985f805160206200516983398151915281565b6200017b6200031436600462000e09565b620007e5565b6200017b6200032b36600462000e36565b62000910565b5f6001600160e01b03198216637965db0b60e01b14806200036257506301ffc9a760e01b6001600160e01b03198316145b92915050565b6002818154811062000378575f80fd5b5f918252602090912001546001600160a01b0316905081565b5f82815260208190526040902060010154620003ad8162000ab6565b620003b9838362000ac5565b50505050565b6001600160a01b0381163314620003e95760405163334bd91960e11b815260040160405180910390fd5b620003f5828262000b5a565b505050565b6001818154811062000378575f80fd5b5f918252602082815260408084206001600160a01b0393909316845291905290205460ff1690565b5f8060405180602001620004469062000c52565b601f1982820381018352601f9091011660408181526001600160a01b03888116602084015287169082015260600160408051601f198184030181529082905262000494929160200162000ef1565b60408051601f19818403018152908290528051602082012090925090309060ff815360609190911b6001820152601581019490945260358401525050605590206001600160a01b031692915050565b5f5f8051602062005169833981519152620004fe8162000ab6565b6001600160a01b03851615806200051c57506001600160a01b038416155b156200053b5760405163d92e233d60e01b815260040160405180910390fd5b5f838152600360205260409020546001600160a01b03161562000579576040516345d74a5360e11b8152600481018490526024015b60405180910390fd5b5f604051806020016200058c9062000c52565b601f1982820381018352601f9091011660408181526001600160a01b03898116602084015288169082015260600160408051601f1981840301815290829052620005da929160200162000ef1565b6040516020818303038152906040529050620005f7818562000bc7565b5f8581526003602052604080822080546001600160a01b038086166001600160a01b0319928316811790935560018054808201825595527fb10e2d527612073b26eecdfd717e6a320cf44b4afac2b0732d9fcbe2b7fa0cf6909401805490911682179055905192955087821692918916917f59d02dc56edd854c3ff61a8890968b6ed49293a6208386dc2aaeb659ad284e7e90620006989089815260200190565b60405180910390a450509392505050565b5f5f8051602062005169833981519152620006c48162000ab6565b6001600160a01b038716620006ec5760405163d92e233d60e01b815260040160405180910390fd5b868686868633604051620007009062000c60565b620007119695949392919062000f39565b604051809103905ff0801580156200072b573d5f803e3d5ffd5b50600280546001810182555f9182527f405787fa12a823e0f2b7631cc41b3ba8828b3321ca811111fa75cd3aa3bb5ace0180546001600160a01b0319166001600160a01b03848116918217909255604051928352929450891691907f974c8040a9cc92c8ee6c077423071c05007f5382617d4b92868938f33d3d197e9060200160405180910390a35095945050505050565b5f82815260208190526040902060010154620007d98162000ab6565b620003b9838362000b5a565b5f5f8051602062005169833981519152620008008162000ab6565b6001600160a01b03841615806200081e57506001600160a01b038316155b156200083d5760405163d92e233d60e01b815260040160405180910390fd5b83836040516200084d9062000c52565b6001600160a01b03928316815291166020820152604001604051809103905ff0801580156200087e573d5f803e3d5ffd5b506001805480820182555f9182527fb10e2d527612073b26eecdfd717e6a320cf44b4afac2b0732d9fcbe2b7fa0cf60180546001600160a01b0319166001600160a01b0384811691821790925560405192835292945085811692908716917f59d02dc56edd854c3ff61a8890968b6ed49293a6208386dc2aaeb659ad284e7e9060200160405180910390a45092915050565b5f5f80516020620051698339815191526200092b8162000ab6565b6001600160a01b038816620009535760405163d92e233d60e01b815260040160405180910390fd5b5f838152600460205260409020546001600160a01b0316156200098d576040516345d74a5360e11b81526004810184905260240162000570565b5f60405180602001620009a09062000c60565b601f1982820381018352601f909101166040819052620009cf908b908b908b908b908b90339060200162000f39565b60408051601f1981840301815290829052620009ef929160200162000ef1565b604051602081830303815290604052905062000a0c818562000bc7565b5f85815260046020908152604080832080546001600160a01b03199081166001600160a01b038781169182179093556002805460018101825596527f405787fa12a823e0f2b7631cc41b3ba8828b3321ca811111fa75cd3aa3bb5ace90950180549091168517905590518881529396508c16927f974c8040a9cc92c8ee6c077423071c05007f5382617d4b92868938f33d3d197e910160405180910390a350509695505050505050565b62000ac2813362000c11565b50565b5f62000ad283836200040a565b62000b52575f838152602081815260408083206001600160a01b03861684529091529020805460ff1916600117905562000b093390565b6001600160a01b0316826001600160a01b0316847f2f8788117e7eff1d82e926ec794901d17c78024a50270940304540a733656f0d60405160405180910390a450600162000362565b505f62000362565b5f62000b6783836200040a565b1562000b52575f838152602081815260408083206001600160a01b0386168085529252808320805460ff1916905551339286917ff6391f5c32d9c69d2a47ea670b442974b53935d1edc7fd64eb21e047a839171b9190a450600162000362565b5f818351602085015ff590506001600160a01b038116158062000bf257506001600160a01b0381163b155b156200036257604051633011642560e01b815260040160405180910390fd5b62000c1d82826200040a565b62000c4e5760405163e2517d3f60e01b81526001600160a01b03821660048201526024810183905260440162000570565b5050565b6123dc8062000f8a83390190565b611e03806200336683390190565b5f6020828403121562000c7f575f80fd5b81356001600160e01b03198116811462000c97575f80fd5b9392505050565b5f6020828403121562000caf575f80fd5b5035919050565b80356001600160a01b038116811462000ccd575f80fd5b919050565b5f806040838503121562000ce4575f80fd5b8235915062000cf66020840162000cb6565b90509250929050565b5f805f6060848603121562000d12575f80fd5b62000d1d8462000cb6565b925062000d2d6020850162000cb6565b9150604084013590509250925092565b5f8083601f84011262000d4e575f80fd5b50813567ffffffffffffffff81111562000d66575f80fd5b60208301915083602082850101111562000d7e575f80fd5b9250929050565b5f805f805f6060868803121562000d9a575f80fd5b62000da58662000cb6565b9450602086013567ffffffffffffffff8082111562000dc2575f80fd5b62000dd089838a0162000d3d565b9096509450604088013591508082111562000de9575f80fd5b5062000df88882890162000d3d565b969995985093965092949392505050565b5f806040838503121562000e1b575f80fd5b62000e268362000cb6565b915062000cf66020840162000cb6565b5f805f805f806080878903121562000e4c575f80fd5b62000e578762000cb6565b9550602087013567ffffffffffffffff8082111562000e74575f80fd5b62000e828a838b0162000d3d565b9097509550604089013591508082111562000e9b575f80fd5b5062000eaa89828a0162000d3d565b979a9699509497949695606090950135949350505050565b5f81515f5b8181101562000ee3576020818501810151868301520162000ec7565b505f93019283525090919050565b5f62000f0962000f02838662000ec2565b8462000ec2565b949350505050565b81835281816020850137505f828201602090810191909152601f909101601f19169091010190565b5f60018060a01b0380891683526080602084015262000f5d60808401888a62000f11565b838103604085015262000f7281878962000f11565b92505080841660608401525097965050505050505056fe60e060405234801562000010575f80fd5b50604051620023dc380380620023dc833981016040819052620000339162000122565b60017f9b779b17422d0df92223018b32b4d1fa46e071723d6817e2486d003becc55f00556001600160a01b03808316608052811660a05260405130906200007a90620000f8565b6060808252600c908201526b20a6a6902628102a37b5b2b760a11b608082015260a060208201819052600390820152620414c560ec1b60c08201526001600160a01b03909116604082015260e001604051809103905ff080158015620000e2573d5f803e3d5ffd5b506001600160a01b031660c05250620001589050565b610f9d806200143f83390190565b80516001600160a01b03811681146200011d575f80fd5b919050565b5f806040838503121562000134575f80fd5b6200013f8362000106565b91506200014f6020840162000106565b90509250929050565b60805160a05160c051611254620001eb5f395f81816101120152818161074c0152818161087301528181610be601528181610cad0152610d9001525f818160c001528181610266015281816102fe0152818161047b01528181610634015261093101525f81816101b20152818161022e015281816102d301528181610443015281816105ff01526108fd01526112545ff3fe608060405234801561000f575f80fd5b506004361061009b575f3560e01c8063dc5fa6c511610063578063dc5fa6c514610147578063dc76fabc1461014f578063ded998b91461016c578063ed856cdc1461019a578063ff709ee8146101ad575f80fd5b806319e36f3b1461009f578063499f712e146100bb578063acf0ae03146100fa578063bfd9041b1461010d578063ca706bcf14610134575b5f80fd5b6100a860015481565b6040519081526020015b60405180910390f35b6100e27f000000000000000000000000000000000000000000000000000000000000000081565b6040516001600160a01b0390911681526020016100b2565b6100a8610108366004611072565b6101d4565b6100e27f000000000000000000000000000000000000000000000000000000000000000081565b6100a86101423660046110bc565b610440565b6100a85f5481565b610157610509565b604080519283526020830191909152016100b2565b61017f61017a3660046110e4565b610583565b604080519384526020840192909252908201526060016100b2565b6101576101a8366004611131565b6106f5565b6100e27f000000000000000000000000000000000000000000000000000000000000000081565b5f6101dd6109c5565b8142111561020c576040516302a07ebf60e31b8152600481018390524260248201526044015b60405180910390fd5b845f0361022c57604051631f2a200560e01b815260040160405180910390fd5b7f00000000000000000000000000000000000000000000000000000000000000006001600160a01b039081169087161480158161029b57507f00000000000000000000000000000000000000000000000000000000000000006001600160a01b0316876001600160a01b031614155b156102c45760405163961c9a4f60e01b81526001600160a01b0388166004820152602401610203565b5f805f836102f7576001545f547f000000000000000000000000000000000000000000000000000000000000000061031e565b5f546001547f00000000000000000000000000000000000000000000000000000000000000005b92509250925061032f8984846109e0565b94508785101561035c576040516371c4efed60e01b81526004810186905260248101899052604401610203565b6103716001600160a01b038b1633308c610a55565b6103856001600160a01b0382168887610a91565b6103d28461039f57855f5461039a9190611177565b6103ac565b895f546103ac919061118a565b856103c4578a6001546103bf919061118a565b610acb565b866001546103bf9190611177565b604080518a8152602081018790526001600160a01b0380841692908d169133917f692315744755ee6d80decaeb993d4b1bb95ff5db042cc47b32d5a7d858b01902910160405180910390a45050505061043760015f805160206111ff83398151915255565b95945050505050565b5f7f00000000000000000000000000000000000000000000000000000000000000006001600160a01b03908116908416148015816104b057507f00000000000000000000000000000000000000000000000000000000000000006001600160a01b0316846001600160a01b031614155b156104d95760405163961c9a4f60e01b81526001600160a01b0385166004820152602401610203565b5f80826104ea576001545f546104f0565b5f546001545b915091506104ff8583836109e0565b9695505050505050565b5f805f545f148061051a5750600154155b156105385760405163bb55fd2760e01b815260040160405180910390fd5b5f5460015461054f90670de0b6b3a764000061119d565b61055991906111c8565b91506001545f54670de0b6b3a7640000610573919061119d565b61057d91906111c8565b90509091565b5f805f61058e6109c5565b834211156105b8576040516302a07ebf60e31b815260048101859052426024820152604401610203565b8815806105c3575087155b156105e157604051631f2a200560e01b815260040160405180910390fd5b6105ed89898989610b11565b90935091506106276001600160a01b037f000000000000000000000000000000000000000000000000000000000000000016333086610a55565b61065c6001600160a01b037f000000000000000000000000000000000000000000000000000000000000000016333085610a55565b610667858484610be2565b9050610687835f54610679919061118a565b836001546103bf919061118a565b60408051848152602081018490529081018290526001600160a01b038616907f64b83944e79c3ce8d4c297411de637c3e102d064677aac0c163976ebdcd6f50e9060600160405180910390a26106e960015f805160206111ff83398151915255565b96509650969350505050565b5f806106ff6109c5565b82421115610729576040516302a07ebf60e31b815260048101849052426024820152604401610203565b865f0361074957604051631f2a200560e01b815260040160405180910390fd5b5f7f00000000000000000000000000000000000000000000000000000000000000006001600160a01b03166318160ddd6040518163ffffffff1660e01b8152600401602060405180830381865afa1580156107a6573d5f803e3d5ffd5b505050506040513d601f19601f820116820180604052508101906107ca91906111e7565b9050805f54896107da919061119d565b6107e491906111c8565b925080600154896107f5919061119d565b6107ff91906111c8565b91508683101561082c576040516371c4efed60e01b81526004810184905260248101889052604401610203565b85821015610857576040516371c4efed60e01b81526004810183905260248101879052604401610203565b604051632770a7eb60e21b8152336004820152602481018990527f00000000000000000000000000000000000000000000000000000000000000006001600160a01b031690639dc29fac906044015f604051808303815f87803b1580156108bc575f80fd5b505af11580156108ce573d5f803e3d5ffd5b505050506108f0835f546108e29190611177565b836001546103bf9190611177565b6109246001600160a01b037f0000000000000000000000000000000000000000000000000000000000000000168685610a91565b6109586001600160a01b037f0000000000000000000000000000000000000000000000000000000000000000168684610a91565b60408051898152602081018590529081018390526001600160a01b038616907f1dc8bb69df2b8e91fbdcbfcf93d951b3f0000f085a95fe3f7946d6161439245d9060600160405180910390a2506109bb60015f805160206111ff83398151915255565b9550959350505050565b6109cd610def565b60025f805160206111ff83398151915255565b5f8215806109ec575081155b15610a0a5760405163bb55fd2760e01b815260040160405180910390fd5b5f610a176103e58661119d565b90505f610a24848361119d565b90505f82610a346103e88861119d565b610a3e919061118a565b9050610a4a81836111c8565b979650505050505050565b610a63848484846001610e20565b610a8b57604051635274afe760e01b81526001600160a01b0385166004820152602401610203565b50505050565b610a9e8383836001610e8d565b610ac657604051635274afe760e01b81526001600160a01b0384166004820152602401610203565b505050565b5f829055600181905560408051838152602081018390527f5141ecc84a35c12ca2bf76bb33d393bd2fc22f906da0743534beef4ae63c6c8e910160405180910390a15050565b5f805f545f148015610b235750600154155b15610b32575084905083610bd9565b5f8054600154610b42908961119d565b610b4c91906111c8565b9050858111610b8a5783811015610b80576040516371c4efed60e01b81526004810182905260248101859052604401610203565b8692509050610bd9565b5f6001545f5488610b9b919061119d565b610ba591906111c8565b905085811015610bd2576040516371c4efed60e01b81526004810182905260248101879052604401610203565b9250859150505b94509492505050565b5f807f00000000000000000000000000000000000000000000000000000000000000006001600160a01b03166318160ddd6040518163ffffffff1660e01b8152600401602060405180830381865afa158015610c40573d5f803e3d5ffd5b505050506040513d601f19601f82011682018060405250810190610c6491906111e7565b9050805f03610d11576103e8610c82610c7d858761119d565b610eef565b610c8c9190611177565b6040516340c10f1960e01b8152600160048201526103e860248201529092507f00000000000000000000000000000000000000000000000000000000000000006001600160a01b0316906340c10f19906044015f604051808303815f87803b158015610cf6575f80fd5b505af1158015610d08573d5f803e3d5ffd5b50505050610d4a565b5f54610d4790610d21838761119d565b610d2b91906111c8565b600154610d38848761119d565b610d4291906111c8565b611047565b91505b815f03610d6a57604051633489be7560e21b815260040160405180910390fd5b6040516340c10f1960e01b81526001600160a01b038681166004830152602482018490527f000000000000000000000000000000000000000000000000000000000000000016906340c10f19906044015f604051808303815f87803b158015610dd1575f80fd5b505af1158015610de3573d5f803e3d5ffd5b50505050509392505050565b5f805160206111ff83398151915254600203610e1e57604051633ee5aeb560e01b815260040160405180910390fd5b565b6040516323b872dd60e01b5f8181526001600160a01b038781166004528616602452604485905291602083606481808c5af1925060015f51148316610e7c578383151615610e70573d5f823e3d81fd5b5f883b113d1516831692505b604052505f60605295945050505050565b60405163a9059cbb60e01b5f8181526001600160a01b038616600452602485905291602083604481808b5af1925060015f51148316610ee3578383151615610ed7573d5f823e3d81fd5b5f873b113d1516831692505b60405250949350505050565b5f60018211610efc575090565b816001600160801b8210610f155760809190911c9060401b5b680100000000000000008210610f305760409190911c9060201b5b6401000000008210610f475760209190911c9060101b5b620100008210610f5c5760109190911c9060081b5b6101008210610f705760089190911c9060041b5b60108210610f835760049190911c9060021b5b60048210610f8f5760011b5b600302600190811c90818581610fa757610fa76111b4565b048201901c90506001818581610fbf57610fbf6111b4565b048201901c90506001818581610fd757610fd76111b4565b048201901c90506001818581610fef57610fef6111b4565b048201901c90506001818581611007576110076111b4565b048201901c9050600181858161101f5761101f6111b4565b048201901c905061103e818581611038576110386111b4565b04821190565b90039392505050565b8082108183180281185b92915050565b80356001600160a01b038116811461106d575f80fd5b919050565b5f805f805f60a08688031215611086575f80fd5b61108f86611057565b945060208601359350604086013592506110ab60608701611057565b949793965091946080013592915050565b5f80604083850312156110cd575f80fd5b6110d683611057565b946020939093013593505050565b5f805f805f8060c087890312156110f9575f80fd5b8635955060208701359450604087013593506060870135925061111e60808801611057565b915060a087013590509295509295509295565b5f805f805f60a08688031215611145575f80fd5b8535945060208601359350604086013592506110ab60608701611057565b634e487b7160e01b5f52601160045260245ffd5b8181038181111561105157611051611163565b8082018082111561105157611051611163565b808202811582820484141761105157611051611163565b634e487b7160e01b5f52601260045260245ffd5b5f826111e257634e487b7160e01b5f52601260045260245ffd5b500490565b5f602082840312156111f7575f80fd5b505191905056fe9b779b17422d0df92223018b32b4d1fa46e071723d6817e2486d003becc55f00a2646970667358221220cc68d0db4b8cf7bdf81cc41aeaa4495ff967b6ebd0d24720617b8c00862d0d9664736f6c63430008180033608060405234801562000010575f80fd5b5060405162000f9d38038062000f9d83398101604081905262000033916200020b565b828260036200004383826200031c565b5060046200005282826200031c565b506200006391505f9050826200009a565b50620000907f9f2df0fed2c77648de5860a4cc508cd0818c85b8b8a1ab4ceeef8d981c8956a6826200009a565b50505050620003e8565b5f8281526005602090815260408083206001600160a01b038516845290915281205460ff1662000141575f8381526005602090815260408083206001600160a01b03861684529091529020805460ff19166001179055620000f83390565b6001600160a01b0316826001600160a01b0316847f2f8788117e7eff1d82e926ec794901d17c78024a50270940304540a733656f0d60405160405180910390a450600162000144565b505f5b92915050565b634e487b7160e01b5f52604160045260245ffd5b5f82601f8301126200016e575f80fd5b81516001600160401b03808211156200018b576200018b6200014a565b604051601f8301601f19908116603f01168101908282118183101715620001b657620001b66200014a565b8160405283815260209250866020858801011115620001d3575f80fd5b5f91505b83821015620001f65785820183015181830184015290820190620001d7565b5f602085830101528094505050505092915050565b5f805f606084860312156200021e575f80fd5b83516001600160401b038082111562000235575f80fd5b62000243878388016200015e565b9450602086015191508082111562000259575f80fd5b5062000268868287016200015e565b604086015190935090506001600160a01b038116811462000287575f80fd5b809150509250925092565b600181811c90821680620002a757607f821691505b602082108103620002c657634e487b7160e01b5f52602260045260245ffd5b50919050565b601f8211156200031757805f5260205f20601f840160051c81016020851015620002f35750805b601f840160051c820191505b8181101562000314575f8155600101620002ff565b50505b505050565b81516001600160401b038111156200033857620003386200014a565b620003508162000349845462000292565b84620002cc565b602080601f83116001811462000386575f84156200036e5750858301515b5f19600386901b1c1916600185901b178555620003e0565b5f85815260208120601f198616915b82811015620003b65788860151825594840194600190910190840162000395565b5085821015620003d457878501515f19600388901b60f8161c191681555b505060018460011b0185555b505050505050565b610ba780620003f65f395ff3fe608060405234801561000f575f80fd5b506004361061011c575f3560e01c806340c10f19116100a9578063a217fddf1161006e578063a217fddf14610257578063a9059cbb1461025e578063d539139314610271578063d547741f14610298578063dd62ed3e146102ab575f80fd5b806340c10f19146101ee57806370a082311461020157806391d148541461022957806395d89b411461023c5780639dc29fac14610244575f80fd5b806323b872dd116100ef57806323b872dd14610182578063248a9ca3146101955780632f2ff15d146101b7578063313ce567146101cc57806336568abe146101db575f80fd5b806301ffc9a71461012057806306fdde0314610148578063095ea7b31461015d57806318160ddd14610170575b5f80fd5b61013361012e3660046109a2565b6102e3565b60405190151581526020015b60405180910390f35b610150610319565b60405161013f91906109d0565b61013361016b366004610a37565b6103a9565b6002545b60405190815260200161013f565b610133610190366004610a5f565b6103c0565b6101746101a3366004610a98565b5f9081526005602052604090206001015490565b6101ca6101c5366004610aaf565b6103e3565b005b6040516012815260200161013f565b6101ca6101e9366004610aaf565b61040d565b6101ca6101fc366004610a37565b610445565b61017461020f366004610ad9565b6001600160a01b03165f9081526020819052604090205490565b610133610237366004610aaf565b610479565b6101506104a3565b6101ca610252366004610a37565b6104b2565b6101745f81565b61013361026c366004610a37565b6104e6565b6101747f9f2df0fed2c77648de5860a4cc508cd0818c85b8b8a1ab4ceeef8d981c8956a681565b6101ca6102a6366004610aaf565b6104f3565b6101746102b9366004610af2565b6001600160a01b039182165f90815260016020908152604080832093909416825291909152205490565b5f6001600160e01b03198216637965db0b60e01b148061031357506301ffc9a760e01b6001600160e01b03198316145b92915050565b60606003805461032890610b1a565b80601f016020809104026020016040519081016040528092919081815260200182805461035490610b1a565b801561039f5780601f106103765761010080835404028352916020019161039f565b820191905f5260205f20905b81548152906001019060200180831161038257829003601f168201915b5050505050905090565b5f336103b6818585610517565b5060019392505050565b5f336103cd858285610524565b6103d885858561059f565b506001949350505050565b5f828152600560205260409020600101546103fd816105fc565b6104078383610609565b50505050565b6001600160a01b03811633146104365760405163334bd91960e11b815260040160405180910390fd5b610440828261069a565b505050565b7f9f2df0fed2c77648de5860a4cc508cd0818c85b8b8a1ab4ceeef8d981c8956a661046f816105fc565b6104408383610705565b5f9182526005602090815260408084206001600160a01b0393909316845291905290205460ff1690565b60606004805461032890610b1a565b7f9f2df0fed2c77648de5860a4cc508cd0818c85b8b8a1ab4ceeef8d981c8956a66104dc816105fc565b610440838361073d565b5f336103b681858561059f565b5f8281526005602052604090206001015461050d816105fc565b610407838361069a565b6104408383836001610771565b6001600160a01b038381165f908152600160209081526040808320938616835292905220545f19811015610407578181101561059157604051637dc7a0d960e11b81526001600160a01b038416600482015260248101829052604481018390526064015b60405180910390fd5b61040784848484035f610771565b6001600160a01b0383166105c857604051634b637e8f60e11b81525f6004820152602401610588565b6001600160a01b0382166105f15760405163ec442f0560e01b81525f6004820152602401610588565b610440838383610843565b6106068133610969565b50565b5f6106148383610479565b610693575f8381526005602090815260408083206001600160a01b03861684529091529020805460ff1916600117905561064b3390565b6001600160a01b0316826001600160a01b0316847f2f8788117e7eff1d82e926ec794901d17c78024a50270940304540a733656f0d60405160405180910390a4506001610313565b505f610313565b5f6106a58383610479565b15610693575f8381526005602090815260408083206001600160a01b0386168085529252808320805460ff1916905551339286917ff6391f5c32d9c69d2a47ea670b442974b53935d1edc7fd64eb21e047a839171b9190a4506001610313565b6001600160a01b03821661072e5760405163ec442f0560e01b81525f6004820152602401610588565b6107395f8383610843565b5050565b6001600160a01b03821661076657604051634b637e8f60e11b81525f6004820152602401610588565b610739825f83610843565b6001600160a01b03841661079a5760405163e602df0560e01b81525f6004820152602401610588565b6001600160a01b0383166107c357604051634a1406b160e11b81525f6004820152602401610588565b6001600160a01b038085165f908152600160209081526040808320938716835292905220829055801561040757826001600160a01b0316846001600160a01b03167f8c5be1e5ebec7d5bd14f71427d1e84f3dd0314c0f7b2291e5b200ac8c7c3b9258460405161083591815260200190565b60405180910390a350505050565b6001600160a01b03831661086d578060025f8282546108629190610b52565b909155506108dd9050565b6001600160a01b0383165f90815260208190526040902054818110156108bf5760405163391434e360e21b81526001600160a01b03851660048201526024810182905260448101839052606401610588565b6001600160a01b0384165f9081526020819052604090209082900390555b6001600160a01b0382166108f957600280548290039055610917565b6001600160a01b0382165f9081526020819052604090208054820190555b816001600160a01b0316836001600160a01b03167fddf252ad1be2c89b69c2b068fc378daa952ba7f163c4a11628f55a4df523b3ef8360405161095c91815260200190565b60405180910390a3505050565b6109738282610479565b6107395760405163e2517d3f60e01b81526001600160a01b038216600482015260248101839052604401610588565b5f602082840312156109b2575f80fd5b81356001600160e01b0319811681146109c9575f80fd5b9392505050565b5f602080835283518060208501525f5b818110156109fc578581018301518582016040015282016109e0565b505f604082860101526040601f19601f8301168501019250505092915050565b80356001600160a01b0381168114610a32575f80fd5b919050565b5f8060408385031215610a48575f80fd5b610a5183610a1c565b946020939093013593505050565b5f805f60608486031215610a71575f80fd5b610a7a84610a1c565b9250610a8860208501610a1c565b9150604084013590509250925092565b5f60208284031215610aa8575f80fd5b5035919050565b5f8060408385031215610ac0575f80fd5b82359150610ad060208401610a1c565b90509250929050565b5f60208284031215610ae9575f80fd5b6109c982610a1c565b5f8060408385031215610b03575f80fd5b610b0c83610a1c565b9150610ad060208401610a1c565b600181811c90821680610b2e57607f821691505b602082108103610b4c57634e487b7160e01b5f52602260045260245ffd5b50919050565b8082018082111561031357634e487b7160e01b5f52601160045260245ffdfea26469706673582212207e4afb6aea28789dcc49d400b4275c22e1e3ecb767213a6fb8e0d5385eb6341f64736f6c6343000818003360c060405234801562000010575f80fd5b5060405162001e0338038062001e0383398101604081905262000033916200033c565b838383600362000044838262000455565b50600462000053828262000455565b5050505f806200006983620000f960201b60201c565b91509150816200007b5760126200007d565b805b60ff1660a05250506001600160a01b031660805260017f9b779b17422d0df92223018b32b4d1fa46e071723d6817e2486d003becc55f0055620000c15f8262000192565b50620000ee7f17a8e30262c1f919c33056d877a3c22b95c2f5e4dac44683c1c2323cd79fbdb08262000192565b505050505062000521565b5f80806200010660405190565b6040805160048152602481019091526020810180516001600160e01b0390811663313ce56760e01b179091529192505f91829162000148918891906200024216565b5090925090506200015883604052565b81801562000167575060203d10155b801562000175575060ff8111155b62000182575f8062000186565b6001815b94509450505050915091565b5f8281526005602090815260408083206001600160a01b038516845290915281205460ff1662000239575f8381526005602090815260408083206001600160a01b03861684529091529020805460ff19166001179055620001f03390565b6001600160a01b0316826001600160a01b0316847f2f8788117e7eff1d82e926ec794901d17c78024a50270940304540a733656f0d60405160405180910390a45060016200023c565b505f5b92915050565b5f805f60405f855160208701885afa92505f51915060205190509250925092565b6001600160a01b038116811462000278575f80fd5b50565b634e487b7160e01b5f52604160045260245ffd5b5f82601f8301126200029f575f80fd5b81516001600160401b0380821115620002bc57620002bc6200027b565b604051601f8301601f19908116603f01168101908282118183101715620002e757620002e76200027b565b816040528381526020925086602085880101111562000304575f80fd5b5f91505b8382101562000327578582018301518183018401529082019062000308565b5f602085830101528094505050505092915050565b5f805f806080858703121562000350575f80fd5b84516200035d8162000263565b60208601519094506001600160401b03808211156200037a575f80fd5b62000388888389016200028f565b945060408701519150808211156200039e575f80fd5b50620003ad878288016200028f565b9250506060850151620003c08162000263565b939692955090935050565b600181811c90821680620003e057607f821691505b602082108103620003ff57634e487b7160e01b5f52602260045260245ffd5b50919050565b601f8211156200045057805f5260205f20601f840160051c810160208510156200042c5750805b601f840160051c820191505b818110156200044d575f815560010162000438565b50505b505050565b81516001600160401b038111156200047157620004716200027b565b6200048981620004828454620003cb565b8462000405565b602080601f831160018114620004bf575f8415620004a75750858301515b5f19600386901b1c1916600185901b17855562000519565b5f85815260208120601f198616915b82811015620004ef57888601518255948401946001909101908401620004ce565b50858210156200050d57878501515f19600388901b60f8161c191681555b505060018460011b0185555b505050505050565b60805160a0516118a46200055f5f395f6106fa01525f818161034301528181610524015281816107ad0152818161125701526112eb01526118a45ff3fe608060405234801561000f575f80fd5b506004361061021e575f3560e01c806370a082311161012a578063b460af94116100b4578063d547741f11610079578063d547741f146104b0578063d905777e146104c3578063dd62ed3e146104d6578063e0b231fa1461050e578063ef8b30f71461048a575f80fd5b8063b460af9414610464578063ba08765214610477578063c63d75b61461036d578063c6e6f5921461048a578063ce96cb771461049d575f80fd5b806395d89b41116100fa57806395d89b4114610408578063a217fddf14610410578063a378a32414610417578063a9059cbb1461043e578063b3d7f6b914610451575f80fd5b806370a08231146103a75780637fe0c850146103cf57806391d14854146103e257806394bf804d146103f5575f80fd5b8063248a9ca3116101ab57806338d52e0f1161017b57806338d52e0f14610336578063402d267d1461036d5780634cdad506146102755780635c63ac59146103815780636e553f6514610394575f80fd5b8063248a9ca3146102d25780632f2ff15d146102f4578063313ce5671461030957806336568abe14610323575f80fd5b8063095ea7b3116101f1578063095ea7b3146102885780630a28a4771461029b57806318160ddd146102ae57806322a6619e146102b657806323b872dd146102bf575f80fd5b806301e1d1141461022257806301ffc9a71461023d57806306fdde031461026057806307a2d13a14610275575b5f80fd5b61022a610521565b6040519081526020015b60405180910390f35b61025061024b3660046114b1565b6105b0565b6040519015158152602001610234565b6102686105e6565b60405161023491906114d8565b61022a610283366004611524565b610676565b610250610296366004611556565b610681565b61022a6102a9366004611524565b610698565b60025461022a565b61022a60065481565b6102506102cd36600461157e565b6106a4565b61022a6102e0366004611524565b5f9081526005602052604090206001015490565b6103076103023660046115b7565b6106c9565b005b6103116106f3565b60405160ff9091168152602001610234565b6103076103313660046115b7565b61071e565b6040516001600160a01b037f0000000000000000000000000000000000000000000000000000000000000000168152602001610234565b61022a61037b3660046115e1565b505f1990565b61030761038f366004611524565b610756565b61022a6103a23660046115b7565b610833565b61022a6103b53660046115e1565b6001600160a01b03165f9081526020819052604090205490565b61022a6103dd366004611524565b6108e1565b6102506103f03660046115b7565b6108eb565b61022a6104033660046115b7565b610915565b61026861099a565b61022a5f81565b61022a7f17a8e30262c1f919c33056d877a3c22b95c2f5e4dac44683c1c2323cd79fbdb081565b61025061044c366004611556565b6109a9565b61022a61045f366004611524565b6109b6565b61022a6104723660046115fa565b6109c2565b61022a6104853660046115fa565b610a99565b61022a610498366004611524565b610b55565b61022a6104ab3660046115e1565b610b60565b6103076104be3660046115b7565b610b6d565b61022a6104d13660046115e1565b610b91565b61022a6104e4366004611633565b6001600160a01b039182165f90815260016020908152604080832093909416825291909152205490565b61022a61051c366004611524565b610bae565b5f7f00000000000000000000000000000000000000000000000000000000000000006040516370a0823160e01b81523060048201526001600160a01b0391909116906370a0823190602401602060405180830381865afa158015610587573d5f803e3d5ffd5b505050506040513d601f19601f820116820180604052508101906105ab919061165b565b905090565b5f6001600160e01b03198216637965db0b60e01b14806105e057506301ffc9a760e01b6001600160e01b03198316145b92915050565b6060600380546105f590611672565b80601f016020809104026020016040519081016040528092919081815260200182805461062190611672565b801561066c5780601f106106435761010080835404028352916020019161066c565b820191905f5260205f20905b81548152906001019060200180831161064f57829003601f168201915b5050505050905090565b5f6105e0825f610bb8565b5f3361068e818585610bf0565b5060019392505050565b5f6105e0826001610bfd565b5f336106b1858285610c2c565b6106bc858585610c8f565b60019150505b9392505050565b5f828152600560205260409020600101546106e381610cec565b6106ed8383610cf9565b50505050565b5f6105ab817f00000000000000000000000000000000000000000000000000000000000000006116be565b6001600160a01b03811633146107475760405163334bd91960e11b815260040160405180910390fd5b6107518282610d8a565b505050565b7f17a8e30262c1f919c33056d877a3c22b95c2f5e4dac44683c1c2323cd79fbdb061078081610cec565b815f036107a057604051631f2a200560e01b815260040160405180910390fd5b6107d56001600160a01b037f000000000000000000000000000000000000000000000000000000000000000016333085610df5565b8160065f8282546107e691906116d7565b909155503390507ff343dfc1e44c65296fb907b287e6e12133eb7945ba79ec463d65ef129757c2ff83610817610521565b6040805192835260208301919091520160405180910390a25050565b5f61083c610e2b565b825f0361085c57604051631f2a200560e01b815260040160405180910390fd5b5f1961086c565b60405180910390fd5b61087584610b55565b915061088333848685610e46565b60408051858152602081018490526001600160a01b0385169133917ff5681f9d0db1b911ac18ee83d515a1cf1051853a9eae418316a2fdf7dea427c591015b60405180910390a3506105e060015f8051602061184f83398151915255565b5f6105e082610676565b5f9182526005602090815260408084206001600160a01b0393909316845291905290205460ff1690565b5f61091e610e2b565b825f0361093e57604051631f2a200560e01b815260040160405180910390fd5b5f19610949846109b6565b915061095733848487610e46565b60408051858152602081018490526001600160a01b0385169133917f03f17d66ad3bf18e9412eb06582908831508cdb9b8da9cddb1431f645a5b863291016108c2565b6060600480546105f590611672565b5f3361068e818585610c8f565b5f6105e0826001610bb8565b5f6109cb610e2b565b835f036109eb57604051631f2a200560e01b815260040160405180910390fd5b5f6109f583610b60565b905080851115610a1e5782858260405163d1eddbcb60e01b8152600401610863939291906116ea565b610a2785610698565b9150610a363385858886610eb6565b60408051868152602081018490526001600160a01b03808616929087169133917f144f5f62c08d623a6f383205dc8d5ef825b693748e2977846e18121b6780413a91015b60405180910390a4506106c260015f8051602061184f83398151915255565b5f610aa2610e2b565b835f03610ac257604051631f2a200560e01b815260040160405180910390fd5b5f610acc83610b91565b905080851115610af557828582604051632d27a4ff60e11b8152600401610863939291906116ea565b610afe85610676565b9150610b0d3385858589610eb6565b60408051868152602081018490526001600160a01b03808616929087169133917fda4c370e4f539b8e19d66144cad73d70fbf440a544e56ff38e28e38ed47801a89101610a7a565b5f6105e0825f610bfd565b5f6105e061028383610b91565b5f82815260056020526040902060010154610b8781610cec565b6106ed8383610d8a565b6001600160a01b0381165f908152602081905260408120546105e0565b5f6105e082610b55565b5f6106c2610bc4610521565b610bcf9060016116d7565b610bda5f600a6117eb565b600254610be791906116d7565b85919085610f55565b6107518383836001610fa0565b5f6106c2610c0c82600a6117eb565b600254610c1991906116d7565b610c21610521565b610be79060016116d7565b6001600160a01b038381165f908152600160209081526040808320938616835292905220545f198110156106ed5781811015610c8157828183604051637dc7a0d960e11b8152600401610863939291906116ea565b6106ed84848484035f610fa0565b6001600160a01b038316610cb857604051634b637e8f60e11b81525f6004820152602401610863565b6001600160a01b038216610ce15760405163ec442f0560e01b81525f6004820152602401610863565b610751838383611064565b610cf68133611177565b50565b5f610d0483836108eb565b610d83575f8381526005602090815260408083206001600160a01b03861684529091529020805460ff19166001179055610d3b3390565b6001600160a01b0316826001600160a01b0316847f2f8788117e7eff1d82e926ec794901d17c78024a50270940304540a733656f0d60405160405180910390a45060016105e0565b505f6105e0565b5f610d9583836108eb565b15610d83575f8381526005602090815260408083206001600160a01b0386168085529252808320805460ff1916905551339286917ff6391f5c32d9c69d2a47ea670b442974b53935d1edc7fd64eb21e047a839171b9190a45060016105e0565b610e038484848460016111b4565b6106ed57604051635274afe760e01b81526001600160a01b0385166004820152602401610863565b610e33611221565b60025f8051602061184f83398151915255565b610e508483611252565b610e5a838261127e565b826001600160a01b0316846001600160a01b03167fdcbc1c05240f31ff3ad067ef1ee35ce4997762752e3a095284754544f4c709d78484604051610ea8929190918252602082015260400190565b60405180910390a350505050565b826001600160a01b0316856001600160a01b031614610eda57610eda838683610c2c565b610ee483826112b2565b610eee84836112e6565b826001600160a01b0316846001600160a01b0316866001600160a01b03167ffbde797d201c681b91056529119e0b02407c7bb96a4a2c75c01fc9667232c8db8585604051610f46929190918252602082015260400190565b60405180910390a45050505050565b5f610f82610f6283611311565b8015610f7d57505f8480610f7857610f786117f9565b868809115b151590565b610f8d86868661133d565b610f9791906116d7565b95945050505050565b6001600160a01b038416610fc95760405163e602df0560e01b81525f6004820152602401610863565b6001600160a01b038316610ff257604051634a1406b160e11b81525f6004820152602401610863565b6001600160a01b038085165f90815260016020908152604080832093871683529290522082905580156106ed57826001600160a01b0316846001600160a01b03167f8c5be1e5ebec7d5bd14f71427d1e84f3dd0314c0f7b2291e5b200ac8c7c3b92584604051610ea891815260200190565b6001600160a01b03831661108e578060025f82825461108391906116d7565b909155506110eb9050565b6001600160a01b0383165f90815260208190526040902054818110156110cd5783818360405163391434e360e21b8152600401610863939291906116ea565b6001600160a01b0384165f9081526020819052604090209082900390555b6001600160a01b03821661110757600280548290039055611125565b6001600160a01b0382165f9081526020819052604090208054820190555b816001600160a01b0316836001600160a01b03167fddf252ad1be2c89b69c2b068fc378daa952ba7f163c4a11628f55a4df523b3ef8360405161116a91815260200190565b60405180910390a3505050565b61118182826108eb565b6111b05760405163e2517d3f60e01b81526001600160a01b038216600482015260248101839052604401610863565b5050565b6040516323b872dd60e01b5f8181526001600160a01b038781166004528616602452604485905291602083606481808c5af1925060015f51148316611210578383151615611204573d5f823e3d81fd5b5f883b113d1516831692505b604052505f60605295945050505050565b5f8051602061184f8339815191525460020361125057604051633ee5aeb560e01b815260040160405180910390fd5b565b6111b07f0000000000000000000000000000000000000000000000000000000000000000833084610df5565b6001600160a01b0382166112a75760405163ec442f0560e01b81525f6004820152602401610863565b6111b05f8383611064565b6001600160a01b0382166112db57604051634b637e8f60e11b81525f6004820152602401610863565b6111b0825f83611064565b6111b07f000000000000000000000000000000000000000000000000000000000000000083836113ed565b5f60028260038111156113265761132661180d565b6113309190611821565b60ff166001149050919050565b5f805f61134a8686611422565b91509150815f0361136e57838181611364576113646117f9565b04925050506106c2565b81841161138557611385600385150260111861143e565b5f848688095f868103871696879004966002600389028118808a02820302808a02820302808a02820302808a02820302808a02820302808a02909103029181900381900460010185841190960395909502919093039390930492909217029150509392505050565b6113fa838383600161144f565b61075157604051635274afe760e01b81526001600160a01b0384166004820152602401610863565b5f805f1983850993909202808410938190039390930393915050565b634e487b715f52806020526024601cfd5b60405163a9059cbb60e01b5f8181526001600160a01b038616600452602485905291602083604481808b5af1925060015f511483166114a5578383151615611499573d5f823e3d81fd5b5f873b113d1516831692505b60405250949350505050565b5f602082840312156114c1575f80fd5b81356001600160e01b0319811681146106c2575f80fd5b5f602080835283518060208501525f5b81811015611504578581018301518582016040015282016114e8565b505f604082860101526040601f19601f8301168501019250505092915050565b5f60208284031215611534575f80fd5b5035919050565b80356001600160a01b0381168114611551575f80fd5b919050565b5f8060408385031215611567575f80fd5b6115708361153b565b946020939093013593505050565b5f805f60608486031215611590575f80fd5b6115998461153b565b92506115a76020850161153b565b9150604084013590509250925092565b5f80604083850312156115c8575f80fd5b823591506115d86020840161153b565b90509250929050565b5f602082840312156115f1575f80fd5b6106c28261153b565b5f805f6060848603121561160c575f80fd5b8335925061161c6020850161153b565b915061162a6040850161153b565b90509250925092565b5f8060408385031215611644575f80fd5b61164d8361153b565b91506115d86020840161153b565b5f6020828403121561166b575f80fd5b5051919050565b600181811c9082168061168657607f821691505b6020821081036116a457634e487b7160e01b5f52602260045260245ffd5b50919050565b634e487b7160e01b5f52601160045260245ffd5b60ff81811683821601908111156105e0576105e06116aa565b808201808211156105e0576105e06116aa565b6001600160a01b039390931683526020830191909152604082015260600190565b600181815b8085111561174557815f190482111561172b5761172b6116aa565b8085161561173857918102915b93841c9390800290611710565b509250929050565b5f8261175b575060016105e0565b8161176757505f6105e0565b816001811461177d5760028114611787576117a3565b60019150506105e0565b60ff841115611798576117986116aa565b50506001821b6105e0565b5060208310610133831016604e8410600b84101617156117c6575081810a6105e0565b6117d0838361170b565b805f19048211156117e3576117e36116aa565b029392505050565b5f6106c260ff84168361174d565b634e487b7160e01b5f52601260045260245ffd5b634e487b7160e01b5f52602160045260245ffd5b5f60ff83168061183f57634e487b7160e01b5f52601260045260245ffd5b8060ff8416069150509291505056fe9b779b17422d0df92223018b32b4d1fa46e071723d6817e2486d003becc55f00a26469706673582212207f0dd3516e2a25e2113d2aadb88cbe5bac209273584705e9e85a19e27c45049964736f6c63430008180033fc425f2263d0df187444b70e47283d622c70181c5baebb1306a01edba1ce184ca2646970667358221220ca3ac10fe779c1d9a63a6779315a587b5db341f6496e10ee346fd992c7485d6964736f6c63430008180033","linkReferences":{}},"methodIdentifiers":{"DEFAULT_ADMIN_ROLE()":"a217fddf","DEPLOYER_ROLE()":"ecd00261","ammBySalt(bytes32)":"1ce31dd5","computeAmmAddress(address,address,bytes32)":"ae646090","deployAmm(address,address)":"f0aed8dc","deployAmm2(address,address,bytes32)":"c53d6624","deployVault(address,string,string)":"cf60c61f","deployVault2(address,string,string,bytes32)":"f8b4e6e8","deployedAmmCount()":"a9949c96","deployedAmms(uint256)":"79bc830a","deployedVaultCount()":"0e11db95","deployedVaults(uint256)":"0ac214df","getRoleAdmin(bytes32)":"248a9ca3","grantRole(bytes32,address)":"2f2ff15d","hasRole(bytes32,address)":"91d14854","renounceRole(bytes32,address)":"36568abe","revokeRole(bytes32,address)":"d547741f","supportsInterface(bytes4)":"01ffc9a7","vaultBySalt(bytes32)":"594c2329"},"id":86}