{"abi":[{"type":"constructor","inputs":[{"name":"_collateralToken","type":"address","internalType":"address"},{"name":"_borrowToken","type":"address","internalType":"address"},{"name":"_collateralFeed","type":"address","internalType":"address"},{"name":"_borrowFeed","type":"address","internalType":"address"},{"name":"_admin","type":"address","internalType":"address"}],"stateMutability":"nonpayable"},{"type":"function","name":"ADMIN_ROLE","inputs":[],"outputs":[{"name":"","type":"bytes32","internalType":"bytes32"}],"stateMutability":"view"},{"type":"function","name":"BORROW_FEED","inputs":[],"outputs":[{"name":"","type":"address","internalType":"contract AggregatorV3Interface"}],"stateMutability":"view"},{"type":"function","name":"BORROW_TOKEN","inputs":[],"outputs":[{"name":"","type":"address","internalType":"contract IERC20"}],"stateMutability":"view"},{"type":"function","name":"COLLATERAL_FEED","inputs":[],"outputs":[{"name":"","type":"address","internalType":"contract AggregatorV3Interface"}],"stateMutability":"view"},{"type":"function","name":"COLLATERAL_TOKEN","inputs":[],"outputs":[{"name":"","type":"address","internalType":"contract IERC20"}],"stateMutability":"view"},{"type":"function","name":"DEFAULT_ADMIN_ROLE","inputs":[],"outputs":[{"name":"","type":"bytes32","internalType":"bytes32"}],"stateMutability":"view"},{"type":"function","name":"INTEREST_RATE_PER_SECOND","inputs":[],"outputs":[{"name":"","type":"uint256","internalType":"uint256"}],"stateMutability":"view"},{"type":"function","name":"LIQUIDATION_BONUS","inputs":[],"outputs":[{"name":"","type":"uint256","internalType":"uint256"}],"stateMutability":"view"},{"type":"function","name":"LIQUIDATION_THRESHOLD","inputs":[],"outputs":[{"name":"","type":"uint256","internalType":"uint256"}],"stateMutability":"view"},{"type":"function","name":"LTV_RATIO","inputs":[],"outputs":[{"name":"","type":"uint256","internalType":"uint256"}],"stateMutability":"view"},{"type":"function","name":"PRECISION","inputs":[],"outputs":[{"name":"","type":"uint256","internalType":"uint256"}],"stateMutability":"view"},{"type":"function","name":"PRICE_STALENESS_WINDOW","inputs":[],"outputs":[{"name":"","type":"uint256","internalType":"uint256"}],"stateMutability":"view"},{"type":"function","name":"borrow","inputs":[{"name":"amount","type":"uint256","internalType":"uint256"}],"outputs":[],"stateMutability":"nonpayable"},{"type":"function","name":"depositCollateral","inputs":[{"name":"amount","type":"uint256","internalType":"uint256"}],"outputs":[],"stateMutability":"nonpayable"},{"type":"function","name":"getRoleAdmin","inputs":[{"name":"role","type":"bytes32","internalType":"bytes32"}],"outputs":[{"name":"","type":"bytes32","internalType":"bytes32"}],"stateMutability":"view"},{"type":"function","name":"grantRole","inputs":[{"name":"role","type":"bytes32","internalType":"bytes32"},{"name":"account","type":"address","internalType":"address"}],"outputs":[],"stateMutability":"nonpayable"},{"type":"function","name":"hasRole","inputs":[{"name":"role","type":"bytes32","internalType":"bytes32"},{"name":"account","type":"address","internalType":"address"}],"outputs":[{"name":"","type":"bool","internalType":"bool"}],"stateMutability":"view"},{"type":"function","name":"healthFactor","inputs":[{"name":"user","type":"address","internalType":"address"}],"outputs":[{"name":"","type":"uint256","internalType":"uint256"}],"stateMutability":"view"},{"type":"function","name":"liquidate","inputs":[{"name":"borrower","type":"address","internalType":"address"},{"name":"debtAmount","type":"uint256","internalType":"uint256"}],"outputs":[],"stateMutability":"nonpayable"},{"type":"function","name":"maxBorrow","inputs":[{"name":"user","type":"address","internalType":"address"}],"outputs":[{"name":"","type":"uint256","internalType":"uint256"}],"stateMutability":"view"},{"type":"function","name":"pendingInterest","inputs":[{"name":"user","type":"address","internalType":"address"}],"outputs":[{"name":"","type":"uint256","internalType":"uint256"}],"stateMutability":"view"},{"type":"function","name":"positions","inputs":[{"name":"","type":"address","internalType":"address"}],"outputs":[{"name":"collateral","type":"uint256","internalType":"uint256"},{"name":"debt","type":"uint256","internalType":"uint256"},{"name":"debtPrincipal","type":"uint256","internalType":"uint256"},{"name":"lastAccrualTime","type":"uint256","internalType":"uint256"}],"stateMutability":"view"},{"type":"function","name":"provideLiquidity","inputs":[{"name":"amount","type":"uint256","internalType":"uint256"}],"outputs":[],"stateMutability":"nonpayable"},{"type":"function","name":"renounceRole","inputs":[{"name":"role","type":"bytes32","internalType":"bytes32"},{"name":"callerConfirmation","type":"address","internalType":"address"}],"outputs":[],"stateMutability":"nonpayable"},{"type":"function","name":"repay","inputs":[{"name":"amount","type":"uint256","internalType":"uint256"}],"outputs":[],"stateMutability":"nonpayable"},{"type":"function","name":"revokeRole","inputs":[{"name":"role","type":"bytes32","internalType":"bytes32"},{"name":"account","type":"address","internalType":"address"}],"outputs":[],"stateMutability":"nonpayable"},{"type":"function","name":"supportsInterface","inputs":[{"name":"interfaceId","type":"bytes4","internalType":"bytes4"}],"outputs":[{"name":"","type":"bool","internalType":"bool"}],"stateMutability":"view"},{"type":"function","name":"totalAvailableLiquidity","inputs":[],"outputs":[{"name":"","type":"uint256","internalType":"uint256"}],"stateMutability":"view"},{"type":"function","name":"totalCollateral","inputs":[],"outputs":[{"name":"","type":"uint256","internalType":"uint256"}],"stateMutability":"view"},{"type":"function","name":"totalDebt","inputs":[],"outputs":[{"name":"","type":"uint256","internalType":"uint256"}],"stateMutability":"view"},{"type":"function","name":"withdrawCollateral","inputs":[{"name":"amount","type":"uint256","internalType":"uint256"}],"outputs":[],"stateMutability":"nonpayable"},{"type":"event","name":"Borrowed","inputs":[{"name":"user","type":"address","indexed":true,"internalType":"address"},{"name":"amount","type":"uint256","indexed":false,"internalType":"uint256"},{"name":"newDebt","type":"uint256","indexed":false,"internalType":"uint256"}],"anonymous":false},{"type":"event","name":"CollateralDeposited","inputs":[{"name":"user","type":"address","indexed":true,"internalType":"address"},{"name":"amount","type":"uint256","indexed":false,"internalType":"uint256"},{"name":"newTotal","type":"uint256","indexed":false,"internalType":"uint256"}],"anonymous":false},{"type":"event","name":"CollateralWithdrawn","inputs":[{"name":"user","type":"address","indexed":true,"internalType":"address"},{"name":"amount","type":"uint256","indexed":false,"internalType":"uint256"},{"name":"newTotal","type":"uint256","indexed":false,"internalType":"uint256"}],"anonymous":false},{"type":"event","name":"InterestAccrued","inputs":[{"name":"user","type":"address","indexed":true,"internalType":"address"},{"name":"interest","type":"uint256","indexed":false,"internalType":"uint256"},{"name":"newDebt","type":"uint256","indexed":false,"internalType":"uint256"}],"anonymous":false},{"type":"event","name":"Liquidated","inputs":[{"name":"liquidator","type":"address","indexed":true,"internalType":"address"},{"name":"borrower","type":"address","indexed":true,"internalType":"address"},{"name":"debtRepaid","type":"uint256","indexed":false,"internalType":"uint256"},{"name":"collateralSeized","type":"uint256","indexed":false,"internalType":"uint256"}],"anonymous":false},{"type":"event","name":"LiquidityProvided","inputs":[{"name":"provider","type":"address","indexed":true,"internalType":"address"},{"name":"amount","type":"uint256","indexed":false,"internalType":"uint256"}],"anonymous":false},{"type":"event","name":"Repaid","inputs":[{"name":"user","type":"address","indexed":true,"internalType":"address"},{"name":"repaidAmount","type":"uint256","indexed":false,"internalType":"uint256"},{"name":"interestPaid","type":"uint256","indexed":false,"internalType":"uint256"},{"name":"remainingDebt","type":"uint256","indexed":false,"internalType":"uint256"}],"anonymous":false},{"type":"event","name":"RoleAdminChanged","inputs":[{"name":"role","type":"bytes32","indexed":true,"internalType":"bytes32"},{"name":"previousAdminRole","type":"bytes32","indexed":true,"internalType":"bytes32"},{"name":"newAdminRole","type":"bytes32","indexed":true,"internalType":"bytes32"}],"anonymous":false},{"type":"event","name":"RoleGranted","inputs":[{"name":"role","type":"bytes32","indexed":true,"internalType":"bytes32"},{"name":"account","type":"address","indexed":true,"internalType":"address"},{"name":"sender","type":"address","indexed":true,"internalType":"address"}],"anonymous":false},{"type":"event","name":"RoleRevoked","inputs":[{"name":"role","type":"bytes32","indexed":true,"internalType":"bytes32"},{"name":"account","type":"address","indexed":true,"internalType":"address"},{"name":"sender","type":"address","indexed":true,"internalType":"address"}],"anonymous":false},{"type":"error","name":"AccessControlBadConfirmation","inputs":[]},{"type":"error","name":"AccessControlUnauthorizedAccount","inputs":[{"name":"account","type":"address","internalType":"address"},{"name":"neededRole","type":"bytes32","internalType":"bytes32"}]},{"type":"error","name":"BorrowExceedsLTV","inputs":[{"name":"newDebt","type":"uint256","internalType":"uint256"},{"name":"maxDebt","type":"uint256","internalType":"uint256"}]},{"type":"error","name":"InsufficientCollateral","inputs":[{"name":"have","type":"uint256","internalType":"uint256"},{"name":"need","type":"uint256","internalType":"uint256"}]},{"type":"error","name":"InsufficientLiquidity","inputs":[{"name":"available","type":"uint256","internalType":"uint256"},{"name":"requested","type":"uint256","internalType":"uint256"}]},{"type":"error","name":"InvalidPrice","inputs":[{"name":"price","type":"int256","internalType":"int256"}]},{"type":"error","name":"NoDebt","inputs":[]},{"type":"error","name":"PositionHealthy","inputs":[{"name":"healthFactor","type":"uint256","internalType":"uint256"}]},{"type":"error","name":"PositionUnhealthy","inputs":[{"name":"healthFactor","type":"uint256","internalType":"uint256"}]},{"type":"error","name":"ReentrancyGuardReentrantCall","inputs":[]},{"type":"error","name":"SafeERC20FailedOperation","inputs":[{"name":"token","type":"address","internalType":"address"}]},{"type":"error","name":"StalePrice","inputs":[{"name":"updatedAt","type":"uint256","internalType":"uint256"},{"name":"now_","type":"uint256","internalType":"uint256"}]},{"type":"error","name":"ZeroAmount","inputs":[]}],"bytecode":{"object":"0x61010060405234801562000011575f80fd5b5060405162001b0438038062001b04833981016040819052620000349162000184565b60017f9b779b17422d0df92223018b32b4d1fa46e071723d6817e2486d003becc55f00556001600160a01b0380861660805284811660a05283811660c052821660e052620000835f82620000bc565b50620000b07fa49807205ce4d355092ef5a8a18f56e8913cf4a201fbe287825b095693c2177582620000bc565b505050505050620001f0565b5f828152602081815260408083206001600160a01b038516845290915281205460ff166200015f575f838152602081815260408083206001600160a01b03861684529091529020805460ff19166001179055620001163390565b6001600160a01b0316826001600160a01b0316847f2f8788117e7eff1d82e926ec794901d17c78024a50270940304540a733656f0d60405160405180910390a450600162000162565b505f5b92915050565b80516001600160a01b03811681146200017f575f80fd5b919050565b5f805f805f60a0868803121562000199575f80fd5b620001a48662000168565b9450620001b46020870162000168565b9350620001c46040870162000168565b9250620001d46060870162000168565b9150620001e46080870162000168565b90509295509295909350565b60805160a05160c05160e0516118856200027f5f395f81816103db01528181610b7201528181611309015261143e01525f818161049c01528181610ba3015281816112d501526113f801525f81816102890152818161060d01528181610cb301528181610eb90152610f9701525f818161046c015281816107fe01528181610a0b0152610ce801526118855ff3fe608060405234801561000f575f80fd5b50600436106101dc575f3560e01c806378a1bd4411610109578063bcbaf4871161009e578063eb521a4c1161006e578063eb521a4c14610454578063f5f1f1a714610467578063fc7b9c181461048e578063ff0fe69c14610497575f80fd5b8063bcbaf48714610410578063c5ebeaec14610423578063d547741f14610436578063e58603d014610449575f80fd5b8063a217fddf116100d9578063a217fddf146103c0578063aaf5eb68146103c7578063b2b2cce5146103d6578063bad4a01f146103fd575f80fd5b806378a1bd441461037f57806390a8ae9b1461039257806391d148541461039a57806397a9d457146103ad575f80fd5b80634c90f25c1161017f5780636ad9f9df1161014f5780636ad9f9df146103335780636aed553f14610346578063735d80e31461034f57806375b238fc14610358575f80fd5b80634c90f25c1461028457806355f57510146102c35780635696b189146103185780636112fe2e14610320575f80fd5b80633574d4c4116101ba5780633574d4c41461024d57806336568abe14610255578063371fd8e6146102685780634ac8eb5f1461027b575f80fd5b806301ffc9a7146101e0578063248a9ca3146102085780632f2ff15d14610238575b5f80fd5b6101f36101ee366004611696565b6104be565b60405190151581526020015b60405180910390f35b61022a6102163660046116bd565b5f9081526020819052604090206001015490565b6040519081526020016101ff565b61024b6102463660046116ef565b6104f4565b005b61022a600581565b61024b6102633660046116ef565b61051e565b61024b6102763660046116bd565b610556565b61022a60025481565b6102ab7f000000000000000000000000000000000000000000000000000000000000000081565b6040516001600160a01b0390911681526020016101ff565b6102f86102d1366004611719565b600160208190525f9182526040909120805491810154600282015460039092015490919084565b6040805194855260208501939093529183015260608201526080016101ff565b61022a604b81565b61024b61032e3660046116bd565b61070b565b61022a610341366004611719565b61087f565b61022a610e1081565b61022a60045481565b61022a7fa49807205ce4d355092ef5a8a18f56e8913cf4a201fbe287825b095693c2177581565b61022a61038d366004611719565b610889565b61022a605081565b6101f36103a83660046116ef565b610936565b61022a6103bb366004611719565b61095e565b61022a5f81565b61022a670de0b6b3a764000081565b6102ab7f000000000000000000000000000000000000000000000000000000000000000081565b61024b61040b3660046116bd565b6109cd565b61024b61041e366004611732565b610acc565b61024b6104313660046116bd565b610d75565b61024b6104443660046116ef565b610f3e565b61022a63bd014d7e81565b61024b6104623660046116bd565b610f62565b6102ab7f000000000000000000000000000000000000000000000000000000000000000081565b61022a60035481565b6102ab7f000000000000000000000000000000000000000000000000000000000000000081565b5f6001600160e01b03198216637965db0b60e01b14806104ee57506301ffc9a760e01b6001600160e01b03198316145b92915050565b5f8281526020819052604090206001015461050e81611007565b6105188383611011565b50505050565b6001600160a01b03811633146105475760405163334bd91960e11b815260040160405180910390fd5b61055182826110a0565b505050565b61055e611109565b61056733611124565b335f90815260016020819052604082209081015490910361059b576040516308d1fde360e11b815260040160405180910390fd5b5f816001015483116105ad57826105b3565b81600101545b90505f82600201548360010154116105cb575f6105df565b826002015483600101546105df919061176e565b90505f8183116105ef57826105f1565b815b90505f6105fe828561176e565b90506106356001600160a01b037f00000000000000000000000000000000000000000000000000000000000000001633308761123e565b83856001015f828254610648919061176e565b90915550506002850154811061065e575f61066e565b80856002015461066e919061176e565b85600201819055508360035f828254610687919061176e565b925050819055508360045f82825461069f9190611781565b9091555050600185015460408051868152602081018590529081019190915233907f07178c166b5aef4d8409e6bbfd0e7b1ad42c92eb65903a5e5482166f3f4e62f09060600160405180910390a2505050505061070860015f8051602061183083398151915255565b50565b610713611109565b805f0361073357604051631f2a200560e01b815260040160405180910390fd5b61073c33611124565b335f908152600160205260409020805482111561077e578054604051632c1f8ef160e21b81526004810191909152602481018390526044015b60405180910390fd5b81815f015f828254610790919061176e565b925050819055508160025f8282546107a8919061176e565b90915550506001810154156107f1575f6107c133611274565b9050670de0b6b3a76400008110156107ef576040516377b631c560e11b815260048101829052602401610775565b505b6108256001600160a01b037f0000000000000000000000000000000000000000000000000000000000000000163384611370565b805460405133917fdaed309a628faec6cab72194019e2a1a34e890ca9bf9be99788992dd546928199161086091868252602082015260400190565b60405180910390a25061070860015f8051602061183083398151915255565b5f6104ee82611274565b6001600160a01b0381165f9081526001602081815260408084208151608081018352815481529381015492840183905260028101549184019190915260030154606083015215806108dc57506060810151155b156108e957505f92915050565b5f8160600151426108fa919061176e565b9050670de0b6b3a76400008163bd014d7e846020015161091a9190611794565b6109249190611794565b61092e91906117ab565b949350505050565b5f918252602082815260408084206001600160a01b0393909316845291905290205460ff1690565b6001600160a01b0381165f9081526001602081815260408084208151608081018352815481529381015492840192909252600282015490830152600301546060820152816109ab846113a5565b9050816020015181116109be575f61092e565b602082015161092e908261176e565b6109d5611109565b805f036109f557604051631f2a200560e01b815260040160405180910390fd5b6109fe33611124565b610a336001600160a01b037f00000000000000000000000000000000000000000000000000000000000000001633308461123e565b335f9081526001602052604081208054839290610a51908490611781565b925050819055508060025f828254610a699190611781565b9091555050335f81815260016020908152604091829020548251858152918201527ff4d587c98d234ca4d147061e6b5167e7f41ee17f11562a9f0b49570abece859e91015b60405180910390a261070860015f8051602061183083398151915255565b610ad4611109565b805f03610af457604051631f2a200560e01b815260040160405180910390fd5b610afd82611124565b5f610b0783611274565b9050670de0b6b3a76400008110610b34576040516301e11b9d60e11b815260048101829052602401610775565b6001600160a01b0383165f9081526001602081905260408220908101549091908411610b605783610b66565b81600101545b90505f610b9b82610b967f0000000000000000000000000000000000000000000000000000000000000000611473565b61153c565b90505f610bc77f0000000000000000000000000000000000000000000000000000000000000000611473565b90505f610bd5826064611794565b610be160056064611781565b610beb9085611794565b610bf9906305f5e100611794565b610c0391906117ab565b8554909150811115610c13575083545b83856001015f828254610c26919061176e565b9091555050600185015460028601541115610c4657600185015460028601555b80855f015f828254610c58919061176e565b925050819055508360035f828254610c70919061176e565b925050819055508060025f828254610c88919061176e565b925050819055508360045f828254610ca09190611781565b90915550610cdb90506001600160a01b037f00000000000000000000000000000000000000000000000000000000000000001633308761123e565b610d0f6001600160a01b037f0000000000000000000000000000000000000000000000000000000000000000163383611370565b60408051858152602081018390526001600160a01b038a169133917f1f0c6615429d1cdae0dfa233abf91d3b31cdbdd82c8081389832a61e1072f1ea910160405180910390a3505050505050610d7160015f8051602061183083398151915255565b5050565b610d7d611109565b805f03610d9d57604051631f2a200560e01b815260040160405180910390fd5b806004541015610dcb576004805460405163a17e11d560e01b81529182015260248101829052604401610775565b610dd433611124565b335f81815260016020526040812091610dec906113a5565b905080838360010154610dff9190611781565b1115610e3957828260010154610e159190611781565b604051639aa838c560e01b8152600481019190915260248101829052604401610775565b82826001015f828254610e4c9190611781565b9250508190555082826002015f828254610e669190611781565b909155505060038201545f03610e7d574260038301555b8260035f828254610e8e9190611781565b925050819055508260045f828254610ea6919061176e565b90915550610ee090506001600160a01b037f0000000000000000000000000000000000000000000000000000000000000000163385611370565b600182015460405133917feae9cfbc77fdd40ca899f36b608256063b2bc9d8178b0220f7ad513e178d673091610f1e91878252602082015260400190565b60405180910390a2505061070860015f8051602061183083398151915255565b5f82815260208190526040902060010154610f5881611007565b61051883836110a0565b610f6a611109565b805f03610f8a57604051631f2a200560e01b815260040160405180910390fd5b610fbf6001600160a01b037f00000000000000000000000000000000000000000000000000000000000000001633308461123e565b8060045f828254610fd09190611781565b909155505060405181815233907fccb2ae3a2936bf4c94fa4e12cdf0cdad6ed0e4888a044cef89afa60f2e4b92d390602001610aae565b610708813361155d565b5f61101c8383610936565b611099575f838152602081815260408083206001600160a01b03861684529091529020805460ff191660011790556110513390565b6001600160a01b0316826001600160a01b0316847f2f8788117e7eff1d82e926ec794901d17c78024a50270940304540a733656f0d60405160405180910390a45060016104ee565b505f6104ee565b5f6110ab8383610936565b15611099575f838152602081815260408083206001600160a01b0386168085529252808320805460ff1916905551339286917ff6391f5c32d9c69d2a47ea670b442974b53935d1edc7fd64eb21e047a839171b9190a45060016104ee565b611111611596565b60025f8051602061183083398151915255565b6001600160a01b0381165f90815260016020819052604090912090810154158061115057506003810154155b1561115f574260039091015550565b5f816003015442611170919061176e565b9050805f0361117e57505050565b5f670de0b6b3a76400008263bd014d7e856001015461119d9190611794565b6111a79190611794565b6111b191906117ab565b905080836001015f8282546111c69190611781565b925050819055508060035f8282546111de9190611781565b909155505042600384015560018301546040516001600160a01b038616917f4557e05caeefc19fe1b4badbbd2996f86791aa6e830e224dc79c20725c38b9c19161123091858252602082015260400190565b60405180910390a250505050565b61124c8484848460016115c7565b61051857604051635274afe760e01b81526001600160a01b0385166004820152602401610775565b6001600160a01b0381165f9081526001602081815260408084208151608081018352815481529381015492840183905260028101549184019190915260030154606083015282036112c857505f1992915050565b5f6112f9825f0151610b967f0000000000000000000000000000000000000000000000000000000000000000611473565b90505f61132d8360200151610b967f0000000000000000000000000000000000000000000000000000000000000000611473565b90505f606461133d605085611794565b61134791906117ab565b90508161135c670de0b6b3a764000083611794565b61136691906117ab565b9695505050505050565b61137d8383836001611634565b61055157604051635274afe760e01b81526001600160a01b0384166004820152602401610775565b6001600160a01b0381165f90815260016020818152604080842081516080810183528154808252948201549381019390935260028101549183019190915260030154606082015290829061141c90610b967f0000000000000000000000000000000000000000000000000000000000000000611473565b90505f606461142c604b84611794565b61143691906117ab565b90505f6114627f0000000000000000000000000000000000000000000000000000000000000000611473565b90508061135c836305f5e100611794565b5f805f836001600160a01b031663feaf968c6040518163ffffffff1660e01b815260040160a060405180830381865afa1580156114b2573d5f803e3d5ffd5b505050506040513d601f19601f820116820180604052508101906114d691906117e3565b509350509250505f8213611500576040516338ee04a760e01b815260048101839052602401610775565b610e1061150d824261176e565b1115611535576040516304e61d6960e31b815260048101829052426024820152604401610775565b5092915050565b5f6305f5e10061154c8385611794565b61155691906117ab565b9392505050565b6115678282610936565b610d715760405163e2517d3f60e01b81526001600160a01b038216600482015260248101839052604401610775565b5f80516020611830833981519152546002036115c557604051633ee5aeb560e01b815260040160405180910390fd5b565b6040516323b872dd60e01b5f8181526001600160a01b038781166004528616602452604485905291602083606481808c5af1925060015f51148316611623578383151615611617573d5f823e3d81fd5b5f883b113d1516831692505b604052505f60605295945050505050565b60405163a9059cbb60e01b5f8181526001600160a01b038616600452602485905291602083604481808b5af1925060015f5114831661168a57838315161561167e573d5f823e3d81fd5b5f873b113d1516831692505b60405250949350505050565b5f602082840312156116a6575f80fd5b81356001600160e01b031981168114611556575f80fd5b5f602082840312156116cd575f80fd5b5035919050565b80356001600160a01b03811681146116ea575f80fd5b919050565b5f8060408385031215611700575f80fd5b82359150611710602084016116d4565b90509250929050565b5f60208284031215611729575f80fd5b611556826116d4565b5f8060408385031215611743575f80fd5b61174c836116d4565b946020939093013593505050565b634e487b7160e01b5f52601160045260245ffd5b818103818111156104ee576104ee61175a565b808201808211156104ee576104ee61175a565b80820281158282048414176104ee576104ee61175a565b5f826117c557634e487b7160e01b5f52601260045260245ffd5b500490565b805169ffffffffffffffffffff811681146116ea575f80fd5b5f805f805f60a086880312156117f7575f80fd5b611800866117ca565b9450602086015193506040860151925060608601519150611823608087016117ca565b9050929550929590935056fe9b779b17422d0df92223018b32b4d1fa46e071723d6817e2486d003becc55f00a2646970667358221220cc31eabb9b9a84141350db15c1e63568afc765d5204bc2aa58fb81020c653b9d64736f6c63430008180033","linkReferences":{}},"methodIdentifiers":{"ADMIN_ROLE()":"75b238fc","BORROW_FEED()":"b2b2cce5","BORROW_TOKEN()":"4c90f25c","COLLATERAL_FEED()":"ff0fe69c","COLLATERAL_TOKEN()":"f5f1f1a7","DEFAULT_ADMIN_ROLE()":"a217fddf","INTEREST_RATE_PER_SECOND()":"e58603d0","LIQUIDATION_BONUS()":"3574d4c4","LIQUIDATION_THRESHOLD()":"90a8ae9b","LTV_RATIO()":"5696b189","PRECISION()":"aaf5eb68","PRICE_STALENESS_WINDOW()":"6aed553f","borrow(uint256)":"c5ebeaec","depositCollateral(uint256)":"bad4a01f","getRoleAdmin(bytes32)":"248a9ca3","grantRole(bytes32,address)":"2f2ff15d","hasRole(bytes32,address)":"91d14854","healthFactor(address)":"6ad9f9df","liquidate(address,uint256)":"bcbaf487","maxBorrow(address)":"97a9d457","pendingInterest(address)":"78a1bd44","positions(address)":"55f57510","provideLiquidity(uint256)":"eb521a4c","renounceRole(bytes32,address)":"36568abe","repay(uint256)":"371fd8e6","revokeRole(bytes32,address)":"d547741f","supportsInterface(bytes4)":"01ffc9a7","totalAvailableLiquidity()":"735d80e3","totalCollateral()":"4ac8eb5f","totalDebt()":"fc7b9c18","withdrawCollateral(uint256)":"6112fe2e"},"id":88}