{"abi":[{"type":"constructor","inputs":[{"name":"admin","type":"address","internalType":"address"}],"stateMutability":"nonpayable"},{"type":"function","name":"CLOCK_MODE","inputs":[],"outputs":[{"name":"","type":"string","internalType":"string"}],"stateMutability":"view"},{"type":"function","name":"DEFAULT_ADMIN_ROLE","inputs":[],"outputs":[{"name":"","type":"bytes32","internalType":"bytes32"}],"stateMutability":"view"},{"type":"function","name":"DOMAIN_SEPARATOR","inputs":[],"outputs":[{"name":"","type":"bytes32","internalType":"bytes32"}],"stateMutability":"view"},{"type":"function","name":"MAX_SUPPLY","inputs":[],"outputs":[{"name":"","type":"uint256","internalType":"uint256"}],"stateMutability":"view"},{"type":"function","name":"MINTER_ROLE","inputs":[],"outputs":[{"name":"","type":"bytes32","internalType":"bytes32"}],"stateMutability":"view"},{"type":"function","name":"allowance","inputs":[{"name":"owner","type":"address","internalType":"address"},{"name":"spender","type":"address","internalType":"address"}],"outputs":[{"name":"","type":"uint256","internalType":"uint256"}],"stateMutability":"view"},{"type":"function","name":"approve","inputs":[{"name":"spender","type":"address","internalType":"address"},{"name":"value","type":"uint256","internalType":"uint256"}],"outputs":[{"name":"","type":"bool","internalType":"bool"}],"stateMutability":"nonpayable"},{"type":"function","name":"balanceOf","inputs":[{"name":"account","type":"address","internalType":"address"}],"outputs":[{"name":"","type":"uint256","internalType":"uint256"}],"stateMutability":"view"},{"type":"function","name":"burn","inputs":[{"name":"amount","type":"uint256","internalType":"uint256"}],"outputs":[],"stateMutability":"nonpayable"},{"type":"function","name":"checkpoints","inputs":[{"name":"account","type":"address","internalType":"address"},{"name":"pos","type":"uint32","internalType":"uint32"}],"outputs":[{"name":"","type":"tuple","internalType":"struct Checkpoints.Checkpoint208","components":[{"name":"_key","type":"uint48","internalType":"uint48"},{"name":"_value","type":"uint208","internalType":"uint208"}]}],"stateMutability":"view"},{"type":"function","name":"clock","inputs":[],"outputs":[{"name":"","type":"uint48","internalType":"uint48"}],"stateMutability":"view"},{"type":"function","name":"decimals","inputs":[],"outputs":[{"name":"","type":"uint8","internalType":"uint8"}],"stateMutability":"view"},{"type":"function","name":"delegate","inputs":[{"name":"delegatee","type":"address","internalType":"address"}],"outputs":[],"stateMutability":"nonpayable"},{"type":"function","name":"delegateBySig","inputs":[{"name":"delegatee","type":"address","internalType":"address"},{"name":"nonce","type":"uint256","internalType":"uint256"},{"name":"expiry","type":"uint256","internalType":"uint256"},{"name":"v","type":"uint8","internalType":"uint8"},{"name":"r","type":"bytes32","internalType":"bytes32"},{"name":"s","type":"bytes32","internalType":"bytes32"}],"outputs":[],"stateMutability":"nonpayable"},{"type":"function","name":"delegates","inputs":[{"name":"account","type":"address","internalType":"address"}],"outputs":[{"name":"","type":"address","internalType":"address"}],"stateMutability":"view"},{"type":"function","name":"eip712Domain","inputs":[],"outputs":[{"name":"fields","type":"bytes1","internalType":"bytes1"},{"name":"name","type":"string","internalType":"string"},{"name":"version","type":"string","internalType":"string"},{"name":"chainId","type":"uint256","internalType":"uint256"},{"name":"verifyingContract","type":"address","internalType":"address"},{"name":"salt","type":"bytes32","internalType":"bytes32"},{"name":"extensions","type":"uint256[]","internalType":"uint256[]"}],"stateMutability":"view"},{"type":"function","name":"getPastTotalSupply","inputs":[{"name":"timepoint","type":"uint256","internalType":"uint256"}],"outputs":[{"name":"","type":"uint256","internalType":"uint256"}],"stateMutability":"view"},{"type":"function","name":"getPastVotes","inputs":[{"name":"account","type":"address","internalType":"address"},{"name":"timepoint","type":"uint256","internalType":"uint256"}],"outputs":[{"name":"","type":"uint256","internalType":"uint256"}],"stateMutability":"view"},{"type":"function","name":"getRoleAdmin","inputs":[{"name":"role","type":"bytes32","internalType":"bytes32"}],"outputs":[{"name":"","type":"bytes32","internalType":"bytes32"}],"stateMutability":"view"},{"type":"function","name":"getVotes","inputs":[{"name":"account","type":"address","internalType":"address"}],"outputs":[{"name":"","type":"uint256","internalType":"uint256"}],"stateMutability":"view"},{"type":"function","name":"grantRole","inputs":[{"name":"role","type":"bytes32","internalType":"bytes32"},{"name":"account","type":"address","internalType":"address"}],"outputs":[],"stateMutability":"nonpayable"},{"type":"function","name":"hasRole","inputs":[{"name":"role","type":"bytes32","internalType":"bytes32"},{"name":"account","type":"address","internalType":"address"}],"outputs":[{"name":"","type":"bool","internalType":"bool"}],"stateMutability":"view"},{"type":"function","name":"mint","inputs":[{"name":"to","type":"address","internalType":"address"},{"name":"amount","type":"uint256","internalType":"uint256"}],"outputs":[],"stateMutability":"nonpayable"},{"type":"function","name":"name","inputs":[],"outputs":[{"name":"","type":"string","internalType":"string"}],"stateMutability":"view"},{"type":"function","name":"nonces","inputs":[{"name":"owner","type":"address","internalType":"address"}],"outputs":[{"name":"","type":"uint256","internalType":"uint256"}],"stateMutability":"view"},{"type":"function","name":"numCheckpoints","inputs":[{"name":"account","type":"address","internalType":"address"}],"outputs":[{"name":"","type":"uint32","internalType":"uint32"}],"stateMutability":"view"},{"type":"function","name":"permit","inputs":[{"name":"owner","type":"address","internalType":"address"},{"name":"spender","type":"address","internalType":"address"},{"name":"value","type":"uint256","internalType":"uint256"},{"name":"deadline","type":"uint256","internalType":"uint256"},{"name":"v","type":"uint8","internalType":"uint8"},{"name":"r","type":"bytes32","internalType":"bytes32"},{"name":"s","type":"bytes32","internalType":"bytes32"}],"outputs":[],"stateMutability":"nonpayable"},{"type":"function","name":"renounceRole","inputs":[{"name":"role","type":"bytes32","internalType":"bytes32"},{"name":"callerConfirmation","type":"address","internalType":"address"}],"outputs":[],"stateMutability":"nonpayable"},{"type":"function","name":"revokeRole","inputs":[{"name":"role","type":"bytes32","internalType":"bytes32"},{"name":"account","type":"address","internalType":"address"}],"outputs":[],"stateMutability":"nonpayable"},{"type":"function","name":"supportsInterface","inputs":[{"name":"interfaceId","type":"bytes4","internalType":"bytes4"}],"outputs":[{"name":"","type":"bool","internalType":"bool"}],"stateMutability":"view"},{"type":"function","name":"symbol","inputs":[],"outputs":[{"name":"","type":"string","internalType":"string"}],"stateMutability":"view"},{"type":"function","name":"totalSupply","inputs":[],"outputs":[{"name":"","type":"uint256","internalType":"uint256"}],"stateMutability":"view"},{"type":"function","name":"transfer","inputs":[{"name":"to","type":"address","internalType":"address"},{"name":"value","type":"uint256","internalType":"uint256"}],"outputs":[{"name":"","type":"bool","internalType":"bool"}],"stateMutability":"nonpayable"},{"type":"function","name":"transferFrom","inputs":[{"name":"from","type":"address","internalType":"address"},{"name":"to","type":"address","internalType":"address"},{"name":"value","type":"uint256","internalType":"uint256"}],"outputs":[{"name":"","type":"bool","internalType":"bool"}],"stateMutability":"nonpayable"},{"type":"event","name":"Approval","inputs":[{"name":"owner","type":"address","indexed":true,"internalType":"address"},{"name":"spender","type":"address","indexed":true,"internalType":"address"},{"name":"value","type":"uint256","indexed":false,"internalType":"uint256"}],"anonymous":false},{"type":"event","name":"DelegateChanged","inputs":[{"name":"delegator","type":"address","indexed":true,"internalType":"address"},{"name":"fromDelegate","type":"address","indexed":true,"internalType":"address"},{"name":"toDelegate","type":"address","indexed":true,"internalType":"address"}],"anonymous":false},{"type":"event","name":"DelegateVotesChanged","inputs":[{"name":"delegate","type":"address","indexed":true,"internalType":"address"},{"name":"previousVotes","type":"uint256","indexed":false,"internalType":"uint256"},{"name":"newVotes","type":"uint256","indexed":false,"internalType":"uint256"}],"anonymous":false},{"type":"event","name":"EIP712DomainChanged","inputs":[],"anonymous":false},{"type":"event","name":"RoleAdminChanged","inputs":[{"name":"role","type":"bytes32","indexed":true,"internalType":"bytes32"},{"name":"previousAdminRole","type":"bytes32","indexed":true,"internalType":"bytes32"},{"name":"newAdminRole","type":"bytes32","indexed":true,"internalType":"bytes32"}],"anonymous":false},{"type":"event","name":"RoleGranted","inputs":[{"name":"role","type":"bytes32","indexed":true,"internalType":"bytes32"},{"name":"account","type":"address","indexed":true,"internalType":"address"},{"name":"sender","type":"address","indexed":true,"internalType":"address"}],"anonymous":false},{"type":"event","name":"RoleRevoked","inputs":[{"name":"role","type":"bytes32","indexed":true,"internalType":"bytes32"},{"name":"account","type":"address","indexed":true,"internalType":"address"},{"name":"sender","type":"address","indexed":true,"internalType":"address"}],"anonymous":false},{"type":"event","name":"TokensBurned","inputs":[{"name":"from","type":"address","indexed":true,"internalType":"address"},{"name":"amount","type":"uint256","indexed":false,"internalType":"uint256"}],"anonymous":false},{"type":"event","name":"TokensMinted","inputs":[{"name":"to","type":"address","indexed":true,"internalType":"address"},{"name":"amount","type":"uint256","indexed":false,"internalType":"uint256"}],"anonymous":false},{"type":"event","name":"Transfer","inputs":[{"name":"from","type":"address","indexed":true,"internalType":"address"},{"name":"to","type":"address","indexed":true,"internalType":"address"},{"name":"value","type":"uint256","indexed":false,"internalType":"uint256"}],"anonymous":false},{"type":"error","name":"AccessControlBadConfirmation","inputs":[]},{"type":"error","name":"AccessControlUnauthorizedAccount","inputs":[{"name":"account","type":"address","internalType":"address"},{"name":"neededRole","type":"bytes32","internalType":"bytes32"}]},{"type":"error","name":"CheckpointUnorderedInsertion","inputs":[]},{"type":"error","name":"ECDSAInvalidSignature","inputs":[]},{"type":"error","name":"ECDSAInvalidSignatureLength","inputs":[{"name":"length","type":"uint256","internalType":"uint256"}]},{"type":"error","name":"ECDSAInvalidSignatureS","inputs":[{"name":"s","type":"bytes32","internalType":"bytes32"}]},{"type":"error","name":"ERC20ExceededSafeSupply","inputs":[{"name":"increasedSupply","type":"uint256","internalType":"uint256"},{"name":"cap","type":"uint256","internalType":"uint256"}]},{"type":"error","name":"ERC20InsufficientAllowance","inputs":[{"name":"spender","type":"address","internalType":"address"},{"name":"allowance","type":"uint256","internalType":"uint256"},{"name":"needed","type":"uint256","internalType":"uint256"}]},{"type":"error","name":"ERC20InsufficientBalance","inputs":[{"name":"sender","type":"address","internalType":"address"},{"name":"balance","type":"uint256","internalType":"uint256"},{"name":"needed","type":"uint256","internalType":"uint256"}]},{"type":"error","name":"ERC20InvalidApprover","inputs":[{"name":"approver","type":"address","internalType":"address"}]},{"type":"error","name":"ERC20InvalidReceiver","inputs":[{"name":"receiver","type":"address","internalType":"address"}]},{"type":"error","name":"ERC20InvalidSender","inputs":[{"name":"sender","type":"address","internalType":"address"}]},{"type":"error","name":"ERC20InvalidSpender","inputs":[{"name":"spender","type":"address","internalType":"address"}]},{"type":"error","name":"ERC2612ExpiredSignature","inputs":[{"name":"deadline","type":"uint256","internalType":"uint256"}]},{"type":"error","name":"ERC2612InvalidSigner","inputs":[{"name":"signer","type":"address","internalType":"address"},{"name":"owner","type":"address","internalType":"address"}]},{"type":"error","name":"ERC5805FutureLookup","inputs":[{"name":"timepoint","type":"uint256","internalType":"uint256"},{"name":"clock","type":"uint48","internalType":"uint48"}]},{"type":"error","name":"ERC6372InconsistentClock","inputs":[]},{"type":"error","name":"InsufficientBalance","inputs":[{"name":"have","type":"uint256","internalType":"uint256"},{"name":"need","type":"uint256","internalType":"uint256"}]},{"type":"error","name":"InvalidAccountNonce","inputs":[{"name":"account","type":"address","internalType":"address"},{"name":"currentNonce","type":"uint256","internalType":"uint256"}]},{"type":"error","name":"InvalidShortString","inputs":[]},{"type":"error","name":"MaxSupplyExceeded","inputs":[{"name":"currentSupply","type":"uint256","internalType":"uint256"},{"name":"requested","type":"uint256","internalType":"uint256"},{"name":"cap","type":"uint256","internalType":"uint256"}]},{"type":"error","name":"SafeCastOverflowedUintDowncast","inputs":[{"name":"bits","type":"uint8","internalType":"uint8"},{"name":"value","type":"uint256","internalType":"uint256"}]},{"type":"error","name":"StringTooLong","inputs":[{"name":"str","type":"string","internalType":"string"}]},{"type":"error","name":"VotesExpiredSignature","inputs":[{"name":"expiry","type":"uint256","internalType":"uint256"}]},{"type":"error","name":"ZeroAmount","inputs":[]}],"bytecode":{"object":"0x61016060405234801562000011575f80fd5b506040516200281c3803806200281c833981016040819052620000349162000308565b6040518060400160405280600e81526020016d283937ba37b1b7b6102a37b5b2b760911b81525080604051806040016040528060018152602001603160f81b8152506040518060400160405280600e81526020016d283937ba37b1b7b6102a37b5b2b760911b8152506040518060400160405280600581526020016450524f544f60d81b8152508160039081620000cc9190620003d5565b506004620000db8282620003d5565b50620000ed91508390506005620001d6565b61012052620000fe816006620001d6565b61014052815160208084019190912060e052815190820120610100524660a0526200018b60e05161010051604080517f8b73c3c69bb8fe3d512ecc4cf759cc79239f7b179b0ffacaa9a75d522b39400f60208201529081019290925260608201524660808201523060a08201525f9060c00160405160208183030381529060405280519060200120905090565b60805250503060c05250620001a15f826200020e565b50620001ce7f9f2df0fed2c77648de5860a4cc508cd0818c85b8b8a1ab4ceeef8d981c8956a6826200020e565b505062000513565b5f602083511015620001f557620001ed83620002bd565b905062000208565b81620002028482620003d5565b5060ff90505b92915050565b5f828152600b602090815260408083206001600160a01b038516845290915281205460ff16620002b5575f838152600b602090815260408083206001600160a01b03861684529091529020805460ff191660011790556200026c3390565b6001600160a01b0316826001600160a01b0316847f2f8788117e7eff1d82e926ec794901d17c78024a50270940304540a733656f0d60405160405180910390a450600162000208565b505f62000208565b5f80829050601f81511115620002f3578260405163305a27a960e01b8152600401620002ea9190620004a1565b60405180910390fd5b80516200030082620004ef565b179392505050565b5f6020828403121562000319575f80fd5b81516001600160a01b038116811462000330575f80fd5b9392505050565b634e487b7160e01b5f52604160045260245ffd5b600181811c908216806200036057607f821691505b6020821081036200037f57634e487b7160e01b5f52602260045260245ffd5b50919050565b601f821115620003d057805f5260205f20601f840160051c81016020851015620003ac5750805b601f840160051c820191505b81811015620003cd575f8155600101620003b8565b50505b505050565b81516001600160401b03811115620003f157620003f162000337565b62000409816200040284546200034b565b8462000385565b602080601f8311600181146200043f575f8415620004275750858301515b5f19600386901b1c1916600185901b17855562000499565b5f85815260208120601f198616915b828110156200046f578886015182559484019460019091019084016200044e565b50858210156200048d57878501515f19600388901b60f8161c191681555b505060018460011b0185555b505050505050565b5f602080835283518060208501525f5b81811015620004cf57858101830151858201604001528201620004b1565b505f604082860101526040601f19601f8301168501019250505092915050565b805160208083015191908110156200037f575f1960209190910360031b1b16919050565b60805160a05160c05160e0516101005161012051610140516122b7620005655f395f6111b101525f61118401525f610ea301525f610e7b01525f610dd601525f610e0001525f610e2a01526122b75ff3fe608060405234801561000f575f80fd5b50600436106101fd575f3560e01c80636fcfff45116101145780639ab24eb0116100a9578063d505accf11610079578063d505accf1461048b578063d53913931461049e578063d547741f146104c5578063dd62ed3e146104d8578063f1127ed814610510575f80fd5b80639ab24eb01461044b578063a217fddf1461045e578063a9059cbb14610465578063c3cda52014610478575f80fd5b80638e539e8c116100e45780638e539e8c146103fe57806391d148541461041157806391ddadf41461042457806395d89b4114610443575f80fd5b80636fcfff451461038057806370a08231146103a85780637ecebe00146103d057806384b0196e146103e3575f80fd5b806332cb6b0c1161019557806340c10f191161016557806340c10f19146102fc57806342966c681461030f5780634bf5d7e914610322578063587cde1e1461032a5780635c19a95c1461036d575f80fd5b806332cb6b0c146102bc5780633644e515146102ce57806336568abe146102d65780633a46b1a8146102e9575f80fd5b806323b872dd116101d057806323b872dd14610263578063248a9ca3146102765780632f2ff15d14610298578063313ce567146102ad575f80fd5b806301ffc9a71461020157806306fdde0314610229578063095ea7b31461023e57806318160ddd14610251575b5f80fd5b61021461020f366004611e75565b61054f565b60405190151581526020015b60405180910390f35b610231610585565b6040516102209190611edf565b61021461024c366004611f0c565b610615565b6002545b604051908152602001610220565b610214610271366004611f34565b61062c565b610255610284366004611f6d565b5f908152600b602052604090206001015490565b6102ab6102a6366004611f84565b61064f565b005b60405160128152602001610220565b6102556a52b7d2dcc80cd2e400000081565b610255610679565b6102ab6102e4366004611f84565b610687565b6102556102f7366004611f0c565b6106bf565b6102ab61030a366004611f0c565b6106f9565b6102ab61031d366004611f6d565b6107f7565b6102316108a2565b610355610338366004611fae565b6001600160a01b039081165f908152600860205260409020541690565b6040516001600160a01b039091168152602001610220565b6102ab61037b366004611fae565b61091a565b61039361038e366004611fae565b610929565b60405163ffffffff9091168152602001610220565b6102556103b6366004611fae565b6001600160a01b03165f9081526020819052604090205490565b6102556103de366004611fae565b610933565b6103eb61093d565b6040516102209796959493929190611fc7565b61025561040c366004611f6d565b61097f565b61021461041f366004611f84565b6109a3565b61042c6109cd565b60405165ffffffffffff9091168152602001610220565b6102316109d6565b610255610459366004611fae565b6109e5565b6102555f81565b610214610473366004611f0c565b610a05565b6102ab61048636600461206e565b610a12565b6102ab6104993660046120c2565b610ace565b6102557f9f2df0fed2c77648de5860a4cc508cd0818c85b8b8a1ab4ceeef8d981c8956a681565b6102ab6104d3366004611f84565b610c04565b6102556104e6366004612127565b6001600160a01b039182165f90815260016020908152604080832093909416825291909152205490565b61052361051e36600461214f565b610c28565b60408051825165ffffffffffff1681526020928301516001600160d01b03169281019290925201610220565b5f6001600160e01b03198216637965db0b60e01b148061057f57506301ffc9a760e01b6001600160e01b03198316145b92915050565b6060600380546105949061218c565b80601f01602080910402602001604051908101604052809291908181526020018280546105c09061218c565b801561060b5780601f106105e25761010080835404028352916020019161060b565b820191905f5260205f20905b8154815290600101906020018083116105ee57829003601f168201915b5050505050905090565b5f33610622818585610c4c565b5060019392505050565b5f33610639858285610c59565b610644858585610ccf565b506001949350505050565b5f828152600b602052604090206001015461066981610d2c565b6106738383610d39565b50505050565b5f610682610dca565b905090565b6001600160a01b03811633146106b05760405163334bd91960e11b815260040160405180910390fd5b6106ba8282610ef3565b505050565b5f6106e96106cc83610f5e565b6001600160a01b0385165f90815260096020526040902090610fac565b6001600160d01b03169392505050565b7f9f2df0fed2c77648de5860a4cc508cd0818c85b8b8a1ab4ceeef8d981c8956a661072381610d2c565b815f0361074357604051631f2a200560e01b815260040160405180910390fd5b5f61074d60025490565b90506a52b7d2dcc80cd2e400000061076584836121d8565b11156107a45760405163b14d3f5b60e01b815260048101829052602481018490526a52b7d2dcc80cd2e400000060448201526064015b60405180910390fd5b6107ae848461105c565b836001600160a01b03167f3f2c9d57c068687834f0de942a9babb9e5acab57d516d3480a3c16ee165a4273846040516107e991815260200190565b60405180910390a250505050565b805f0361081757604051631f2a200560e01b815260040160405180910390fd5b335f9081526020819052604090205481111561086057335f9081526020819052604090205460405163cf47918160e01b815260048101919091526024810182905260440161079b565b61086a3382611090565b60405181815233907ffd38818f5291bf0bb3a2a48aadc06ba8757865d1dabd804585338aab3009dcb69060200160405180910390a250565b60606108ac6110c4565b65ffffffffffff166108bc6109cd565b65ffffffffffff16146108e2576040516301bfc1c560e61b815260040160405180910390fd5b5060408051808201909152601d81527f6d6f64653d626c6f636b6e756d6265722666726f6d3d64656661756c74000000602082015290565b3361092581836110ce565b5050565b5f61057f8261113f565b5f61057f82611160565b5f6060805f805f606061094e61117d565b6109566111aa565b604080515f80825260208201909252600f60f81b9b939a50919850469750309650945092509050565b5f61099461098c83610f5e565b600a90610fac565b6001600160d01b031692915050565b5f918252600b602090815260408084206001600160a01b0393909316845291905290205460ff1690565b5f6106826110c4565b6060600480546105949061218c565b6001600160a01b0381165f908152600960205260408120610994906111d7565b5f33610622818585610ccf565b83421115610a3657604051632341d78760e11b81526004810185905260240161079b565b604080517fe48329057bfd03d55e49b547132e39cffd9c1820ad7b9d4c5307691425d15adf60208201526001600160a01b0388169181019190915260608101869052608081018590525f90610aaf90610aa79060a0016040516020818303038152906040528051906020012061120e565b85858561123a565b9050610abb8187611266565b610ac581886110ce565b50505050505050565b83421115610af25760405163313c898160e11b81526004810185905260240161079b565b5f7f6e71edae12b1b97f4d1f60370fef10105fa2faae0126114a169c64845d6126c9888888610b3d8c6001600160a01b03165f90815260076020526040902080546001810190915590565b6040805160208101969096526001600160a01b0394851690860152929091166060840152608083015260a082015260c0810186905260e0016040516020818303038152906040528051906020012090505f610b978261120e565b90505f610ba68287878761123a565b9050896001600160a01b0316816001600160a01b031614610bed576040516325c0072360e11b81526001600160a01b0380831660048301528b16602482015260440161079b565b610bf88a8a8a610c4c565b50505050505050505050565b5f828152600b6020526040902060010154610c1e81610d2c565b6106738383610ef3565b604080518082019091525f8082526020820152610c4583836112b8565b9392505050565b6106ba83838360016112ec565b6001600160a01b038381165f908152600160209081526040808320938616835292905220545f198110156106735781811015610cc157604051637dc7a0d960e11b81526001600160a01b0384166004820152602481018290526044810183905260640161079b565b61067384848484035f6112ec565b6001600160a01b038316610cf857604051634b637e8f60e11b81525f600482015260240161079b565b6001600160a01b038216610d215760405163ec442f0560e01b81525f600482015260240161079b565b6106ba8383836113be565b610d3681336113c9565b50565b5f610d4483836109a3565b610dc3575f838152600b602090815260408083206001600160a01b03861684529091529020805460ff19166001179055610d7b3390565b6001600160a01b0316826001600160a01b0316847f2f8788117e7eff1d82e926ec794901d17c78024a50270940304540a733656f0d60405160405180910390a450600161057f565b505f61057f565b5f306001600160a01b037f000000000000000000000000000000000000000000000000000000000000000016148015610e2257507f000000000000000000000000000000000000000000000000000000000000000046145b15610e4c57507f000000000000000000000000000000000000000000000000000000000000000090565b610682604080517f8b73c3c69bb8fe3d512ecc4cf759cc79239f7b179b0ffacaa9a75d522b39400f60208201527f0000000000000000000000000000000000000000000000000000000000000000918101919091527f000000000000000000000000000000000000000000000000000000000000000060608201524660808201523060a08201525f9060c00160405160208183030381529060405280519060200120905090565b5f610efe83836109a3565b15610dc3575f838152600b602090815260408083206001600160a01b0386168085529252808320805460ff1916905551339286917ff6391f5c32d9c69d2a47ea670b442974b53935d1edc7fd64eb21e047a839171b9190a450600161057f565b5f80610f686109cd565b90508065ffffffffffff168310610fa357604051637669fc0f60e11b81526004810184905265ffffffffffff8216602482015260440161079b565b610c4583611402565b81545f9081816005811115611008575f610fc584611438565b610fcf90856121eb565b5f8881526020902090915081015465ffffffffffff9081169087161015610ff857809150611006565b6110038160016121d8565b92505b505b5f61101587878585611590565b9050801561104f576110398761102c6001846121eb565b5f91825260209091200190565b54600160301b90046001600160d01b0316611051565b5f5b979650505050505050565b6001600160a01b0382166110855760405163ec442f0560e01b81525f600482015260240161079b565b6109255f83836113be565b6001600160a01b0382166110b957604051634b637e8f60e11b81525f600482015260240161079b565b610925825f836113be565b5f61068243611402565b6001600160a01b038281165f8181526008602052604080822080548686166001600160a01b0319821681179092559151919094169392849290917f3134e8a2e6d97e929a7e54011ea5485d7d196dd5f0ba4d4ef95803e8e3fc257f9190a46106ba818361113a866115e6565b611603565b6001600160a01b0381165f9081526009602052604081205461057f9061176c565b6001600160a01b0381165f9081526007602052604081205461057f565b60606106827f0000000000000000000000000000000000000000000000000000000000000000600561179c565b60606106827f0000000000000000000000000000000000000000000000000000000000000000600661179c565b80545f908015611206576111f08361102c6001846121eb565b54600160301b90046001600160d01b0316610c45565b5f9392505050565b5f61057f61121a610dca565b8360405161190160f01b8152600281019290925260228201526042902090565b5f805f8061124a88888888611845565b92509250925061125a828261190d565b50909695505050505050565b6001600160a01b0382165f9081526007602052604090208054600181019091558181146106ba576040516301d4b62360e61b81526001600160a01b03841660048201526024810182905260440161079b565b604080518082019091525f80825260208201526001600160a01b0383165f908152600960205260409020610c4590836119c5565b6001600160a01b0384166113155760405163e602df0560e01b81525f600482015260240161079b565b6001600160a01b03831661133e57604051634a1406b160e11b81525f600482015260240161079b565b6001600160a01b038085165f908152600160209081526040808320938716835292905220829055801561067357826001600160a01b0316846001600160a01b03167f8c5be1e5ebec7d5bd14f71427d1e84f3dd0314c0f7b2291e5b200ac8c7c3b925846040516113b091815260200190565b60405180910390a350505050565b6106ba838383611a32565b6113d382826109a3565b6109255760405163e2517d3f60e01b81526001600160a01b03821660048201526024810183905260440161079b565b5f65ffffffffffff821115611434576040516306dfcc6560e41b8152603060048201526024810183905260440161079b565b5090565b5f60018211611445575090565b816001600160801b821061145e5760809190911c9060401b5b6801000000000000000082106114795760409190911c9060201b5b64010000000082106114905760209190911c9060101b5b6201000082106114a55760109190911c9060081b5b61010082106114b95760089190911c9060041b5b601082106114cc5760049190911c9060021b5b600482106114d85760011b5b600302600190811c908185816114f0576114f06121fe565b048201901c90506001818581611508576115086121fe565b048201901c90506001818581611520576115206121fe565b048201901c90506001818581611538576115386121fe565b048201901c90506001818581611550576115506121fe565b048201901c90506001818581611568576115686121fe565b048201901c9050611587818581611581576115816121fe565b04821190565b90039392505050565b5f5b818310156115de575f85815260209020838316600285851804019081015465ffffffffffff868116911611156115ca578092506115d8565b6115d58160016121d8565b93505b50611592565b509392505050565b6001600160a01b0381165f9081526020819052604081205461057f565b816001600160a01b0316836001600160a01b03161415801561162457505f81115b156106ba576001600160a01b038316156116cb576001600160a01b0383165f908152600960205260408120819061166690611a9861166186611aa3565b611ad6565b6001600160d01b031691506001600160d01b03169150846001600160a01b03167fdec2bacdd2f05b59de34da9b523dff8be42e5e38e818c82fdb0bae774387a72483836040516116c0929190918252602082015260400190565b60405180910390a250505b6001600160a01b038216156106ba576001600160a01b0382165f908152600960205260408120819061170390611b0e61166186611aa3565b6001600160d01b031691506001600160d01b03169150836001600160a01b03167fdec2bacdd2f05b59de34da9b523dff8be42e5e38e818c82fdb0bae774387a724838360405161175d929190918252602082015260400190565b60405180910390a25050505050565b5f63ffffffff821115611434576040516306dfcc6560e41b8152602060048201526024810183905260440161079b565b606060ff83146117b6576117af83611b19565b905061057f565b8180546117c29061218c565b80601f01602080910402602001604051908101604052809291908181526020018280546117ee9061218c565b80156118395780601f1061181057610100808354040283529160200191611839565b820191905f5260205f20905b81548152906001019060200180831161181c57829003601f168201915b5050505050905061057f565b5f80807f7fffffffffffffffffffffffffffffff5d576e7357a4501ddfe92f46681b20a084111561187e57505f91506003905082611903565b604080515f808252602082018084528a905260ff891692820192909252606081018790526080810186905260019060a0016020604051602081039080840390855afa1580156118cf573d5f803e3d5ffd5b5050604051601f1901519150506001600160a01b0381166118fa57505f925060019150829050611903565b92505f91508190505b9450945094915050565b5f82600381111561192057611920612212565b03611929575050565b600182600381111561193d5761193d612212565b0361195b5760405163f645eedf60e01b815260040160405180910390fd5b600282600381111561196f5761196f612212565b036119905760405163fce698f760e01b81526004810182905260240161079b565b60038260038111156119a4576119a4612212565b03610925576040516335e2f38360e21b81526004810182905260240161079b565b604080518082019091525f8082526020820152825f018263ffffffff16815481106119f2576119f2612226565b5f9182526020918290206040805180820190915291015465ffffffffffff81168252600160301b90046001600160d01b0316918101919091529392505050565b611a3d838383611b56565b6001600160a01b038316611a8d575f611a5560025490565b90506001600160d01b0380821115611a8a57604051630e58ae9360e11b8152600481018390526024810182905260440161079b565b50505b6106ba838383611c7c565b5f610c45828461223a565b5f6001600160d01b03821115611434576040516306dfcc6560e41b815260d060048201526024810183905260440161079b565b5f80611b01611ae36109cd565b611af9611aef886111d7565b868863ffffffff16565b879190611cf1565b915091505b935093915050565b5f610c458284612261565b60605f611b2583611cfe565b6040805160208082528183019092529192505f91906020820181803683375050509182525060208101929092525090565b6001600160a01b038316611b80578060025f828254611b7591906121d8565b90915550611bf09050565b6001600160a01b0383165f9081526020819052604090205481811015611bd25760405163391434e360e21b81526001600160a01b0385166004820152602481018290526044810183905260640161079b565b6001600160a01b0384165f9081526020819052604090209082900390555b6001600160a01b038216611c0c57600280548290039055611c2a565b6001600160a01b0382165f9081526020819052604090208054820190555b816001600160a01b0316836001600160a01b03167fddf252ad1be2c89b69c2b068fc378daa952ba7f163c4a11628f55a4df523b3ef83604051611c6f91815260200190565b60405180910390a3505050565b6001600160a01b038316611c9e57611c9b600a611b0e61166184611aa3565b50505b6001600160a01b038216611cc057611cbd600a611a9861166184611aa3565b50505b6001600160a01b038381165f908152600860205260408082205485841683529120546106ba92918216911683611603565b5f80611b01858585611d25565b5f60ff8216601f81111561057f57604051632cd44ac360e21b815260040160405180910390fd5b82545f9081908015611e1b575f611d418761102c6001856121eb565b805490915065ffffffffffff80821691600160301b90046001600160d01b0316908816821115611d8457604051632520601d60e01b815260040160405180910390fd5b8765ffffffffffff168265ffffffffffff1603611dbd57825465ffffffffffff16600160301b6001600160d01b03891602178355611e0d565b6040805180820190915265ffffffffffff808a1682526001600160d01b03808a1660208085019182528d54600181018f555f8f81529190912094519151909216600160301b029216919091179101555b9450859350611b0692505050565b50506040805180820190915265ffffffffffff80851682526001600160d01b0380851660208085019182528854600181018a555f8a815291822095519251909316600160301b029190931617920191909155905081611b06565b5f60208284031215611e85575f80fd5b81356001600160e01b031981168114610c45575f80fd5b5f81518084525f5b81811015611ec057602081850181015186830182015201611ea4565b505f602082860101526020601f19601f83011685010191505092915050565b602081525f610c456020830184611e9c565b80356001600160a01b0381168114611f07575f80fd5b919050565b5f8060408385031215611f1d575f80fd5b611f2683611ef1565b946020939093013593505050565b5f805f60608486031215611f46575f80fd5b611f4f84611ef1565b9250611f5d60208501611ef1565b9150604084013590509250925092565b5f60208284031215611f7d575f80fd5b5035919050565b5f8060408385031215611f95575f80fd5b82359150611fa560208401611ef1565b90509250929050565b5f60208284031215611fbe575f80fd5b610c4582611ef1565b60ff60f81b881681525f602060e06020840152611fe760e084018a611e9c565b8381036040850152611ff9818a611e9c565b606085018990526001600160a01b038816608086015260a0850187905284810360c0860152855180825260208088019350909101905f5b8181101561204c57835183529284019291840191600101612030565b50909c9b505050505050505050505050565b803560ff81168114611f07575f80fd5b5f805f805f8060c08789031215612083575f80fd5b61208c87611ef1565b955060208701359450604087013593506120a86060880161205e565b92506080870135915060a087013590509295509295509295565b5f805f805f805f60e0888a0312156120d8575f80fd5b6120e188611ef1565b96506120ef60208901611ef1565b9550604088013594506060880135935061210b6080890161205e565b925060a0880135915060c0880135905092959891949750929550565b5f8060408385031215612138575f80fd5b61214183611ef1565b9150611fa560208401611ef1565b5f8060408385031215612160575f80fd5b61216983611ef1565b9150602083013563ffffffff81168114612181575f80fd5b809150509250929050565b600181811c908216806121a057607f821691505b6020821081036121be57634e487b7160e01b5f52602260045260245ffd5b50919050565b634e487b7160e01b5f52601160045260245ffd5b8082018082111561057f5761057f6121c4565b8181038181111561057f5761057f6121c4565b634e487b7160e01b5f52601260045260245ffd5b634e487b7160e01b5f52602160045260245ffd5b634e487b7160e01b5f52603260045260245ffd5b6001600160d01b0382811682821603908082111561225a5761225a6121c4565b5092915050565b6001600160d01b0381811683821601908082111561225a5761225a6121c456fea26469706673582212208d4376d0454cca0c6e626433b8977f5c2d4ca62d7c7eb2a7be7ca017e997a89064736f6c63430008180033","linkReferences":{}},"methodIdentifiers":{"CLOCK_MODE()":"4bf5d7e9","DEFAULT_ADMIN_ROLE()":"a217fddf","DOMAIN_SEPARATOR()":"3644e515","MAX_SUPPLY()":"32cb6b0c","MINTER_ROLE()":"d5391393","allowance(address,address)":"dd62ed3e","approve(address,uint256)":"095ea7b3","balanceOf(address)":"70a08231","burn(uint256)":"42966c68","checkpoints(address,uint32)":"f1127ed8","clock()":"91ddadf4","decimals()":"313ce567","delegate(address)":"5c19a95c","delegateBySig(address,uint256,uint256,uint8,bytes32,bytes32)":"c3cda520","delegates(address)":"587cde1e","eip712Domain()":"84b0196e","getPastTotalSupply(uint256)":"8e539e8c","getPastVotes(address,uint256)":"3a46b1a8","getRoleAdmin(bytes32)":"248a9ca3","getVotes(address)":"9ab24eb0","grantRole(bytes32,address)":"2f2ff15d","hasRole(bytes32,address)":"91d14854","mint(address,uint256)":"40c10f19","name()":"06fdde03","nonces(address)":"7ecebe00","numCheckpoints(address)":"6fcfff45","permit(address,address,uint256,uint256,uint8,bytes32,bytes32)":"d505accf","renounceRole(bytes32,address)":"36568abe","revokeRole(bytes32,address)":"d547741f","supportsInterface(bytes4)":"01ffc9a7","symbol()":"95d89b41","totalSupply()":"18160ddd","transfer(address,uint256)":"a9059cbb","transferFrom(address,address,uint256)":"23b872dd"},"id":90}