{"abi":[{"type":"constructor","inputs":[{"name":"underlyingAsset","type":"address","internalType":"contract IERC20"},{"name":"name_","type":"string","internalType":"string"},{"name":"symbol_","type":"string","internalType":"string"},{"name":"admin","type":"address","internalType":"address"}],"stateMutability":"nonpayable"},{"type":"function","name":"DEFAULT_ADMIN_ROLE","inputs":[],"outputs":[{"name":"","type":"bytes32","internalType":"bytes32"}],"stateMutability":"view"},{"type":"function","name":"STRATEGIST_ROLE","inputs":[],"outputs":[{"name":"","type":"bytes32","internalType":"bytes32"}],"stateMutability":"view"},{"type":"function","name":"allowance","inputs":[{"name":"owner","type":"address","internalType":"address"},{"name":"spender","type":"address","internalType":"address"}],"outputs":[{"name":"","type":"uint256","internalType":"uint256"}],"stateMutability":"view"},{"type":"function","name":"approve","inputs":[{"name":"spender","type":"address","internalType":"address"},{"name":"value","type":"uint256","internalType":"uint256"}],"outputs":[{"name":"","type":"bool","internalType":"bool"}],"stateMutability":"nonpayable"},{"type":"function","name":"asset","inputs":[],"outputs":[{"name":"","type":"address","internalType":"address"}],"stateMutability":"view"},{"type":"function","name":"assetsToShares","inputs":[{"name":"assets","type":"uint256","internalType":"uint256"}],"outputs":[{"name":"","type":"uint256","internalType":"uint256"}],"stateMutability":"view"},{"type":"function","name":"balanceOf","inputs":[{"name":"account","type":"address","internalType":"address"}],"outputs":[{"name":"","type":"uint256","internalType":"uint256"}],"stateMutability":"view"},{"type":"function","name":"convertToAssets","inputs":[{"name":"shares","type":"uint256","internalType":"uint256"}],"outputs":[{"name":"","type":"uint256","internalType":"uint256"}],"stateMutability":"view"},{"type":"function","name":"convertToShares","inputs":[{"name":"assets","type":"uint256","internalType":"uint256"}],"outputs":[{"name":"","type":"uint256","internalType":"uint256"}],"stateMutability":"view"},{"type":"function","name":"decimals","inputs":[],"outputs":[{"name":"","type":"uint8","internalType":"uint8"}],"stateMutability":"view"},{"type":"function","name":"deposit","inputs":[{"name":"assets","type":"uint256","internalType":"uint256"},{"name":"receiver","type":"address","internalType":"address"}],"outputs":[{"name":"shares","type":"uint256","internalType":"uint256"}],"stateMutability":"nonpayable"},{"type":"function","name":"getRoleAdmin","inputs":[{"name":"role","type":"bytes32","internalType":"bytes32"}],"outputs":[{"name":"","type":"bytes32","internalType":"bytes32"}],"stateMutability":"view"},{"type":"function","name":"grantRole","inputs":[{"name":"role","type":"bytes32","internalType":"bytes32"},{"name":"account","type":"address","internalType":"address"}],"outputs":[],"stateMutability":"nonpayable"},{"type":"function","name":"harvestYield","inputs":[{"name":"amount","type":"uint256","internalType":"uint256"}],"outputs":[],"stateMutability":"nonpayable"},{"type":"function","name":"hasRole","inputs":[{"name":"role","type":"bytes32","internalType":"bytes32"},{"name":"account","type":"address","internalType":"address"}],"outputs":[{"name":"","type":"bool","internalType":"bool"}],"stateMutability":"view"},{"type":"function","name":"maxDeposit","inputs":[{"name":"","type":"address","internalType":"address"}],"outputs":[{"name":"","type":"uint256","internalType":"uint256"}],"stateMutability":"view"},{"type":"function","name":"maxMint","inputs":[{"name":"","type":"address","internalType":"address"}],"outputs":[{"name":"","type":"uint256","internalType":"uint256"}],"stateMutability":"view"},{"type":"function","name":"maxRedeem","inputs":[{"name":"owner","type":"address","internalType":"address"}],"outputs":[{"name":"","type":"uint256","internalType":"uint256"}],"stateMutability":"view"},{"type":"function","name":"maxWithdraw","inputs":[{"name":"owner","type":"address","internalType":"address"}],"outputs":[{"name":"","type":"uint256","internalType":"uint256"}],"stateMutability":"view"},{"type":"function","name":"mint","inputs":[{"name":"shares","type":"uint256","internalType":"uint256"},{"name":"receiver","type":"address","internalType":"address"}],"outputs":[{"name":"assets","type":"uint256","internalType":"uint256"}],"stateMutability":"nonpayable"},{"type":"function","name":"name","inputs":[],"outputs":[{"name":"","type":"string","internalType":"string"}],"stateMutability":"view"},{"type":"function","name":"previewDeposit","inputs":[{"name":"assets","type":"uint256","internalType":"uint256"}],"outputs":[{"name":"","type":"uint256","internalType":"uint256"}],"stateMutability":"view"},{"type":"function","name":"previewMint","inputs":[{"name":"shares","type":"uint256","internalType":"uint256"}],"outputs":[{"name":"","type":"uint256","internalType":"uint256"}],"stateMutability":"view"},{"type":"function","name":"previewRedeem","inputs":[{"name":"shares","type":"uint256","internalType":"uint256"}],"outputs":[{"name":"","type":"uint256","internalType":"uint256"}],"stateMutability":"view"},{"type":"function","name":"previewWithdraw","inputs":[{"name":"assets","type":"uint256","internalType":"uint256"}],"outputs":[{"name":"","type":"uint256","internalType":"uint256"}],"stateMutability":"view"},{"type":"function","name":"redeem","inputs":[{"name":"shares","type":"uint256","internalType":"uint256"},{"name":"receiver","type":"address","internalType":"address"},{"name":"owner","type":"address","internalType":"address"}],"outputs":[{"name":"assets","type":"uint256","internalType":"uint256"}],"stateMutability":"nonpayable"},{"type":"function","name":"renounceRole","inputs":[{"name":"role","type":"bytes32","internalType":"bytes32"},{"name":"callerConfirmation","type":"address","internalType":"address"}],"outputs":[],"stateMutability":"nonpayable"},{"type":"function","name":"revokeRole","inputs":[{"name":"role","type":"bytes32","internalType":"bytes32"},{"name":"account","type":"address","internalType":"address"}],"outputs":[],"stateMutability":"nonpayable"},{"type":"function","name":"sharesToAssets","inputs":[{"name":"shares","type":"uint256","internalType":"uint256"}],"outputs":[{"name":"","type":"uint256","internalType":"uint256"}],"stateMutability":"view"},{"type":"function","name":"supportsInterface","inputs":[{"name":"interfaceId","type":"bytes4","internalType":"bytes4"}],"outputs":[{"name":"","type":"bool","internalType":"bool"}],"stateMutability":"view"},{"type":"function","name":"symbol","inputs":[],"outputs":[{"name":"","type":"string","internalType":"string"}],"stateMutability":"view"},{"type":"function","name":"totalAssets","inputs":[],"outputs":[{"name":"","type":"uint256","internalType":"uint256"}],"stateMutability":"view"},{"type":"function","name":"totalSupply","inputs":[],"outputs":[{"name":"","type":"uint256","internalType":"uint256"}],"stateMutability":"view"},{"type":"function","name":"totalYieldHarvested","inputs":[],"outputs":[{"name":"","type":"uint256","internalType":"uint256"}],"stateMutability":"view"},{"type":"function","name":"transfer","inputs":[{"name":"to","type":"address","internalType":"address"},{"name":"value","type":"uint256","internalType":"uint256"}],"outputs":[{"name":"","type":"bool","internalType":"bool"}],"stateMutability":"nonpayable"},{"type":"function","name":"transferFrom","inputs":[{"name":"from","type":"address","internalType":"address"},{"name":"to","type":"address","internalType":"address"},{"name":"value","type":"uint256","internalType":"uint256"}],"outputs":[{"name":"","type":"bool","internalType":"bool"}],"stateMutability":"nonpayable"},{"type":"function","name":"withdraw","inputs":[{"name":"assets","type":"uint256","internalType":"uint256"},{"name":"receiver","type":"address","internalType":"address"},{"name":"owner","type":"address","internalType":"address"}],"outputs":[{"name":"shares","type":"uint256","internalType":"uint256"}],"stateMutability":"nonpayable"},{"type":"event","name":"Approval","inputs":[{"name":"owner","type":"address","indexed":true,"internalType":"address"},{"name":"spender","type":"address","indexed":true,"internalType":"address"},{"name":"value","type":"uint256","indexed":false,"internalType":"uint256"}],"anonymous":false},{"type":"event","name":"Deposit","inputs":[{"name":"sender","type":"address","indexed":true,"internalType":"address"},{"name":"owner","type":"address","indexed":true,"internalType":"address"},{"name":"assets","type":"uint256","indexed":false,"internalType":"uint256"},{"name":"shares","type":"uint256","indexed":false,"internalType":"uint256"}],"anonymous":false},{"type":"event","name":"Deposited","inputs":[{"name":"caller","type":"address","indexed":true,"internalType":"address"},{"name":"receiver","type":"address","indexed":true,"internalType":"address"},{"name":"assets","type":"uint256","indexed":false,"internalType":"uint256"},{"name":"shares","type":"uint256","indexed":false,"internalType":"uint256"}],"anonymous":false},{"type":"event","name":"Minted","inputs":[{"name":"caller","type":"address","indexed":true,"internalType":"address"},{"name":"receiver","type":"address","indexed":true,"internalType":"address"},{"name":"shares","type":"uint256","indexed":false,"internalType":"uint256"},{"name":"assets","type":"uint256","indexed":false,"internalType":"uint256"}],"anonymous":false},{"type":"event","name":"Redeemed","inputs":[{"name":"caller","type":"address","indexed":true,"internalType":"address"},{"name":"receiver","type":"address","indexed":true,"internalType":"address"},{"name":"owner","type":"address","indexed":true,"internalType":"address"},{"name":"shares","type":"uint256","indexed":false,"internalType":"uint256"},{"name":"assets","type":"uint256","indexed":false,"internalType":"uint256"}],"anonymous":false},{"type":"event","name":"RoleAdminChanged","inputs":[{"name":"role","type":"bytes32","indexed":true,"internalType":"bytes32"},{"name":"previousAdminRole","type":"bytes32","indexed":true,"internalType":"bytes32"},{"name":"newAdminRole","type":"bytes32","indexed":true,"internalType":"bytes32"}],"anonymous":false},{"type":"event","name":"RoleGranted","inputs":[{"name":"role","type":"bytes32","indexed":true,"internalType":"bytes32"},{"name":"account","type":"address","indexed":true,"internalType":"address"},{"name":"sender","type":"address","indexed":true,"internalType":"address"}],"anonymous":false},{"type":"event","name":"RoleRevoked","inputs":[{"name":"role","type":"bytes32","indexed":true,"internalType":"bytes32"},{"name":"account","type":"address","indexed":true,"internalType":"address"},{"name":"sender","type":"address","indexed":true,"internalType":"address"}],"anonymous":false},{"type":"event","name":"Transfer","inputs":[{"name":"from","type":"address","indexed":true,"internalType":"address"},{"name":"to","type":"address","indexed":true,"internalType":"address"},{"name":"value","type":"uint256","indexed":false,"internalType":"uint256"}],"anonymous":false},{"type":"event","name":"Withdraw","inputs":[{"name":"sender","type":"address","indexed":true,"internalType":"address"},{"name":"receiver","type":"address","indexed":true,"internalType":"address"},{"name":"owner","type":"address","indexed":true,"internalType":"address"},{"name":"assets","type":"uint256","indexed":false,"internalType":"uint256"},{"name":"shares","type":"uint256","indexed":false,"internalType":"uint256"}],"anonymous":false},{"type":"event","name":"Withdrawn","inputs":[{"name":"caller","type":"address","indexed":true,"internalType":"address"},{"name":"receiver","type":"address","indexed":true,"internalType":"address"},{"name":"owner","type":"address","indexed":true,"internalType":"address"},{"name":"assets","type":"uint256","indexed":false,"internalType":"uint256"},{"name":"shares","type":"uint256","indexed":false,"internalType":"uint256"}],"anonymous":false},{"type":"event","name":"YieldHarvested","inputs":[{"name":"strategist","type":"address","indexed":true,"internalType":"address"},{"name":"amount","type":"uint256","indexed":false,"internalType":"uint256"},{"name":"newTotalAssets","type":"uint256","indexed":false,"internalType":"uint256"}],"anonymous":false},{"type":"error","name":"AccessControlBadConfirmation","inputs":[]},{"type":"error","name":"AccessControlUnauthorizedAccount","inputs":[{"name":"account","type":"address","internalType":"address"},{"name":"neededRole","type":"bytes32","internalType":"bytes32"}]},{"type":"error","name":"ERC20InsufficientAllowance","inputs":[{"name":"spender","type":"address","internalType":"address"},{"name":"allowance","type":"uint256","internalType":"uint256"},{"name":"needed","type":"uint256","internalType":"uint256"}]},{"type":"error","name":"ERC20InsufficientBalance","inputs":[{"name":"sender","type":"address","internalType":"address"},{"name":"balance","type":"uint256","internalType":"uint256"},{"name":"needed","type":"uint256","internalType":"uint256"}]},{"type":"error","name":"ERC20InvalidApprover","inputs":[{"name":"approver","type":"address","internalType":"address"}]},{"type":"error","name":"ERC20InvalidReceiver","inputs":[{"name":"receiver","type":"address","internalType":"address"}]},{"type":"error","name":"ERC20InvalidSender","inputs":[{"name":"sender","type":"address","internalType":"address"}]},{"type":"error","name":"ERC20InvalidSpender","inputs":[{"name":"spender","type":"address","internalType":"address"}]},{"type":"error","name":"ERC4626ExceededMaxDeposit","inputs":[{"name":"receiver","type":"address","internalType":"address"},{"name":"assets","type":"uint256","internalType":"uint256"},{"name":"max","type":"uint256","internalType":"uint256"}]},{"type":"error","name":"ERC4626ExceededMaxMint","inputs":[{"name":"receiver","type":"address","internalType":"address"},{"name":"shares","type":"uint256","internalType":"uint256"},{"name":"max","type":"uint256","internalType":"uint256"}]},{"type":"error","name":"ERC4626ExceededMaxRedeem","inputs":[{"name":"owner","type":"address","internalType":"address"},{"name":"shares","type":"uint256","internalType":"uint256"},{"name":"max","type":"uint256","internalType":"uint256"}]},{"type":"error","name":"ERC4626ExceededMaxWithdraw","inputs":[{"name":"owner","type":"address","internalType":"address"},{"name":"assets","type":"uint256","internalType":"uint256"},{"name":"max","type":"uint256","internalType":"uint256"}]},{"type":"error","name":"MaxDepositExceeded","inputs":[{"name":"receiver","type":"address","internalType":"address"},{"name":"requested","type":"uint256","internalType":"uint256"},{"name":"maximum","type":"uint256","internalType":"uint256"}]},{"type":"error","name":"MaxMintExceeded","inputs":[{"name":"receiver","type":"address","internalType":"address"},{"name":"requested","type":"uint256","internalType":"uint256"},{"name":"maximum","type":"uint256","internalType":"uint256"}]},{"type":"error","name":"MaxRedeemExceeded","inputs":[{"name":"owner","type":"address","internalType":"address"},{"name":"requested","type":"uint256","internalType":"uint256"},{"name":"maximum","type":"uint256","internalType":"uint256"}]},{"type":"error","name":"MaxWithdrawExceeded","inputs":[{"name":"owner","type":"address","internalType":"address"},{"name":"requested","type":"uint256","internalType":"uint256"},{"name":"maximum","type":"uint256","internalType":"uint256"}]},{"type":"error","name":"ReentrancyGuardReentrantCall","inputs":[]},{"type":"error","name":"SafeERC20FailedOperation","inputs":[{"name":"token","type":"address","internalType":"address"}]},{"type":"error","name":"ZeroAmount","inputs":[]}],"bytecode":{"object":"0x60c060405234801562000010575f80fd5b5060405162001e0338038062001e0383398101604081905262000033916200033c565b838383600362000044838262000455565b50600462000053828262000455565b5050505f806200006983620000f960201b60201c565b91509150816200007b5760126200007d565b805b60ff1660a05250506001600160a01b031660805260017f9b779b17422d0df92223018b32b4d1fa46e071723d6817e2486d003becc55f0055620000c15f8262000192565b50620000ee7f17a8e30262c1f919c33056d877a3c22b95c2f5e4dac44683c1c2323cd79fbdb08262000192565b505050505062000521565b5f80806200010660405190565b6040805160048152602481019091526020810180516001600160e01b0390811663313ce56760e01b179091529192505f91829162000148918891906200024216565b5090925090506200015883604052565b81801562000167575060203d10155b801562000175575060ff8111155b62000182575f8062000186565b6001815b94509450505050915091565b5f8281526005602090815260408083206001600160a01b038516845290915281205460ff1662000239575f8381526005602090815260408083206001600160a01b03861684529091529020805460ff19166001179055620001f03390565b6001600160a01b0316826001600160a01b0316847f2f8788117e7eff1d82e926ec794901d17c78024a50270940304540a733656f0d60405160405180910390a45060016200023c565b505f5b92915050565b5f805f60405f855160208701885afa92505f51915060205190509250925092565b6001600160a01b038116811462000278575f80fd5b50565b634e487b7160e01b5f52604160045260245ffd5b5f82601f8301126200029f575f80fd5b81516001600160401b0380821115620002bc57620002bc6200027b565b604051601f8301601f19908116603f01168101908282118183101715620002e757620002e76200027b565b816040528381526020925086602085880101111562000304575f80fd5b5f91505b8382101562000327578582018301518183018401529082019062000308565b5f602085830101528094505050505092915050565b5f805f806080858703121562000350575f80fd5b84516200035d8162000263565b60208601519094506001600160401b03808211156200037a575f80fd5b62000388888389016200028f565b945060408701519150808211156200039e575f80fd5b50620003ad878288016200028f565b9250506060850151620003c08162000263565b939692955090935050565b600181811c90821680620003e057607f821691505b602082108103620003ff57634e487b7160e01b5f52602260045260245ffd5b50919050565b601f8211156200045057805f5260205f20601f840160051c810160208510156200042c5750805b601f840160051c820191505b818110156200044d575f815560010162000438565b50505b505050565b81516001600160401b038111156200047157620004716200027b565b6200048981620004828454620003cb565b8462000405565b602080601f831160018114620004bf575f8415620004a75750858301515b5f19600386901b1c1916600185901b17855562000519565b5f85815260208120601f198616915b82811015620004ef57888601518255948401946001909101908401620004ce565b50858210156200050d57878501515f19600388901b60f8161c191681555b505060018460011b0185555b505050505050565b60805160a0516118a46200055f5f395f6106fa01525f818161034301528181610524015281816107ad0152818161125701526112eb01526118a45ff3fe608060405234801561000f575f80fd5b506004361061021e575f3560e01c806370a082311161012a578063b460af94116100b4578063d547741f11610079578063d547741f146104b0578063d905777e146104c3578063dd62ed3e146104d6578063e0b231fa1461050e578063ef8b30f71461048a575f80fd5b8063b460af9414610464578063ba08765214610477578063c63d75b61461036d578063c6e6f5921461048a578063ce96cb771461049d575f80fd5b806395d89b41116100fa57806395d89b4114610408578063a217fddf14610410578063a378a32414610417578063a9059cbb1461043e578063b3d7f6b914610451575f80fd5b806370a08231146103a75780637fe0c850146103cf57806391d14854146103e257806394bf804d146103f5575f80fd5b8063248a9ca3116101ab57806338d52e0f1161017b57806338d52e0f14610336578063402d267d1461036d5780634cdad506146102755780635c63ac59146103815780636e553f6514610394575f80fd5b8063248a9ca3146102d25780632f2ff15d146102f4578063313ce5671461030957806336568abe14610323575f80fd5b8063095ea7b3116101f1578063095ea7b3146102885780630a28a4771461029b57806318160ddd146102ae57806322a6619e146102b657806323b872dd146102bf575f80fd5b806301e1d1141461022257806301ffc9a71461023d57806306fdde031461026057806307a2d13a14610275575b5f80fd5b61022a610521565b6040519081526020015b60405180910390f35b61025061024b3660046114b1565b6105b0565b6040519015158152602001610234565b6102686105e6565b60405161023491906114d8565b61022a610283366004611524565b610676565b610250610296366004611556565b610681565b61022a6102a9366004611524565b610698565b60025461022a565b61022a60065481565b6102506102cd36600461157e565b6106a4565b61022a6102e0366004611524565b5f9081526005602052604090206001015490565b6103076103023660046115b7565b6106c9565b005b6103116106f3565b60405160ff9091168152602001610234565b6103076103313660046115b7565b61071e565b6040516001600160a01b037f0000000000000000000000000000000000000000000000000000000000000000168152602001610234565b61022a61037b3660046115e1565b505f1990565b61030761038f366004611524565b610756565b61022a6103a23660046115b7565b610833565b61022a6103b53660046115e1565b6001600160a01b03165f9081526020819052604090205490565b61022a6103dd366004611524565b6108e1565b6102506103f03660046115b7565b6108eb565b61022a6104033660046115b7565b610915565b61026861099a565b61022a5f81565b61022a7f17a8e30262c1f919c33056d877a3c22b95c2f5e4dac44683c1c2323cd79fbdb081565b61025061044c366004611556565b6109a9565b61022a61045f366004611524565b6109b6565b61022a6104723660046115fa565b6109c2565b61022a6104853660046115fa565b610a99565b61022a610498366004611524565b610b55565b61022a6104ab3660046115e1565b610b60565b6103076104be3660046115b7565b610b6d565b61022a6104d13660046115e1565b610b91565b61022a6104e4366004611633565b6001600160a01b039182165f90815260016020908152604080832093909416825291909152205490565b61022a61051c366004611524565b610bae565b5f7f00000000000000000000000000000000000000000000000000000000000000006040516370a0823160e01b81523060048201526001600160a01b0391909116906370a0823190602401602060405180830381865afa158015610587573d5f803e3d5ffd5b505050506040513d601f19601f820116820180604052508101906105ab919061165b565b905090565b5f6001600160e01b03198216637965db0b60e01b14806105e057506301ffc9a760e01b6001600160e01b03198316145b92915050565b6060600380546105f590611672565b80601f016020809104026020016040519081016040528092919081815260200182805461062190611672565b801561066c5780601f106106435761010080835404028352916020019161066c565b820191905f5260205f20905b81548152906001019060200180831161064f57829003601f168201915b5050505050905090565b5f6105e0825f610bb8565b5f3361068e818585610bf0565b5060019392505050565b5f6105e0826001610bfd565b5f336106b1858285610c2c565b6106bc858585610c8f565b60019150505b9392505050565b5f828152600560205260409020600101546106e381610cec565b6106ed8383610cf9565b50505050565b5f6105ab817f00000000000000000000000000000000000000000000000000000000000000006116be565b6001600160a01b03811633146107475760405163334bd91960e11b815260040160405180910390fd5b6107518282610d8a565b505050565b7f17a8e30262c1f919c33056d877a3c22b95c2f5e4dac44683c1c2323cd79fbdb061078081610cec565b815f036107a057604051631f2a200560e01b815260040160405180910390fd5b6107d56001600160a01b037f000000000000000000000000000000000000000000000000000000000000000016333085610df5565b8160065f8282546107e691906116d7565b909155503390507ff343dfc1e44c65296fb907b287e6e12133eb7945ba79ec463d65ef129757c2ff83610817610521565b6040805192835260208301919091520160405180910390a25050565b5f61083c610e2b565b825f0361085c57604051631f2a200560e01b815260040160405180910390fd5b5f1961086c565b60405180910390fd5b61087584610b55565b915061088333848685610e46565b60408051858152602081018490526001600160a01b0385169133917ff5681f9d0db1b911ac18ee83d515a1cf1051853a9eae418316a2fdf7dea427c591015b60405180910390a3506105e060015f8051602061184f83398151915255565b5f6105e082610676565b5f9182526005602090815260408084206001600160a01b0393909316845291905290205460ff1690565b5f61091e610e2b565b825f0361093e57604051631f2a200560e01b815260040160405180910390fd5b5f19610949846109b6565b915061095733848487610e46565b60408051858152602081018490526001600160a01b0385169133917f03f17d66ad3bf18e9412eb06582908831508cdb9b8da9cddb1431f645a5b863291016108c2565b6060600480546105f590611672565b5f3361068e818585610c8f565b5f6105e0826001610bb8565b5f6109cb610e2b565b835f036109eb57604051631f2a200560e01b815260040160405180910390fd5b5f6109f583610b60565b905080851115610a1e5782858260405163d1eddbcb60e01b8152600401610863939291906116ea565b610a2785610698565b9150610a363385858886610eb6565b60408051868152602081018490526001600160a01b03808616929087169133917f144f5f62c08d623a6f383205dc8d5ef825b693748e2977846e18121b6780413a91015b60405180910390a4506106c260015f8051602061184f83398151915255565b5f610aa2610e2b565b835f03610ac257604051631f2a200560e01b815260040160405180910390fd5b5f610acc83610b91565b905080851115610af557828582604051632d27a4ff60e11b8152600401610863939291906116ea565b610afe85610676565b9150610b0d3385858589610eb6565b60408051868152602081018490526001600160a01b03808616929087169133917fda4c370e4f539b8e19d66144cad73d70fbf440a544e56ff38e28e38ed47801a89101610a7a565b5f6105e0825f610bfd565b5f6105e061028383610b91565b5f82815260056020526040902060010154610b8781610cec565b6106ed8383610d8a565b6001600160a01b0381165f908152602081905260408120546105e0565b5f6105e082610b55565b5f6106c2610bc4610521565b610bcf9060016116d7565b610bda5f600a6117eb565b600254610be791906116d7565b85919085610f55565b6107518383836001610fa0565b5f6106c2610c0c82600a6117eb565b600254610c1991906116d7565b610c21610521565b610be79060016116d7565b6001600160a01b038381165f908152600160209081526040808320938616835292905220545f198110156106ed5781811015610c8157828183604051637dc7a0d960e11b8152600401610863939291906116ea565b6106ed84848484035f610fa0565b6001600160a01b038316610cb857604051634b637e8f60e11b81525f6004820152602401610863565b6001600160a01b038216610ce15760405163ec442f0560e01b81525f6004820152602401610863565b610751838383611064565b610cf68133611177565b50565b5f610d0483836108eb565b610d83575f8381526005602090815260408083206001600160a01b03861684529091529020805460ff19166001179055610d3b3390565b6001600160a01b0316826001600160a01b0316847f2f8788117e7eff1d82e926ec794901d17c78024a50270940304540a733656f0d60405160405180910390a45060016105e0565b505f6105e0565b5f610d9583836108eb565b15610d83575f8381526005602090815260408083206001600160a01b0386168085529252808320805460ff1916905551339286917ff6391f5c32d9c69d2a47ea670b442974b53935d1edc7fd64eb21e047a839171b9190a45060016105e0565b610e038484848460016111b4565b6106ed57604051635274afe760e01b81526001600160a01b0385166004820152602401610863565b610e33611221565b60025f8051602061184f83398151915255565b610e508483611252565b610e5a838261127e565b826001600160a01b0316846001600160a01b03167fdcbc1c05240f31ff3ad067ef1ee35ce4997762752e3a095284754544f4c709d78484604051610ea8929190918252602082015260400190565b60405180910390a350505050565b826001600160a01b0316856001600160a01b031614610eda57610eda838683610c2c565b610ee483826112b2565b610eee84836112e6565b826001600160a01b0316846001600160a01b0316866001600160a01b03167ffbde797d201c681b91056529119e0b02407c7bb96a4a2c75c01fc9667232c8db8585604051610f46929190918252602082015260400190565b60405180910390a45050505050565b5f610f82610f6283611311565b8015610f7d57505f8480610f7857610f786117f9565b868809115b151590565b610f8d86868661133d565b610f9791906116d7565b95945050505050565b6001600160a01b038416610fc95760405163e602df0560e01b81525f6004820152602401610863565b6001600160a01b038316610ff257604051634a1406b160e11b81525f6004820152602401610863565b6001600160a01b038085165f90815260016020908152604080832093871683529290522082905580156106ed57826001600160a01b0316846001600160a01b03167f8c5be1e5ebec7d5bd14f71427d1e84f3dd0314c0f7b2291e5b200ac8c7c3b92584604051610ea891815260200190565b6001600160a01b03831661108e578060025f82825461108391906116d7565b909155506110eb9050565b6001600160a01b0383165f90815260208190526040902054818110156110cd5783818360405163391434e360e21b8152600401610863939291906116ea565b6001600160a01b0384165f9081526020819052604090209082900390555b6001600160a01b03821661110757600280548290039055611125565b6001600160a01b0382165f9081526020819052604090208054820190555b816001600160a01b0316836001600160a01b03167fddf252ad1be2c89b69c2b068fc378daa952ba7f163c4a11628f55a4df523b3ef8360405161116a91815260200190565b60405180910390a3505050565b61118182826108eb565b6111b05760405163e2517d3f60e01b81526001600160a01b038216600482015260248101839052604401610863565b5050565b6040516323b872dd60e01b5f8181526001600160a01b038781166004528616602452604485905291602083606481808c5af1925060015f51148316611210578383151615611204573d5f823e3d81fd5b5f883b113d1516831692505b604052505f60605295945050505050565b5f8051602061184f8339815191525460020361125057604051633ee5aeb560e01b815260040160405180910390fd5b565b6111b07f0000000000000000000000000000000000000000000000000000000000000000833084610df5565b6001600160a01b0382166112a75760405163ec442f0560e01b81525f6004820152602401610863565b6111b05f8383611064565b6001600160a01b0382166112db57604051634b637e8f60e11b81525f6004820152602401610863565b6111b0825f83611064565b6111b07f000000000000000000000000000000000000000000000000000000000000000083836113ed565b5f60028260038111156113265761132661180d565b6113309190611821565b60ff166001149050919050565b5f805f61134a8686611422565b91509150815f0361136e57838181611364576113646117f9565b04925050506106c2565b81841161138557611385600385150260111861143e565b5f848688095f868103871696879004966002600389028118808a02820302808a02820302808a02820302808a02820302808a02820302808a02909103029181900381900460010185841190960395909502919093039390930492909217029150509392505050565b6113fa838383600161144f565b61075157604051635274afe760e01b81526001600160a01b0384166004820152602401610863565b5f805f1983850993909202808410938190039390930393915050565b634e487b715f52806020526024601cfd5b60405163a9059cbb60e01b5f8181526001600160a01b038616600452602485905291602083604481808b5af1925060015f511483166114a5578383151615611499573d5f823e3d81fd5b5f873b113d1516831692505b60405250949350505050565b5f602082840312156114c1575f80fd5b81356001600160e01b0319811681146106c2575f80fd5b5f602080835283518060208501525f5b81811015611504578581018301518582016040015282016114e8565b505f604082860101526040601f19601f8301168501019250505092915050565b5f60208284031215611534575f80fd5b5035919050565b80356001600160a01b0381168114611551575f80fd5b919050565b5f8060408385031215611567575f80fd5b6115708361153b565b946020939093013593505050565b5f805f60608486031215611590575f80fd5b6115998461153b565b92506115a76020850161153b565b9150604084013590509250925092565b5f80604083850312156115c8575f80fd5b823591506115d86020840161153b565b90509250929050565b5f602082840312156115f1575f80fd5b6106c28261153b565b5f805f6060848603121561160c575f80fd5b8335925061161c6020850161153b565b915061162a6040850161153b565b90509250925092565b5f8060408385031215611644575f80fd5b61164d8361153b565b91506115d86020840161153b565b5f6020828403121561166b575f80fd5b5051919050565b600181811c9082168061168657607f821691505b6020821081036116a457634e487b7160e01b5f52602260045260245ffd5b50919050565b634e487b7160e01b5f52601160045260245ffd5b60ff81811683821601908111156105e0576105e06116aa565b808201808211156105e0576105e06116aa565b6001600160a01b039390931683526020830191909152604082015260600190565b600181815b8085111561174557815f190482111561172b5761172b6116aa565b8085161561173857918102915b93841c9390800290611710565b509250929050565b5f8261175b575060016105e0565b8161176757505f6105e0565b816001811461177d5760028114611787576117a3565b60019150506105e0565b60ff841115611798576117986116aa565b50506001821b6105e0565b5060208310610133831016604e8410600b84101617156117c6575081810a6105e0565b6117d0838361170b565b805f19048211156117e3576117e36116aa565b029392505050565b5f6106c260ff84168361174d565b634e487b7160e01b5f52601260045260245ffd5b634e487b7160e01b5f52602160045260245ffd5b5f60ff83168061183f57634e487b7160e01b5f52601260045260245ffd5b8060ff8416069150509291505056fe9b779b17422d0df92223018b32b4d1fa46e071723d6817e2486d003becc55f00a26469706673582212207f0dd3516e2a25e2113d2aadb88cbe5bac209273584705e9e85a19e27c45049964736f6c63430008180033","linkReferences":{}},"methodIdentifiers":{"DEFAULT_ADMIN_ROLE()":"a217fddf","STRATEGIST_ROLE()":"a378a324","allowance(address,address)":"dd62ed3e","approve(address,uint256)":"095ea7b3","asset()":"38d52e0f","assetsToShares(uint256)":"e0b231fa","balanceOf(address)":"70a08231","convertToAssets(uint256)":"07a2d13a","convertToShares(uint256)":"c6e6f592","decimals()":"313ce567","deposit(uint256,address)":"6e553f65","getRoleAdmin(bytes32)":"248a9ca3","grantRole(bytes32,address)":"2f2ff15d","harvestYield(uint256)":"5c63ac59","hasRole(bytes32,address)":"91d14854","maxDeposit(address)":"402d267d","maxMint(address)":"c63d75b6","maxRedeem(address)":"d905777e","maxWithdraw(address)":"ce96cb77","mint(uint256,address)":"94bf804d","name()":"06fdde03","previewDeposit(uint256)":"ef8b30f7","previewMint(uint256)":"b3d7f6b9","previewRedeem(uint256)":"4cdad506","previewWithdraw(uint256)":"0a28a477","redeem(uint256,address,address)":"ba087652","renounceRole(bytes32,address)":"36568abe","revokeRole(bytes32,address)":"d547741f","sharesToAssets(uint256)":"7fe0c850","supportsInterface(bytes4)":"01ffc9a7","symbol()":"95d89b41","totalAssets()":"01e1d114","totalSupply()":"18160ddd","totalYieldHarvested()":"22a6619e","transfer(address,uint256)":"a9059cbb","transferFrom(address,address,uint256)":"23b872dd","withdraw(uint256,address,address)":"b460af94"},"id":93}