{"abi":[{"type":"constructor","inputs":[{"name":"initialPrice","type":"int256","internalType":"int256"},{"name":"decimals_","type":"uint8","internalType":"uint8"}],"stateMutability":"nonpayable"},{"type":"function","name":"decimals","inputs":[],"outputs":[{"name":"","type":"uint8","internalType":"uint8"}],"stateMutability":"view"},{"type":"function","name":"latestRoundData","inputs":[],"outputs":[{"name":"roundId","type":"uint80","internalType":"uint80"},{"name":"answer","type":"int256","internalType":"int256"},{"name":"startedAt","type":"uint256","internalType":"uint256"},{"name":"updatedAt","type":"uint256","internalType":"uint256"},{"name":"answeredInRound","type":"uint80","internalType":"uint80"}],"stateMutability":"view"},{"type":"function","name":"setPrice","inputs":[{"name":"price","type":"int256","internalType":"int256"}],"outputs":[],"stateMutability":"nonpayable"},{"type":"function","name":"setUpdatedAt","inputs":[{"name":"ts","type":"uint256","internalType":"uint256"}],"outputs":[],"stateMutability":"nonpayable"}],"bytecode":{"object":"0x608060405234801561000f575f80fd5b5060405161019738038061019783398101604081905261002e9161004f565b5f919091556001805460ff191660ff90921691909117905542600255610082565b5f8060408385031215610060575f80fd5b82519150602083015160ff81168114610077575f80fd5b809150509250929050565b6101088061008f5f395ff3fe6080604052348015600e575f80fd5b50600436106044575f3560e01c80631ecc7d88146048578063313ce56714605a578063f7a30806146074578063feaf968c146087575b5f80fd5b6058605336600460bc565b600255565b005b60015460405160ff90911681526020015b60405180910390f35b6058607f36600460bc565b5f5542600255565b5f54600254604080516001808252602082019490945242918101919091526060810191909152608081019190915260a001606b565b5f6020828403121560cb575f80fd5b503591905056fea2646970667358221220aae72a883bb37d99b0198ec68c28e8d509714dac2b531a1b3f0839856de5ba8c64736f6c63430008180033","linkReferences":{}},"methodIdentifiers":{"decimals()":"313ce567","latestRoundData()":"feaf968c","setPrice(int256)":"f7a30806","setUpdatedAt(uint256)":"1ecc7d88"},"id":99}