{"abi":[{"type":"receive","stateMutability":"payable"},{"type":"function","name":"ADMIN_ROLE","inputs":[],"outputs":[{"name":"","type":"bytes32","internalType":"bytes32"}],"stateMutability":"view"},{"type":"function","name":"DEFAULT_ADMIN_ROLE","inputs":[],"outputs":[{"name":"","type":"bytes32","internalType":"bytes32"}],"stateMutability":"view"},{"type":"function","name":"UPGRADER_ROLE","inputs":[],"outputs":[{"name":"","type":"bytes32","internalType":"bytes32"}],"stateMutability":"view"},{"type":"function","name":"UPGRADE_INTERFACE_VERSION","inputs":[],"outputs":[{"name":"","type":"string","internalType":"string"}],"stateMutability":"view"},{"type":"function","name":"depositEth","inputs":[],"outputs":[],"stateMutability":"payable"},{"type":"function","name":"depositToken","inputs":[{"name":"token","type":"address","internalType":"address"},{"name":"amount","type":"uint256","internalType":"uint256"}],"outputs":[],"stateMutability":"nonpayable"},{"type":"function","name":"ethBalance","inputs":[],"outputs":[{"name":"","type":"uint256","internalType":"uint256"}],"stateMutability":"view"},{"type":"function","name":"ethDeposits","inputs":[{"name":"","type":"address","internalType":"address"}],"outputs":[{"name":"","type":"uint256","internalType":"uint256"}],"stateMutability":"view"},{"type":"function","name":"getRoleAdmin","inputs":[{"name":"role","type":"bytes32","internalType":"bytes32"}],"outputs":[{"name":"","type":"bytes32","internalType":"bytes32"}],"stateMutability":"view"},{"type":"function","name":"grantRole","inputs":[{"name":"role","type":"bytes32","internalType":"bytes32"},{"name":"account","type":"address","internalType":"address"}],"outputs":[],"stateMutability":"nonpayable"},{"type":"function","name":"hasRole","inputs":[{"name":"role","type":"bytes32","internalType":"bytes32"},{"name":"account","type":"address","internalType":"address"}],"outputs":[{"name":"","type":"bool","internalType":"bool"}],"stateMutability":"view"},{"type":"function","name":"initialize","inputs":[{"name":"admin","type":"address","internalType":"address"}],"outputs":[],"stateMutability":"nonpayable"},{"type":"function","name":"proxiableUUID","inputs":[],"outputs":[{"name":"","type":"bytes32","internalType":"bytes32"}],"stateMutability":"view"},{"type":"function","name":"renounceRole","inputs":[{"name":"role","type":"bytes32","internalType":"bytes32"},{"name":"callerConfirmation","type":"address","internalType":"address"}],"outputs":[],"stateMutability":"nonpayable"},{"type":"function","name":"revokeRole","inputs":[{"name":"role","type":"bytes32","internalType":"bytes32"},{"name":"account","type":"address","internalType":"address"}],"outputs":[],"stateMutability":"nonpayable"},{"type":"function","name":"supportsInterface","inputs":[{"name":"interfaceId","type":"bytes4","internalType":"bytes4"}],"outputs":[{"name":"","type":"bool","internalType":"bool"}],"stateMutability":"view"},{"type":"function","name":"tokenBalance","inputs":[{"name":"token","type":"address","internalType":"address"}],"outputs":[{"name":"","type":"uint256","internalType":"uint256"}],"stateMutability":"view"},{"type":"function","name":"tokenDeposits","inputs":[{"name":"","type":"address","internalType":"address"},{"name":"","type":"address","internalType":"address"}],"outputs":[{"name":"","type":"uint256","internalType":"uint256"}],"stateMutability":"view"},{"type":"function","name":"totalEthReceived","inputs":[],"outputs":[{"name":"","type":"uint256","internalType":"uint256"}],"stateMutability":"view"},{"type":"function","name":"totalEthWithdrawn","inputs":[],"outputs":[{"name":"","type":"uint256","internalType":"uint256"}],"stateMutability":"view"},{"type":"function","name":"totalTokenDeposits","inputs":[{"name":"","type":"address","internalType":"address"}],"outputs":[{"name":"","type":"uint256","internalType":"uint256"}],"stateMutability":"view"},{"type":"function","name":"upgradeToAndCall","inputs":[{"name":"newImplementation","type":"address","internalType":"address"},{"name":"data","type":"bytes","internalType":"bytes"}],"outputs":[],"stateMutability":"payable"},{"type":"function","name":"withdrawEth","inputs":[{"name":"recipient","type":"address","internalType":"address payable"},{"name":"amount","type":"uint256","internalType":"uint256"}],"outputs":[],"stateMutability":"nonpayable"},{"type":"function","name":"withdrawToken","inputs":[{"name":"token","type":"address","internalType":"address"},{"name":"recipient","type":"address","internalType":"address"},{"name":"amount","type":"uint256","internalType":"uint256"}],"outputs":[],"stateMutability":"nonpayable"},{"type":"event","name":"EthDeposited","inputs":[{"name":"depositor","type":"address","indexed":true,"internalType":"address"},{"name":"amount","type":"uint256","indexed":false,"internalType":"uint256"},{"name":"newTotal","type":"uint256","indexed":false,"internalType":"uint256"}],"anonymous":false},{"type":"event","name":"EthWithdrawn","inputs":[{"name":"recipient","type":"address","indexed":true,"internalType":"address"},{"name":"amount","type":"uint256","indexed":false,"internalType":"uint256"}],"anonymous":false},{"type":"event","name":"Initialized","inputs":[{"name":"version","type":"uint64","indexed":false,"internalType":"uint64"}],"anonymous":false},{"type":"event","name":"RoleAdminChanged","inputs":[{"name":"role","type":"bytes32","indexed":true,"internalType":"bytes32"},{"name":"previousAdminRole","type":"bytes32","indexed":true,"internalType":"bytes32"},{"name":"newAdminRole","type":"bytes32","indexed":true,"internalType":"bytes32"}],"anonymous":false},{"type":"event","name":"RoleGranted","inputs":[{"name":"role","type":"bytes32","indexed":true,"internalType":"bytes32"},{"name":"account","type":"address","indexed":true,"internalType":"address"},{"name":"sender","type":"address","indexed":true,"internalType":"address"}],"anonymous":false},{"type":"event","name":"RoleRevoked","inputs":[{"name":"role","type":"bytes32","indexed":true,"internalType":"bytes32"},{"name":"account","type":"address","indexed":true,"internalType":"address"},{"name":"sender","type":"address","indexed":true,"internalType":"address"}],"anonymous":false},{"type":"event","name":"TokenDeposited","inputs":[{"name":"token","type":"address","indexed":true,"internalType":"address"},{"name":"depositor","type":"address","indexed":true,"internalType":"address"},{"name":"amount","type":"uint256","indexed":false,"internalType":"uint256"}],"anonymous":false},{"type":"event","name":"TokenWithdrawn","inputs":[{"name":"token","type":"address","indexed":true,"internalType":"address"},{"name":"recipient","type":"address","indexed":true,"internalType":"address"},{"name":"amount","type":"uint256","indexed":false,"internalType":"uint256"}],"anonymous":false},{"type":"event","name":"Upgraded","inputs":[{"name":"implementation","type":"address","indexed":true,"internalType":"address"}],"anonymous":false},{"type":"event","name":"Upgraded","inputs":[{"name":"newImplementation","type":"address","indexed":true,"internalType":"address"}],"anonymous":false},{"type":"error","name":"AccessControlBadConfirmation","inputs":[]},{"type":"error","name":"AccessControlUnauthorizedAccount","inputs":[{"name":"account","type":"address","internalType":"address"},{"name":"neededRole","type":"bytes32","internalType":"bytes32"}]},{"type":"error","name":"AddressEmptyCode","inputs":[{"name":"target","type":"address","internalType":"address"}]},{"type":"error","name":"ERC1967InvalidImplementation","inputs":[{"name":"implementation","type":"address","internalType":"address"}]},{"type":"error","name":"ERC1967NonPayable","inputs":[]},{"type":"error","name":"EthTransferFailed","inputs":[]},{"type":"error","name":"FailedCall","inputs":[]},{"type":"error","name":"InsufficientEthBalance","inputs":[{"name":"available","type":"uint256","internalType":"uint256"},{"name":"requested","type":"uint256","internalType":"uint256"}]},{"type":"error","name":"InsufficientTokenBalance","inputs":[{"name":"token","type":"address","internalType":"address"},{"name":"available","type":"uint256","internalType":"uint256"},{"name":"requested","type":"uint256","internalType":"uint256"}]},{"type":"error","name":"InvalidInitialization","inputs":[]},{"type":"error","name":"NotInitializing","inputs":[]},{"type":"error","name":"ReentrancyGuardReentrantCall","inputs":[]},{"type":"error","name":"SafeERC20FailedOperation","inputs":[{"name":"token","type":"address","internalType":"address"}]},{"type":"error","name":"UUPSUnauthorizedCallContext","inputs":[]},{"type":"error","name":"UUPSUnsupportedProxiableUUID","inputs":[{"name":"slot","type":"bytes32","internalType":"bytes32"}]},{"type":"error","name":"ZeroAddress","inputs":[]},{"type":"error","name":"ZeroAmount","inputs":[]}],"bytecode":{"object":"0x60a060405230608052348015610013575f80fd5b5060017f9b779b17422d0df92223018b32b4d1fa46e071723d6817e2486d003becc55f00556080516116d461005e5f395f8181610e4901528181610e72015261100a01526116d45ff3fe60806040526004361061014a575f3560e01c806352d1902d116100b3578063ad3cb1cc1161006d578063ad3cb1cc14610378578063b9d1ed4a146103b5578063c4d66de8146103e0578063d547741f146103ff578063eedc966a1461041e578063f72c0d8b1461043d575f80fd5b806352d1902d146102d35780635f4f3f23146102e757806375b238fc1461031257806391d1485414610332578063a217fddf14610351578063a9a18dda14610364575f80fd5b806336568abe1161010457806336568abe1461023c5780633add04541461025b5780633c52b41514610291578063439370b1146102a65780634e6630b0146102ae5780634f1ef286146102c0575f80fd5b806301e336671461015f57806301ffc9a71461017e5780631b9a91a4146101b2578063248a9ca3146101d15780632f2ff15d146101fe578063338b5dea1461021d575f80fd5b3661015b576101593334610470565b005b5f80fd5b34801561016a575f80fd5b506101596101793660046113a8565b610523565b348015610189575f80fd5b5061019d6101983660046113e6565b6106c4565b60405190151581526020015b60405180910390f35b3480156101bd575f80fd5b506101596101cc366004611414565b6106fa565b3480156101dc575f80fd5b506101f06101eb36600461143e565b610871565b6040519081526020016101a9565b348015610209575f80fd5b50610159610218366004611455565b610891565b348015610228575f80fd5b50610159610237366004611414565b6108ad565b348015610247575f80fd5b50610159610256366004611455565b6109ce565b348015610266575f80fd5b506101f0610275366004611483565b600360209081525f928352604080842090915290825290205481565b34801561029c575f80fd5b506101f060015481565b610159610a01565b3480156102b9575f80fd5b50476101f0565b6101596102ce3660046114c3565b610a2d565b3480156102de575f80fd5b506101f0610a48565b3480156102f2575f80fd5b506101f0610301366004611581565b60046020525f908152604090205481565b34801561031d575f80fd5b506101f05f8051602061167f83398151915281565b34801561033d575f80fd5b5061019d61034c366004611455565b610a63565b34801561035c575f80fd5b506101f05f81565b34801561036f575f80fd5b506101f05f5481565b348015610383575f80fd5b506103a8604051806040016040528060058152602001640352e302e360dc1b81525081565b6040516101a9919061159c565b3480156103c0575f80fd5b506101f06103cf366004611581565b60026020525f908152604090205481565b3480156103eb575f80fd5b506101596103fa366004611581565b610a99565b34801561040a575f80fd5b50610159610419366004611455565b610c06565b348015610429575f80fd5b506101f0610438366004611581565b610c22565b348015610448575f80fd5b506101f07f189ab7a9244df0848122154315af71fe140f3db0fe014031783b0946b8c9d2e381565b805f0361049057604051631f2a200560e01b815260040160405180910390fd5b6001600160a01b0382165f90815260026020526040812080548392906104b79084906115e8565b92505081905550805f808282546104ce91906115e8565b90915550505f546040516001600160a01b038416917f3f7db3ccdc06492eb9fcca5fe34fcee7f7ddcca331e5053cb3534067b9a532329161051791858252602082015260400190565b60405180910390a25050565b5f8051602061167f83398151915261053a81610c8a565b610542610c97565b815f0361056257604051631f2a200560e01b815260040160405180910390fd5b6001600160a01b038416158061057f57506001600160a01b038316155b1561059d5760405163d92e233d60e01b815260040160405180910390fd5b6040516370a0823160e01b81523060048201525f906001600160a01b038616906370a0823190602401602060405180830381865afa1580156105e1573d5f803e3d5ffd5b505050506040513d601f19601f820116820180604052508101906106059190611607565b9050828110156106465760405163ebd6ced960e01b81526001600160a01b038616600482015260248101829052604481018490526064015b60405180910390fd5b61065a6001600160a01b0386168585610cb2565b836001600160a01b0316856001600160a01b03167f8210728e7c071f615b840ee026032693858fbcd5e5359e67e438c890f59e56208560405161069f91815260200190565b60405180910390a3506106be60015f8051602061165f83398151915255565b50505050565b5f6001600160e01b03198216637965db0b60e01b14806106f457506301ffc9a760e01b6001600160e01b03198316145b92915050565b5f8051602061167f83398151915261071181610c8a565b610719610c97565b815f0361073957604051631f2a200560e01b815260040160405180910390fd5b6001600160a01b0383166107605760405163d92e233d60e01b815260040160405180910390fd5b478281101561078c57604051635c4a8f5560e01b8152600481018290526024810184905260440161063d565b8260015f82825461079d91906115e8565b90915550506040515f906001600160a01b0386169085908381818185875af1925050503d805f81146107ea576040519150601f19603f3d011682016040523d82523d5f602084013e6107ef565b606091505b505090508061081157604051630db2c7f160e31b815260040160405180910390fd5b846001600160a01b03167f8455ae6be5d92f1df1c3c1484388e247a36c7e60d72055ae216dbc258f257d4b8560405161084c91815260200190565b60405180910390a2505061086c60015f8051602061165f83398151915255565b505050565b5f9081525f8051602061163f833981519152602052604090206001015490565b61089a82610871565b6108a381610c8a565b6106be8383610ce7565b6108b5610c97565b805f036108d557604051631f2a200560e01b815260040160405180910390fd5b6001600160a01b0382166108fc5760405163d92e233d60e01b815260040160405180910390fd5b6109116001600160a01b038316333084610d8f565b335f9081526003602090815260408083206001600160a01b0386168452909152812080548392906109439084906115e8565b90915550506001600160a01b0382165f908152600460205260408120805483929061096f9084906115e8565b909155505060405181815233906001600160a01b038416907ff1444b5cad7ce70cb018d1b8edc8618fe303f3c7f034d8d572a6e27facbf2bef9060200160405180910390a36109ca60015f8051602061165f83398151915255565b5050565b6001600160a01b03811633146109f75760405163334bd91960e11b815260040160405180910390fd5b61086c8282610dc5565b345f03610a2157604051631f2a200560e01b815260040160405180910390fd5b610a2b3334610470565b565b610a35610e3e565b610a3e82610ee2565b6109ca8282610f43565b5f610a51610fff565b505f8051602061161f83398151915290565b5f9182525f8051602061163f833981519152602090815260408084206001600160a01b0393909316845291905290205460ff1690565b5f610aa2611048565b805490915060ff600160401b820416159067ffffffffffffffff165f81158015610ac95750825b90505f8267ffffffffffffffff166001148015610ae55750303b155b905081158015610af3575080155b15610b115760405163f92ee8a960e01b815260040160405180910390fd5b845467ffffffffffffffff191660011785558315610b3b57845460ff60401b1916600160401b1785555b6001600160a01b038616610b625760405163d92e233d60e01b815260040160405180910390fd5b610b6a611070565b610b745f87610ce7565b50610b8c5f8051602061167f83398151915287610ce7565b50610bb77f189ab7a9244df0848122154315af71fe140f3db0fe014031783b0946b8c9d2e387610ce7565b508315610bfe57845460ff60401b19168555604051600181527fc7f505b2f371ae2175ee4913f4499e1f2633a7b5936321eed1cdaeb6115181d29060200160405180910390a15b505050505050565b610c0f82610871565b610c1881610c8a565b6106be8383610dc5565b6040516370a0823160e01b81523060048201525f906001600160a01b038316906370a0823190602401602060405180830381865afa158015610c66573d5f803e3d5ffd5b505050506040513d601f19601f820116820180604052508101906106f49190611607565b610c948133611078565b50565b610c9f6110b1565b60025f8051602061165f83398151915255565b610cbf83838360016110e0565b61086c57604051635274afe760e01b81526001600160a01b038416600482015260240161063d565b5f5f8051602061163f833981519152610d008484610a63565b610d7f575f848152602082815260408083206001600160a01b03871684529091529020805460ff19166001179055610d353390565b6001600160a01b0316836001600160a01b0316857f2f8788117e7eff1d82e926ec794901d17c78024a50270940304540a733656f0d60405160405180910390a460019150506106f4565b5f9150506106f4565b5092915050565b610d9d848484846001611142565b6106be57604051635274afe760e01b81526001600160a01b038516600482015260240161063d565b5f5f8051602061163f833981519152610dde8484610a63565b15610d7f575f848152602082815260408083206001600160a01b0387168085529252808320805460ff1916905551339287917ff6391f5c32d9c69d2a47ea670b442974b53935d1edc7fd64eb21e047a839171b9190a460019150506106f4565b306001600160a01b037f0000000000000000000000000000000000000000000000000000000000000000161480610ec457507f00000000000000000000000000000000000000000000000000000000000000006001600160a01b0316610eb85f8051602061161f833981519152546001600160a01b031690565b6001600160a01b031614155b15610a2b5760405163703e46dd60e11b815260040160405180910390fd5b7f189ab7a9244df0848122154315af71fe140f3db0fe014031783b0946b8c9d2e3610f0c81610c8a565b6040516001600160a01b038316907fbc7cd75a20ee27fd9adebab32041f755214dbc6bffa90cc0225b39da2e5c2d3b905f90a25050565b816001600160a01b03166352d1902d6040518163ffffffff1660e01b8152600401602060405180830381865afa925050508015610f9d575060408051601f3d908101601f19168201909252610f9a91810190611607565b60015b610fc557604051634c9c8ce360e01b81526001600160a01b038316600482015260240161063d565b5f8051602061161f8339815191528114610ff557604051632a87526960e21b81526004810182905260240161063d565b61086c83836111af565b306001600160a01b037f00000000000000000000000000000000000000000000000000000000000000001614610a2b5760405163703e46dd60e11b815260040160405180910390fd5b5f807ff0c57e16840df040f15088dc2f81fe391c3923bec73e23a9662efc9c229c6a006106f4565b610a2b611204565b6110828282610a63565b6109ca5760405163e2517d3f60e01b81526001600160a01b03821660048201526024810183905260440161063d565b5f8051602061165f83398151915254600203610a2b57604051633ee5aeb560e01b815260040160405180910390fd5b60405163a9059cbb60e01b5f8181526001600160a01b038616600452602485905291602083604481808b5af1925060015f5114831661113657838315161561112a573d5f823e3d81fd5b5f873b113d1516831692505b60405250949350505050565b6040516323b872dd60e01b5f8181526001600160a01b038781166004528616602452604485905291602083606481808c5af1925060015f5114831661119e578383151615611192573d5f823e3d81fd5b5f883b113d1516831692505b604052505f60605295945050505050565b6111b882611229565b6040516001600160a01b038316907fbc7cd75a20ee27fd9adebab32041f755214dbc6bffa90cc0225b39da2e5c2d3b905f90a28051156111fc5761086c828261128c565b6109ca611325565b61120c611344565b610a2b57604051631afcd79f60e31b815260040160405180910390fd5b806001600160a01b03163b5f0361125e57604051634c9c8ce360e01b81526001600160a01b038216600482015260240161063d565b5f8051602061161f83398151915280546001600160a01b0319166001600160a01b0392909216919091179055565b60605f611299848461135d565b90508080156112ba57505f3d11806112ba57505f846001600160a01b03163b115b156112cf576112c7611370565b9150506106f4565b80156112f957604051639996b31560e01b81526001600160a01b038516600482015260240161063d565b3d1561130c57611307611389565b610d88565b60405163d6bda27560e01b815260040160405180910390fd5b3415610a2b5760405163b398979f60e01b815260040160405180910390fd5b5f61134d611048565b54600160401b900460ff16919050565b5f805f835160208501865af49392505050565b6040513d81523d5f602083013e3d602001810160405290565b6040513d5f823e3d81fd5b6001600160a01b0381168114610c94575f80fd5b5f805f606084860312156113ba575f80fd5b83356113c581611394565b925060208401356113d581611394565b929592945050506040919091013590565b5f602082840312156113f6575f80fd5b81356001600160e01b03198116811461140d575f80fd5b9392505050565b5f8060408385031215611425575f80fd5b823561143081611394565b946020939093013593505050565b5f6020828403121561144e575f80fd5b5035919050565b5f8060408385031215611466575f80fd5b82359150602083013561147881611394565b809150509250929050565b5f8060408385031215611494575f80fd5b823561149f81611394565b9150602083013561147881611394565b634e487b7160e01b5f52604160045260245ffd5b5f80604083850312156114d4575f80fd5b82356114df81611394565b9150602083013567ffffffffffffffff808211156114fb575f80fd5b818501915085601f83011261150e575f80fd5b813581811115611520576115206114af565b604051601f8201601f19908116603f01168101908382118183101715611548576115486114af565b81604052828152886020848701011115611560575f80fd5b826020860160208301375f6020848301015280955050505050509250929050565b5f60208284031215611591575f80fd5b813561140d81611394565b5f602080835283518060208501525f5b818110156115c8578581018301518582016040015282016115ac565b505f604082860101526040601f19601f8301168501019250505092915050565b808201808211156106f457634e487b7160e01b5f52601160045260245ffd5b5f60208284031215611617575f80fd5b505191905056fe360894a13ba1a3210667c828492db98dca3e2076cc3735a920a3ca505d382bbc02dd7bc7dec4dceedda775e58dd541e08a116c6c53815c0bd028192f7b6268009b779b17422d0df92223018b32b4d1fa46e071723d6817e2486d003becc55f00a49807205ce4d355092ef5a8a18f56e8913cf4a201fbe287825b095693c21775a2646970667358221220a9d2f4740fb80d438b915acf54001a484f3111092b34aaba6d87b5945ae5454364736f6c63430008180033","linkReferences":{}},"methodIdentifiers":{"ADMIN_ROLE()":"75b238fc","DEFAULT_ADMIN_ROLE()":"a217fddf","UPGRADER_ROLE()":"f72c0d8b","UPGRADE_INTERFACE_VERSION()":"ad3cb1cc","depositEth()":"439370b1","depositToken(address,uint256)":"338b5dea","ethBalance()":"4e6630b0","ethDeposits(address)":"b9d1ed4a","getRoleAdmin(bytes32)":"248a9ca3","grantRole(bytes32,address)":"2f2ff15d","hasRole(bytes32,address)":"91d14854","initialize(address)":"c4d66de8","proxiableUUID()":"52d1902d","renounceRole(bytes32,address)":"36568abe","revokeRole(bytes32,address)":"d547741f","supportsInterface(bytes4)":"01ffc9a7","tokenBalance(address)":"eedc966a","tokenDeposits(address,address)":"3add0454","totalEthReceived()":"a9a18dda","totalEthWithdrawn()":"3c52b415","totalTokenDeposits(address)":"5f4f3f23","upgradeToAndCall(address,bytes)":"4f1ef286","withdrawEth(address,uint256)":"1b9a91a4","withdrawToken(address,address,uint256)":"01e33667"},"id":91}