{"abi":[{"type":"constructor","inputs":[{"name":"_tokenA","type":"address","internalType":"address"},{"name":"_tokenB","type":"address","internalType":"address"}],"stateMutability":"nonpayable"},{"type":"function","name":"LP_TOKEN","inputs":[],"outputs":[{"name":"","type":"address","internalType":"contract LPToken"}],"stateMutability":"view"},{"type":"function","name":"TOKEN_A","inputs":[],"outputs":[{"name":"","type":"address","internalType":"contract IERC20"}],"stateMutability":"view"},{"type":"function","name":"TOKEN_B","inputs":[],"outputs":[{"name":"","type":"address","internalType":"contract IERC20"}],"stateMutability":"view"},{"type":"function","name":"addLiquidity","inputs":[{"name":"amountADesired","type":"uint256","internalType":"uint256"},{"name":"amountBDesired","type":"uint256","internalType":"uint256"},{"name":"amountAMin","type":"uint256","internalType":"uint256"},{"name":"amountBMin","type":"uint256","internalType":"uint256"},{"name":"to","type":"address","internalType":"address"},{"name":"deadline","type":"uint256","internalType":"uint256"}],"outputs":[{"name":"amountA","type":"uint256","internalType":"uint256"},{"name":"amountB","type":"uint256","internalType":"uint256"},{"name":"liquidity","type":"uint256","internalType":"uint256"}],"stateMutability":"nonpayable"},{"type":"function","name":"getAmountOut","inputs":[{"name":"tokenIn","type":"address","internalType":"address"},{"name":"amountIn","type":"uint256","internalType":"uint256"}],"outputs":[{"name":"amountOut","type":"uint256","internalType":"uint256"}],"stateMutability":"view"},{"type":"function","name":"getSpotPrice","inputs":[],"outputs":[{"name":"priceAinB","type":"uint256","internalType":"uint256"},{"name":"priceBinA","type":"uint256","internalType":"uint256"}],"stateMutability":"view"},{"type":"function","name":"removeLiquidity","inputs":[{"name":"lpAmount","type":"uint256","internalType":"uint256"},{"name":"amountAMin","type":"uint256","internalType":"uint256"},{"name":"amountBMin","type":"uint256","internalType":"uint256"},{"name":"to","type":"address","internalType":"address"},{"name":"deadline","type":"uint256","internalType":"uint256"}],"outputs":[{"name":"amountA","type":"uint256","internalType":"uint256"},{"name":"amountB","type":"uint256","internalType":"uint256"}],"stateMutability":"nonpayable"},{"type":"function","name":"reserveA","inputs":[],"outputs":[{"name":"","type":"uint256","internalType":"uint256"}],"stateMutability":"view"},{"type":"function","name":"reserveB","inputs":[],"outputs":[{"name":"","type":"uint256","internalType":"uint256"}],"stateMutability":"view"},{"type":"function","name":"swap","inputs":[{"name":"tokenIn","type":"address","internalType":"address"},{"name":"amountIn","type":"uint256","internalType":"uint256"},{"name":"amountOutMin","type":"uint256","internalType":"uint256"},{"name":"to","type":"address","internalType":"address"},{"name":"deadline","type":"uint256","internalType":"uint256"}],"outputs":[{"name":"amountOut","type":"uint256","internalType":"uint256"}],"stateMutability":"nonpayable"},{"type":"event","name":"LiquidityAdded","inputs":[{"name":"provider","type":"address","indexed":true,"internalType":"address"},{"name":"amountA","type":"uint256","indexed":false,"internalType":"uint256"},{"name":"amountB","type":"uint256","indexed":false,"internalType":"uint256"},{"name":"lpMinted","type":"uint256","indexed":false,"internalType":"uint256"}],"anonymous":false},{"type":"event","name":"LiquidityRemoved","inputs":[{"name":"provider","type":"address","indexed":true,"internalType":"address"},{"name":"lpBurned","type":"uint256","indexed":false,"internalType":"uint256"},{"name":"amountA","type":"uint256","indexed":false,"internalType":"uint256"},{"name":"amountB","type":"uint256","indexed":false,"internalType":"uint256"}],"anonymous":false},{"type":"event","name":"ReservesUpdated","inputs":[{"name":"newReserveA","type":"uint256","indexed":false,"internalType":"uint256"},{"name":"newReserveB","type":"uint256","indexed":false,"internalType":"uint256"}],"anonymous":false},{"type":"event","name":"Swapped","inputs":[{"name":"user","type":"address","indexed":true,"internalType":"address"},{"name":"tokenIn","type":"address","indexed":true,"internalType":"address"},{"name":"amountIn","type":"uint256","indexed":false,"internalType":"uint256"},{"name":"tokenOut","type":"address","indexed":true,"internalType":"address"},{"name":"amountOut","type":"uint256","indexed":false,"internalType":"uint256"}],"anonymous":false},{"type":"error","name":"DeadlineExpired","inputs":[{"name":"deadline","type":"uint256","internalType":"uint256"},{"name":"current","type":"uint256","internalType":"uint256"}]},{"type":"error","name":"InsufficientLiquidity","inputs":[]},{"type":"error","name":"InsufficientLiquidityMinted","inputs":[]},{"type":"error","name":"InvalidToken","inputs":[{"name":"token","type":"address","internalType":"address"}]},{"type":"error","name":"ReentrancyGuardReentrantCall","inputs":[]},{"type":"error","name":"SafeERC20FailedOperation","inputs":[{"name":"token","type":"address","internalType":"address"}]},{"type":"error","name":"SlippageExceeded","inputs":[{"name":"received","type":"uint256","internalType":"uint256"},{"name":"minimum","type":"uint256","internalType":"uint256"}]},{"type":"error","name":"ZeroAmount","inputs":[]}],"bytecode":{"object":"0x60e060405234801562000010575f80fd5b50604051620023dc380380620023dc833981016040819052620000339162000122565b60017f9b779b17422d0df92223018b32b4d1fa46e071723d6817e2486d003becc55f00556001600160a01b03808316608052811660a05260405130906200007a90620000f8565b6060808252600c908201526b20a6a6902628102a37b5b2b760a11b608082015260a060208201819052600390820152620414c560ec1b60c08201526001600160a01b03909116604082015260e001604051809103905ff080158015620000e2573d5f803e3d5ffd5b506001600160a01b031660c05250620001589050565b610f9d806200143f83390190565b80516001600160a01b03811681146200011d575f80fd5b919050565b5f806040838503121562000134575f80fd5b6200013f8362000106565b91506200014f6020840162000106565b90509250929050565b60805160a05160c051611254620001eb5f395f81816101120152818161074c0152818161087301528181610be601528181610cad0152610d9001525f818160c001528181610266015281816102fe0152818161047b01528181610634015261093101525f81816101b20152818161022e015281816102d301528181610443015281816105ff01526108fd01526112545ff3fe608060405234801561000f575f80fd5b506004361061009b575f3560e01c8063dc5fa6c511610063578063dc5fa6c514610147578063dc76fabc1461014f578063ded998b91461016c578063ed856cdc1461019a578063ff709ee8146101ad575f80fd5b806319e36f3b1461009f578063499f712e146100bb578063acf0ae03146100fa578063bfd9041b1461010d578063ca706bcf14610134575b5f80fd5b6100a860015481565b6040519081526020015b60405180910390f35b6100e27f000000000000000000000000000000000000000000000000000000000000000081565b6040516001600160a01b0390911681526020016100b2565b6100a8610108366004611072565b6101d4565b6100e27f000000000000000000000000000000000000000000000000000000000000000081565b6100a86101423660046110bc565b610440565b6100a85f5481565b610157610509565b604080519283526020830191909152016100b2565b61017f61017a3660046110e4565b610583565b604080519384526020840192909252908201526060016100b2565b6101576101a8366004611131565b6106f5565b6100e27f000000000000000000000000000000000000000000000000000000000000000081565b5f6101dd6109c5565b8142111561020c576040516302a07ebf60e31b8152600481018390524260248201526044015b60405180910390fd5b845f0361022c57604051631f2a200560e01b815260040160405180910390fd5b7f00000000000000000000000000000000000000000000000000000000000000006001600160a01b039081169087161480158161029b57507f00000000000000000000000000000000000000000000000000000000000000006001600160a01b0316876001600160a01b031614155b156102c45760405163961c9a4f60e01b81526001600160a01b0388166004820152602401610203565b5f805f836102f7576001545f547f000000000000000000000000000000000000000000000000000000000000000061031e565b5f546001547f00000000000000000000000000000000000000000000000000000000000000005b92509250925061032f8984846109e0565b94508785101561035c576040516371c4efed60e01b81526004810186905260248101899052604401610203565b6103716001600160a01b038b1633308c610a55565b6103856001600160a01b0382168887610a91565b6103d28461039f57855f5461039a9190611177565b6103ac565b895f546103ac919061118a565b856103c4578a6001546103bf919061118a565b610acb565b866001546103bf9190611177565b604080518a8152602081018790526001600160a01b0380841692908d169133917f692315744755ee6d80decaeb993d4b1bb95ff5db042cc47b32d5a7d858b01902910160405180910390a45050505061043760015f805160206111ff83398151915255565b95945050505050565b5f7f00000000000000000000000000000000000000000000000000000000000000006001600160a01b03908116908416148015816104b057507f00000000000000000000000000000000000000000000000000000000000000006001600160a01b0316846001600160a01b031614155b156104d95760405163961c9a4f60e01b81526001600160a01b0385166004820152602401610203565b5f80826104ea576001545f546104f0565b5f546001545b915091506104ff8583836109e0565b9695505050505050565b5f805f545f148061051a5750600154155b156105385760405163bb55fd2760e01b815260040160405180910390fd5b5f5460015461054f90670de0b6b3a764000061119d565b61055991906111c8565b91506001545f54670de0b6b3a7640000610573919061119d565b61057d91906111c8565b90509091565b5f805f61058e6109c5565b834211156105b8576040516302a07ebf60e31b815260048101859052426024820152604401610203565b8815806105c3575087155b156105e157604051631f2a200560e01b815260040160405180910390fd5b6105ed89898989610b11565b90935091506106276001600160a01b037f000000000000000000000000000000000000000000000000000000000000000016333086610a55565b61065c6001600160a01b037f000000000000000000000000000000000000000000000000000000000000000016333085610a55565b610667858484610be2565b9050610687835f54610679919061118a565b836001546103bf919061118a565b60408051848152602081018490529081018290526001600160a01b038616907f64b83944e79c3ce8d4c297411de637c3e102d064677aac0c163976ebdcd6f50e9060600160405180910390a26106e960015f805160206111ff83398151915255565b96509650969350505050565b5f806106ff6109c5565b82421115610729576040516302a07ebf60e31b815260048101849052426024820152604401610203565b865f0361074957604051631f2a200560e01b815260040160405180910390fd5b5f7f00000000000000000000000000000000000000000000000000000000000000006001600160a01b03166318160ddd6040518163ffffffff1660e01b8152600401602060405180830381865afa1580156107a6573d5f803e3d5ffd5b505050506040513d601f19601f820116820180604052508101906107ca91906111e7565b9050805f54896107da919061119d565b6107e491906111c8565b925080600154896107f5919061119d565b6107ff91906111c8565b91508683101561082c576040516371c4efed60e01b81526004810184905260248101889052604401610203565b85821015610857576040516371c4efed60e01b81526004810183905260248101879052604401610203565b604051632770a7eb60e21b8152336004820152602481018990527f00000000000000000000000000000000000000000000000000000000000000006001600160a01b031690639dc29fac906044015f604051808303815f87803b1580156108bc575f80fd5b505af11580156108ce573d5f803e3d5ffd5b505050506108f0835f546108e29190611177565b836001546103bf9190611177565b6109246001600160a01b037f0000000000000000000000000000000000000000000000000000000000000000168685610a91565b6109586001600160a01b037f0000000000000000000000000000000000000000000000000000000000000000168684610a91565b60408051898152602081018590529081018390526001600160a01b038616907f1dc8bb69df2b8e91fbdcbfcf93d951b3f0000f085a95fe3f7946d6161439245d9060600160405180910390a2506109bb60015f805160206111ff83398151915255565b9550959350505050565b6109cd610def565b60025f805160206111ff83398151915255565b5f8215806109ec575081155b15610a0a5760405163bb55fd2760e01b815260040160405180910390fd5b5f610a176103e58661119d565b90505f610a24848361119d565b90505f82610a346103e88861119d565b610a3e919061118a565b9050610a4a81836111c8565b979650505050505050565b610a63848484846001610e20565b610a8b57604051635274afe760e01b81526001600160a01b0385166004820152602401610203565b50505050565b610a9e8383836001610e8d565b610ac657604051635274afe760e01b81526001600160a01b0384166004820152602401610203565b505050565b5f829055600181905560408051838152602081018390527f5141ecc84a35c12ca2bf76bb33d393bd2fc22f906da0743534beef4ae63c6c8e910160405180910390a15050565b5f805f545f148015610b235750600154155b15610b32575084905083610bd9565b5f8054600154610b42908961119d565b610b4c91906111c8565b9050858111610b8a5783811015610b80576040516371c4efed60e01b81526004810182905260248101859052604401610203565b8692509050610bd9565b5f6001545f5488610b9b919061119d565b610ba591906111c8565b905085811015610bd2576040516371c4efed60e01b81526004810182905260248101879052604401610203565b9250859150505b94509492505050565b5f807f00000000000000000000000000000000000000000000000000000000000000006001600160a01b03166318160ddd6040518163ffffffff1660e01b8152600401602060405180830381865afa158015610c40573d5f803e3d5ffd5b505050506040513d601f19601f82011682018060405250810190610c6491906111e7565b9050805f03610d11576103e8610c82610c7d858761119d565b610eef565b610c8c9190611177565b6040516340c10f1960e01b8152600160048201526103e860248201529092507f00000000000000000000000000000000000000000000000000000000000000006001600160a01b0316906340c10f19906044015f604051808303815f87803b158015610cf6575f80fd5b505af1158015610d08573d5f803e3d5ffd5b50505050610d4a565b5f54610d4790610d21838761119d565b610d2b91906111c8565b600154610d38848761119d565b610d4291906111c8565b611047565b91505b815f03610d6a57604051633489be7560e21b815260040160405180910390fd5b6040516340c10f1960e01b81526001600160a01b038681166004830152602482018490527f000000000000000000000000000000000000000000000000000000000000000016906340c10f19906044015f604051808303815f87803b158015610dd1575f80fd5b505af1158015610de3573d5f803e3d5ffd5b50505050509392505050565b5f805160206111ff83398151915254600203610e1e57604051633ee5aeb560e01b815260040160405180910390fd5b565b6040516323b872dd60e01b5f8181526001600160a01b038781166004528616602452604485905291602083606481808c5af1925060015f51148316610e7c578383151615610e70573d5f823e3d81fd5b5f883b113d1516831692505b604052505f60605295945050505050565b60405163a9059cbb60e01b5f8181526001600160a01b038616600452602485905291602083604481808b5af1925060015f51148316610ee3578383151615610ed7573d5f823e3d81fd5b5f873b113d1516831692505b60405250949350505050565b5f60018211610efc575090565b816001600160801b8210610f155760809190911c9060401b5b680100000000000000008210610f305760409190911c9060201b5b6401000000008210610f475760209190911c9060101b5b620100008210610f5c5760109190911c9060081b5b6101008210610f705760089190911c9060041b5b60108210610f835760049190911c9060021b5b60048210610f8f5760011b5b600302600190811c90818581610fa757610fa76111b4565b048201901c90506001818581610fbf57610fbf6111b4565b048201901c90506001818581610fd757610fd76111b4565b048201901c90506001818581610fef57610fef6111b4565b048201901c90506001818581611007576110076111b4565b048201901c9050600181858161101f5761101f6111b4565b048201901c905061103e818581611038576110386111b4565b04821190565b90039392505050565b8082108183180281185b92915050565b80356001600160a01b038116811461106d575f80fd5b919050565b5f805f805f60a08688031215611086575f80fd5b61108f86611057565b945060208601359350604086013592506110ab60608701611057565b949793965091946080013592915050565b5f80604083850312156110cd575f80fd5b6110d683611057565b946020939093013593505050565b5f805f805f8060c087890312156110f9575f80fd5b8635955060208701359450604087013593506060870135925061111e60808801611057565b915060a087013590509295509295509295565b5f805f805f60a08688031215611145575f80fd5b8535945060208601359350604086013592506110ab60608701611057565b634e487b7160e01b5f52601160045260245ffd5b8181038181111561105157611051611163565b8082018082111561105157611051611163565b808202811582820484141761105157611051611163565b634e487b7160e01b5f52601260045260245ffd5b5f826111e257634e487b7160e01b5f52601260045260245ffd5b500490565b5f602082840312156111f7575f80fd5b505191905056fe9b779b17422d0df92223018b32b4d1fa46e071723d6817e2486d003becc55f00a2646970667358221220cc68d0db4b8cf7bdf81cc41aeaa4495ff967b6ebd0d24720617b8c00862d0d9664736f6c63430008180033608060405234801562000010575f80fd5b5060405162000f9d38038062000f9d83398101604081905262000033916200020b565b828260036200004383826200031c565b5060046200005282826200031c565b506200006391505f9050826200009a565b50620000907f9f2df0fed2c77648de5860a4cc508cd0818c85b8b8a1ab4ceeef8d981c8956a6826200009a565b50505050620003e8565b5f8281526005602090815260408083206001600160a01b038516845290915281205460ff1662000141575f8381526005602090815260408083206001600160a01b03861684529091529020805460ff19166001179055620000f83390565b6001600160a01b0316826001600160a01b0316847f2f8788117e7eff1d82e926ec794901d17c78024a50270940304540a733656f0d60405160405180910390a450600162000144565b505f5b92915050565b634e487b7160e01b5f52604160045260245ffd5b5f82601f8301126200016e575f80fd5b81516001600160401b03808211156200018b576200018b6200014a565b604051601f8301601f19908116603f01168101908282118183101715620001b657620001b66200014a565b8160405283815260209250866020858801011115620001d3575f80fd5b5f91505b83821015620001f65785820183015181830184015290820190620001d7565b5f602085830101528094505050505092915050565b5f805f606084860312156200021e575f80fd5b83516001600160401b038082111562000235575f80fd5b62000243878388016200015e565b9450602086015191508082111562000259575f80fd5b5062000268868287016200015e565b604086015190935090506001600160a01b038116811462000287575f80fd5b809150509250925092565b600181811c90821680620002a757607f821691505b602082108103620002c657634e487b7160e01b5f52602260045260245ffd5b50919050565b601f8211156200031757805f5260205f20601f840160051c81016020851015620002f35750805b601f840160051c820191505b8181101562000314575f8155600101620002ff565b50505b505050565b81516001600160401b038111156200033857620003386200014a565b620003508162000349845462000292565b84620002cc565b602080601f83116001811462000386575f84156200036e5750858301515b5f19600386901b1c1916600185901b178555620003e0565b5f85815260208120601f198616915b82811015620003b65788860151825594840194600190910190840162000395565b5085821015620003d457878501515f19600388901b60f8161c191681555b505060018460011b0185555b505050505050565b610ba780620003f65f395ff3fe608060405234801561000f575f80fd5b506004361061011c575f3560e01c806340c10f19116100a9578063a217fddf1161006e578063a217fddf14610257578063a9059cbb1461025e578063d539139314610271578063d547741f14610298578063dd62ed3e146102ab575f80fd5b806340c10f19146101ee57806370a082311461020157806391d148541461022957806395d89b411461023c5780639dc29fac14610244575f80fd5b806323b872dd116100ef57806323b872dd14610182578063248a9ca3146101955780632f2ff15d146101b7578063313ce567146101cc57806336568abe146101db575f80fd5b806301ffc9a71461012057806306fdde0314610148578063095ea7b31461015d57806318160ddd14610170575b5f80fd5b61013361012e3660046109a2565b6102e3565b60405190151581526020015b60405180910390f35b610150610319565b60405161013f91906109d0565b61013361016b366004610a37565b6103a9565b6002545b60405190815260200161013f565b610133610190366004610a5f565b6103c0565b6101746101a3366004610a98565b5f9081526005602052604090206001015490565b6101ca6101c5366004610aaf565b6103e3565b005b6040516012815260200161013f565b6101ca6101e9366004610aaf565b61040d565b6101ca6101fc366004610a37565b610445565b61017461020f366004610ad9565b6001600160a01b03165f9081526020819052604090205490565b610133610237366004610aaf565b610479565b6101506104a3565b6101ca610252366004610a37565b6104b2565b6101745f81565b61013361026c366004610a37565b6104e6565b6101747f9f2df0fed2c77648de5860a4cc508cd0818c85b8b8a1ab4ceeef8d981c8956a681565b6101ca6102a6366004610aaf565b6104f3565b6101746102b9366004610af2565b6001600160a01b039182165f90815260016020908152604080832093909416825291909152205490565b5f6001600160e01b03198216637965db0b60e01b148061031357506301ffc9a760e01b6001600160e01b03198316145b92915050565b60606003805461032890610b1a565b80601f016020809104026020016040519081016040528092919081815260200182805461035490610b1a565b801561039f5780601f106103765761010080835404028352916020019161039f565b820191905f5260205f20905b81548152906001019060200180831161038257829003601f168201915b5050505050905090565b5f336103b6818585610517565b5060019392505050565b5f336103cd858285610524565b6103d885858561059f565b506001949350505050565b5f828152600560205260409020600101546103fd816105fc565b6104078383610609565b50505050565b6001600160a01b03811633146104365760405163334bd91960e11b815260040160405180910390fd5b610440828261069a565b505050565b7f9f2df0fed2c77648de5860a4cc508cd0818c85b8b8a1ab4ceeef8d981c8956a661046f816105fc565b6104408383610705565b5f9182526005602090815260408084206001600160a01b0393909316845291905290205460ff1690565b60606004805461032890610b1a565b7f9f2df0fed2c77648de5860a4cc508cd0818c85b8b8a1ab4ceeef8d981c8956a66104dc816105fc565b610440838361073d565b5f336103b681858561059f565b5f8281526005602052604090206001015461050d816105fc565b610407838361069a565b6104408383836001610771565b6001600160a01b038381165f908152600160209081526040808320938616835292905220545f19811015610407578181101561059157604051637dc7a0d960e11b81526001600160a01b038416600482015260248101829052604481018390526064015b60405180910390fd5b61040784848484035f610771565b6001600160a01b0383166105c857604051634b637e8f60e11b81525f6004820152602401610588565b6001600160a01b0382166105f15760405163ec442f0560e01b81525f6004820152602401610588565b610440838383610843565b6106068133610969565b50565b5f6106148383610479565b610693575f8381526005602090815260408083206001600160a01b03861684529091529020805460ff1916600117905561064b3390565b6001600160a01b0316826001600160a01b0316847f2f8788117e7eff1d82e926ec794901d17c78024a50270940304540a733656f0d60405160405180910390a4506001610313565b505f610313565b5f6106a58383610479565b15610693575f8381526005602090815260408083206001600160a01b0386168085529252808320805460ff1916905551339286917ff6391f5c32d9c69d2a47ea670b442974b53935d1edc7fd64eb21e047a839171b9190a4506001610313565b6001600160a01b03821661072e5760405163ec442f0560e01b81525f6004820152602401610588565b6107395f8383610843565b5050565b6001600160a01b03821661076657604051634b637e8f60e11b81525f6004820152602401610588565b610739825f83610843565b6001600160a01b03841661079a5760405163e602df0560e01b81525f6004820152602401610588565b6001600160a01b0383166107c357604051634a1406b160e11b81525f6004820152602401610588565b6001600160a01b038085165f908152600160209081526040808320938716835292905220829055801561040757826001600160a01b0316846001600160a01b03167f8c5be1e5ebec7d5bd14f71427d1e84f3dd0314c0f7b2291e5b200ac8c7c3b9258460405161083591815260200190565b60405180910390a350505050565b6001600160a01b03831661086d578060025f8282546108629190610b52565b909155506108dd9050565b6001600160a01b0383165f90815260208190526040902054818110156108bf5760405163391434e360e21b81526001600160a01b03851660048201526024810182905260448101839052606401610588565b6001600160a01b0384165f9081526020819052604090209082900390555b6001600160a01b0382166108f957600280548290039055610917565b6001600160a01b0382165f9081526020819052604090208054820190555b816001600160a01b0316836001600160a01b03167fddf252ad1be2c89b69c2b068fc378daa952ba7f163c4a11628f55a4df523b3ef8360405161095c91815260200190565b60405180910390a3505050565b6109738282610479565b6107395760405163e2517d3f60e01b81526001600160a01b038216600482015260248101839052604401610588565b5f602082840312156109b2575f80fd5b81356001600160e01b0319811681146109c9575f80fd5b9392505050565b5f602080835283518060208501525f5b818110156109fc578581018301518582016040015282016109e0565b505f604082860101526040601f19601f8301168501019250505092915050565b80356001600160a01b0381168114610a32575f80fd5b919050565b5f8060408385031215610a48575f80fd5b610a5183610a1c565b946020939093013593505050565b5f805f60608486031215610a71575f80fd5b610a7a84610a1c565b9250610a8860208501610a1c565b9150604084013590509250925092565b5f60208284031215610aa8575f80fd5b5035919050565b5f8060408385031215610ac0575f80fd5b82359150610ad060208401610a1c565b90509250929050565b5f60208284031215610ae9575f80fd5b6109c982610a1c565b5f8060408385031215610b03575f80fd5b610b0c83610a1c565b9150610ad060208401610a1c565b600181811c90821680610b2e57607f821691505b602082108103610b4c57634e487b7160e01b5f52602260045260245ffd5b50919050565b8082018082111561031357634e487b7160e01b5f52601160045260245ffdfea26469706673582212207e4afb6aea28789dcc49d400b4275c22e1e3ecb767213a6fb8e0d5385eb6341f64736f6c63430008180033","linkReferences":{}},"methodIdentifiers":{"LP_TOKEN()":"bfd9041b","TOKEN_A()":"ff709ee8","TOKEN_B()":"499f712e","addLiquidity(uint256,uint256,uint256,uint256,address,uint256)":"ded998b9","getAmountOut(address,uint256)":"ca706bcf","getSpotPrice()":"dc76fabc","removeLiquidity(uint256,uint256,uint256,address,uint256)":"ed856cdc","reserveA()":"dc5fa6c5","reserveB()":"19e36f3b","swap(address,uint256,uint256,address,uint256)":"acf0ae03"},"id":84}