{"abi":[{"type":"receive","stateMutability":"payable"},{"type":"function","name":"ADMIN_ROLE","inputs":[],"outputs":[{"name":"","type":"bytes32","internalType":"bytes32"}],"stateMutability":"view"},{"type":"function","name":"BPS_DENOMINATOR","inputs":[],"outputs":[{"name":"","type":"uint256","internalType":"uint256"}],"stateMutability":"view"},{"type":"function","name":"DEFAULT_ADMIN_ROLE","inputs":[],"outputs":[{"name":"","type":"bytes32","internalType":"bytes32"}],"stateMutability":"view"},{"type":"function","name":"MAX_FEE_BPS","inputs":[],"outputs":[{"name":"","type":"uint256","internalType":"uint256"}],"stateMutability":"view"},{"type":"function","name":"TIMELOCK_DELAY","inputs":[],"outputs":[{"name":"","type":"uint256","internalType":"uint256"}],"stateMutability":"view"},{"type":"function","name":"UPGRADER_ROLE","inputs":[],"outputs":[{"name":"","type":"bytes32","internalType":"bytes32"}],"stateMutability":"view"},{"type":"function","name":"UPGRADE_INTERFACE_VERSION","inputs":[],"outputs":[{"name":"","type":"string","internalType":"string"}],"stateMutability":"view"},{"type":"function","name":"accumulatedFees","inputs":[],"outputs":[{"name":"","type":"uint256","internalType":"uint256"}],"stateMutability":"view"},{"type":"function","name":"cancelWithdrawal","inputs":[{"name":"id","type":"bytes32","internalType":"bytes32"}],"outputs":[],"stateMutability":"nonpayable"},{"type":"function","name":"claimFees","inputs":[{"name":"recipient","type":"address","internalType":"address payable"}],"outputs":[],"stateMutability":"nonpayable"},{"type":"function","name":"depositEth","inputs":[],"outputs":[],"stateMutability":"payable"},{"type":"function","name":"depositToken","inputs":[{"name":"token","type":"address","internalType":"address"},{"name":"amount","type":"uint256","internalType":"uint256"}],"outputs":[],"stateMutability":"nonpayable"},{"type":"function","name":"ethBalance","inputs":[],"outputs":[{"name":"","type":"uint256","internalType":"uint256"}],"stateMutability":"view"},{"type":"function","name":"ethDeposits","inputs":[{"name":"","type":"address","internalType":"address"}],"outputs":[{"name":"","type":"uint256","internalType":"uint256"}],"stateMutability":"view"},{"type":"function","name":"executeWithdrawal","inputs":[{"name":"id","type":"bytes32","internalType":"bytes32"},{"name":"recipient","type":"address","internalType":"address payable"},{"name":"amount","type":"uint256","internalType":"uint256"}],"outputs":[],"stateMutability":"nonpayable"},{"type":"function","name":"getRoleAdmin","inputs":[{"name":"role","type":"bytes32","internalType":"bytes32"}],"outputs":[{"name":"","type":"bytes32","internalType":"bytes32"}],"stateMutability":"view"},{"type":"function","name":"grantRole","inputs":[{"name":"role","type":"bytes32","internalType":"bytes32"},{"name":"account","type":"address","internalType":"address"}],"outputs":[],"stateMutability":"nonpayable"},{"type":"function","name":"hasRole","inputs":[{"name":"role","type":"bytes32","internalType":"bytes32"},{"name":"account","type":"address","internalType":"address"}],"outputs":[{"name":"","type":"bool","internalType":"bool"}],"stateMutability":"view"},{"type":"function","name":"initialize","inputs":[{"name":"admin","type":"address","internalType":"address"}],"outputs":[],"stateMutability":"nonpayable"},{"type":"function","name":"initializeV2","inputs":[{"name":"_withdrawalFeeBps","type":"uint256","internalType":"uint256"},{"name":"_timelockThreshold","type":"uint256","internalType":"uint256"}],"outputs":[],"stateMutability":"nonpayable"},{"type":"function","name":"proxiableUUID","inputs":[],"outputs":[{"name":"","type":"bytes32","internalType":"bytes32"}],"stateMutability":"view"},{"type":"function","name":"renounceRole","inputs":[{"name":"role","type":"bytes32","internalType":"bytes32"},{"name":"callerConfirmation","type":"address","internalType":"address"}],"outputs":[],"stateMutability":"nonpayable"},{"type":"function","name":"revokeRole","inputs":[{"name":"role","type":"bytes32","internalType":"bytes32"},{"name":"account","type":"address","internalType":"address"}],"outputs":[],"stateMutability":"nonpayable"},{"type":"function","name":"scheduleWithdrawal","inputs":[{"name":"recipient","type":"address","internalType":"address payable"},{"name":"amount","type":"uint256","internalType":"uint256"}],"outputs":[{"name":"id","type":"bytes32","internalType":"bytes32"}],"stateMutability":"nonpayable"},{"type":"function","name":"scheduledWithdrawals","inputs":[{"name":"","type":"bytes32","internalType":"bytes32"}],"outputs":[{"name":"","type":"uint256","internalType":"uint256"}],"stateMutability":"view"},{"type":"function","name":"setTimelockThreshold","inputs":[{"name":"newThreshold","type":"uint256","internalType":"uint256"}],"outputs":[],"stateMutability":"nonpayable"},{"type":"function","name":"setWithdrawalFee","inputs":[{"name":"newFeeBps","type":"uint256","internalType":"uint256"}],"outputs":[],"stateMutability":"nonpayable"},{"type":"function","name":"supportsInterface","inputs":[{"name":"interfaceId","type":"bytes4","internalType":"bytes4"}],"outputs":[{"name":"","type":"bool","internalType":"bool"}],"stateMutability":"view"},{"type":"function","name":"timelockThreshold","inputs":[],"outputs":[{"name":"","type":"uint256","internalType":"uint256"}],"stateMutability":"view"},{"type":"function","name":"tokenBalance","inputs":[{"name":"token","type":"address","internalType":"address"}],"outputs":[{"name":"","type":"uint256","internalType":"uint256"}],"stateMutability":"view"},{"type":"function","name":"tokenDeposits","inputs":[{"name":"","type":"address","internalType":"address"},{"name":"","type":"address","internalType":"address"}],"outputs":[{"name":"","type":"uint256","internalType":"uint256"}],"stateMutability":"view"},{"type":"function","name":"totalEthReceived","inputs":[],"outputs":[{"name":"","type":"uint256","internalType":"uint256"}],"stateMutability":"view"},{"type":"function","name":"totalEthWithdrawn","inputs":[],"outputs":[{"name":"","type":"uint256","internalType":"uint256"}],"stateMutability":"view"},{"type":"function","name":"totalTokenDeposits","inputs":[{"name":"","type":"address","internalType":"address"}],"outputs":[{"name":"","type":"uint256","internalType":"uint256"}],"stateMutability":"view"},{"type":"function","name":"upgradeToAndCall","inputs":[{"name":"newImplementation","type":"address","internalType":"address"},{"name":"data","type":"bytes","internalType":"bytes"}],"outputs":[],"stateMutability":"payable"},{"type":"function","name":"withdrawEth","inputs":[{"name":"recipient","type":"address","internalType":"address payable"},{"name":"amount","type":"uint256","internalType":"uint256"}],"outputs":[],"stateMutability":"nonpayable"},{"type":"function","name":"withdrawToken","inputs":[{"name":"token","type":"address","internalType":"address"},{"name":"recipient","type":"address","internalType":"address"},{"name":"amount","type":"uint256","internalType":"uint256"}],"outputs":[],"stateMutability":"nonpayable"},{"type":"function","name":"withdrawalFeeBps","inputs":[],"outputs":[{"name":"","type":"uint256","internalType":"uint256"}],"stateMutability":"view"},{"type":"event","name":"EthDeposited","inputs":[{"name":"depositor","type":"address","indexed":true,"internalType":"address"},{"name":"amount","type":"uint256","indexed":false,"internalType":"uint256"},{"name":"newTotal","type":"uint256","indexed":false,"internalType":"uint256"}],"anonymous":false},{"type":"event","name":"EthWithdrawn","inputs":[{"name":"recipient","type":"address","indexed":true,"internalType":"address"},{"name":"amount","type":"uint256","indexed":false,"internalType":"uint256"}],"anonymous":false},{"type":"event","name":"FeesWithdrawn","inputs":[{"name":"recipient","type":"address","indexed":true,"internalType":"address"},{"name":"amount","type":"uint256","indexed":false,"internalType":"uint256"}],"anonymous":false},{"type":"event","name":"Initialized","inputs":[{"name":"version","type":"uint64","indexed":false,"internalType":"uint64"}],"anonymous":false},{"type":"event","name":"RoleAdminChanged","inputs":[{"name":"role","type":"bytes32","indexed":true,"internalType":"bytes32"},{"name":"previousAdminRole","type":"bytes32","indexed":true,"internalType":"bytes32"},{"name":"newAdminRole","type":"bytes32","indexed":true,"internalType":"bytes32"}],"anonymous":false},{"type":"event","name":"RoleGranted","inputs":[{"name":"role","type":"bytes32","indexed":true,"internalType":"bytes32"},{"name":"account","type":"address","indexed":true,"internalType":"address"},{"name":"sender","type":"address","indexed":true,"internalType":"address"}],"anonymous":false},{"type":"event","name":"RoleRevoked","inputs":[{"name":"role","type":"bytes32","indexed":true,"internalType":"bytes32"},{"name":"account","type":"address","indexed":true,"internalType":"address"},{"name":"sender","type":"address","indexed":true,"internalType":"address"}],"anonymous":false},{"type":"event","name":"TimelockThresholdUpdated","inputs":[{"name":"oldThreshold","type":"uint256","indexed":false,"internalType":"uint256"},{"name":"newThreshold","type":"uint256","indexed":false,"internalType":"uint256"}],"anonymous":false},{"type":"event","name":"TokenDeposited","inputs":[{"name":"token","type":"address","indexed":true,"internalType":"address"},{"name":"depositor","type":"address","indexed":true,"internalType":"address"},{"name":"amount","type":"uint256","indexed":false,"internalType":"uint256"}],"anonymous":false},{"type":"event","name":"TokenWithdrawn","inputs":[{"name":"token","type":"address","indexed":true,"internalType":"address"},{"name":"recipient","type":"address","indexed":true,"internalType":"address"},{"name":"amount","type":"uint256","indexed":false,"internalType":"uint256"}],"anonymous":false},{"type":"event","name":"Upgraded","inputs":[{"name":"implementation","type":"address","indexed":true,"internalType":"address"}],"anonymous":false},{"type":"event","name":"Upgraded","inputs":[{"name":"newImplementation","type":"address","indexed":true,"internalType":"address"}],"anonymous":false},{"type":"event","name":"WithdrawalCancelled","inputs":[{"name":"id","type":"bytes32","indexed":true,"internalType":"bytes32"}],"anonymous":false},{"type":"event","name":"WithdrawalFeeBpsUpdated","inputs":[{"name":"oldBps","type":"uint256","indexed":false,"internalType":"uint256"},{"name":"newBps","type":"uint256","indexed":false,"internalType":"uint256"}],"anonymous":false},{"type":"event","name":"WithdrawalScheduled","inputs":[{"name":"id","type":"bytes32","indexed":true,"internalType":"bytes32"},{"name":"recipient","type":"address","indexed":true,"internalType":"address"},{"name":"amount","type":"uint256","indexed":false,"internalType":"uint256"},{"name":"executeAfter","type":"uint256","indexed":false,"internalType":"uint256"}],"anonymous":false},{"type":"error","name":"AccessControlBadConfirmation","inputs":[]},{"type":"error","name":"AccessControlUnauthorizedAccount","inputs":[{"name":"account","type":"address","internalType":"address"},{"name":"neededRole","type":"bytes32","internalType":"bytes32"}]},{"type":"error","name":"AddressEmptyCode","inputs":[{"name":"target","type":"address","internalType":"address"}]},{"type":"error","name":"BelowTimelockThreshold","inputs":[{"name":"amount","type":"uint256","internalType":"uint256"},{"name":"threshold","type":"uint256","internalType":"uint256"}]},{"type":"error","name":"ERC1967InvalidImplementation","inputs":[{"name":"implementation","type":"address","internalType":"address"}]},{"type":"error","name":"ERC1967NonPayable","inputs":[]},{"type":"error","name":"EthTransferFailed","inputs":[]},{"type":"error","name":"FailedCall","inputs":[]},{"type":"error","name":"FeeTooHigh","inputs":[{"name":"requested","type":"uint256","internalType":"uint256"},{"name":"max","type":"uint256","internalType":"uint256"}]},{"type":"error","name":"InsufficientEthBalance","inputs":[{"name":"available","type":"uint256","internalType":"uint256"},{"name":"requested","type":"uint256","internalType":"uint256"}]},{"type":"error","name":"InsufficientTokenBalance","inputs":[{"name":"token","type":"address","internalType":"address"},{"name":"available","type":"uint256","internalType":"uint256"},{"name":"requested","type":"uint256","internalType":"uint256"}]},{"type":"error","name":"InvalidInitialization","inputs":[]},{"type":"error","name":"NotInitializing","inputs":[]},{"type":"error","name":"ReentrancyGuardReentrantCall","inputs":[]},{"type":"error","name":"SafeERC20FailedOperation","inputs":[{"name":"token","type":"address","internalType":"address"}]},{"type":"error","name":"TimelockNotExpired","inputs":[{"name":"scheduledAt","type":"uint256","internalType":"uint256"},{"name":"now_","type":"uint256","internalType":"uint256"}]},{"type":"error","name":"UUPSUnauthorizedCallContext","inputs":[]},{"type":"error","name":"UUPSUnsupportedProxiableUUID","inputs":[{"name":"slot","type":"bytes32","internalType":"bytes32"}]},{"type":"error","name":"WithdrawalAlreadyScheduled","inputs":[{"name":"id","type":"bytes32","internalType":"bytes32"}]},{"type":"error","name":"WithdrawalNotScheduled","inputs":[{"name":"id","type":"bytes32","internalType":"bytes32"}]},{"type":"error","name":"ZeroAddress","inputs":[]},{"type":"error","name":"ZeroAmount","inputs":[]}],"bytecode":{"object":"0x60a060405230608052348015610013575f80fd5b5060017f9b779b17422d0df92223018b32b4d1fa46e071723d6817e2486d003becc55f005560805161212961005e5f395f81816118090152818161183201526119ca01526121295ff3fe608060405260043610610220575f3560e01c806367b6a37a1161011e578063ad3cb1cc116100a8578063e1a452181161006d578063e1a4521814610624578063eedc966a14610639578063f105676614610658578063f72c0d8b14610677578063fd66d9a6146106aa575f80fd5b8063ad3cb1cc14610569578063b9d1ed4a146105a6578063c4d66de8146105d1578063d547741f146105f0578063d55be8c61461060f575f80fd5b80637b1ce425116100ee5780637b1ce425146104d957806391d1485414610504578063a217fddf14610523578063a9a18dda14610536578063ac1e50251461054a575f80fd5b806367b6a37a14610466578063710b2b1a146104855780637213c5a01461049a57806375b238fc146104b9575f80fd5b8063384f69fa116101aa5780634f1ef2861161016f5780634f1ef286146103e957806352d1902d146103fc578063587f5ed7146104105780635ba1c1a9146104255780635f4f3f231461043b575f80fd5b8063384f69fa146103655780633add0454146103845780633c52b415146103ba578063439370b1146103cf5780634e6630b0146103d7575f80fd5b80631b9a91a4116101f05780631b9a91a4146102ca578063248a9ca3146102e95780632f2ff15d14610308578063338b5dea1461032757806336568abe14610346575f80fd5b806301e336671461023557806301ffc9a71461025457806304336bb31461028857806315a0ea6a146102ab575f80fd5b366102315761022f33346106c9565b005b5f80fd5b348015610240575f80fd5b5061022f61024f366004611d68565b61077c565b34801561025f575f80fd5b5061027361026e366004611da6565b61091d565b60405190151581526020015b60405180910390f35b348015610293575f80fd5b5061029d60375481565b60405190815260200161027f565b3480156102b6575f80fd5b5061022f6102c5366004611dd4565b610953565b3480156102d5575f80fd5b5061022f6102e4366004611def565b610a8f565b3480156102f4575f80fd5b5061029d610303366004611e19565b610c8a565b348015610313575f80fd5b5061022f610322366004611e30565b610caa565b348015610332575f80fd5b5061022f610341366004611def565b610cc6565b348015610351575f80fd5b5061022f610360366004611e30565b610de3565b348015610370575f80fd5b5061029d61037f366004611def565b610e16565b34801561038f575f80fd5b5061029d61039e366004611e5e565b600360209081525f928352604080842090915290825290205481565b3480156103c5575f80fd5b5061029d60015481565b61022f610f8a565b3480156103e2575f80fd5b504761029d565b61022f6103f7366004611e9e565b610fb6565b348015610407575f80fd5b5061029d610fd1565b34801561041b575f80fd5b5061029d60385481565b348015610430575f80fd5b5061029d6201518081565b348015610446575f80fd5b5061029d610455366004611dd4565b60046020525f908152604090205481565b348015610471575f80fd5b5061022f610480366004611e19565b610fec565b348015610490575f80fd5b5061029d60395481565b3480156104a5575f80fd5b5061022f6104b4366004611e19565b611045565b3480156104c4575f80fd5b5061029d5f805160206120d483398151915281565b3480156104e4575f80fd5b5061029d6104f3366004611e19565b603a6020525f908152604090205481565b34801561050f575f80fd5b5061027361051e366004611e30565b6110c7565b34801561052e575f80fd5b5061029d5f81565b348015610541575f80fd5b5061029d5f5481565b348015610555575f80fd5b5061022f610564366004611e19565b6110fd565b348015610574575f80fd5b50610599604051806040016040528060058152602001640352e302e360dc1b81525081565b60405161027f9190611f5c565b3480156105b1575f80fd5b5061029d6105c0366004611dd4565b60026020525f908152604090205481565b3480156105dc575f80fd5b5061022f6105eb366004611dd4565b611184565b3480156105fb575f80fd5b5061022f61060a366004611e30565b6112f1565b34801561061a575f80fd5b5061029d6101f481565b34801561062f575f80fd5b5061029d61271081565b348015610644575f80fd5b5061029d610653366004611dd4565b61130d565b348015610663575f80fd5b5061022f610672366004611fa8565b611375565b348015610682575f80fd5b5061029d7f189ab7a9244df0848122154315af71fe140f3db0fe014031783b0946b8c9d2e381565b3480156106b5575f80fd5b5061022f6106c4366004611fc8565b61146e565b805f036106e957604051631f2a200560e01b815260040160405180910390fd5b6001600160a01b0382165f9081526002602052604081208054839290610710908490612000565b92505081905550805f808282546107279190612000565b90915550505f546040516001600160a01b038416917f3f7db3ccdc06492eb9fcca5fe34fcee7f7ddcca331e5053cb3534067b9a532329161077091858252602082015260400190565b60405180910390a25050565b5f805160206120d48339815191526107938161164a565b61079b611657565b815f036107bb57604051631f2a200560e01b815260040160405180910390fd5b6001600160a01b03841615806107d857506001600160a01b038316155b156107f65760405163d92e233d60e01b815260040160405180910390fd5b6040516370a0823160e01b81523060048201525f906001600160a01b038616906370a0823190602401602060405180830381865afa15801561083a573d5f803e3d5ffd5b505050506040513d601f19601f8201168201806040525081019061085e9190612013565b90508281101561089f5760405163ebd6ced960e01b81526001600160a01b038616600482015260248101829052604481018490526064015b60405180910390fd5b6108b36001600160a01b0386168585611672565b836001600160a01b0316856001600160a01b03167f8210728e7c071f615b840ee026032693858fbcd5e5359e67e438c890f59e5620856040516108f891815260200190565b60405180910390a35061091760015f805160206120b483398151915255565b50505050565b5f6001600160e01b03198216637965db0b60e01b148061094d57506301ffc9a760e01b6001600160e01b03198316145b92915050565b5f805160206120d483398151915261096a8161164a565b610972611657565b6001600160a01b0382166109995760405163d92e233d60e01b815260040160405180910390fd5b6038545f8190036109bd57604051631f2a200560e01b815260040160405180910390fd5b5f60388190556040516001600160a01b0385169083908381818185875af1925050503d805f8114610a09576040519150601f19603f3d011682016040523d82523d5f602084013e610a0e565b606091505b5050905080610a3057604051630db2c7f160e31b815260040160405180910390fd5b836001600160a01b03167fc0819c13be868895eb93e40eaceb96de976442fa1d404e5c55f14bb65a8c489a83604051610a6b91815260200190565b60405180910390a25050610a8b60015f805160206120b483398151915255565b5050565b5f805160206120d4833981519152610aa68161164a565b610aae611657565b815f03610ace57604051631f2a200560e01b815260040160405180910390fd5b6001600160a01b038316610af55760405163d92e233d60e01b815260040160405180910390fd5b5f603954118015610b0857506039548210155b15610b3457603954604051631e2fff7160e21b8152610896918491600401918252602082015260400190565b5f61271060375484610b46919061202a565b610b509190612041565b90505f610b5d8285612060565b90504784811015610b8b57604051635c4a8f5560e01b81526004810182905260248101869052604401610896565b8260385f828254610b9c9190612000565b925050819055508160015f828254610bb49190612000565b90915550506040515f906001600160a01b0388169084908381818185875af1925050503d805f8114610c01576040519150601f19603f3d011682016040523d82523d5f602084013e610c06565b606091505b5050905080610c2857604051630db2c7f160e31b815260040160405180910390fd5b866001600160a01b03167f8455ae6be5d92f1df1c3c1484388e247a36c7e60d72055ae216dbc258f257d4b84604051610c6391815260200190565b60405180910390a250505050610c8560015f805160206120b483398151915255565b505050565b5f9081525f80516020612094833981519152602052604090206001015490565b610cb382610c8a565b610cbc8161164a565b61091783836116a7565b610cce611657565b805f03610cee57604051631f2a200560e01b815260040160405180910390fd5b6001600160a01b038216610d155760405163d92e233d60e01b815260040160405180910390fd5b610d2a6001600160a01b03831633308461174f565b335f9081526003602090815260408083206001600160a01b038616845290915281208054839290610d5c908490612000565b90915550506001600160a01b0382165f9081526004602052604081208054839290610d88908490612000565b909155505060405181815233906001600160a01b038416907ff1444b5cad7ce70cb018d1b8edc8618fe303f3c7f034d8d572a6e27facbf2bef9060200160405180910390a3610a8b60015f805160206120b483398151915255565b6001600160a01b0381163314610e0c5760405163334bd91960e11b815260040160405180910390fd5b610c858282611785565b5f5f805160206120d4833981519152610e2e8161164a565b825f03610e4e57604051631f2a200560e01b815260040160405180910390fd5b6001600160a01b038416610e755760405163d92e233d60e01b815260040160405180910390fd5b603954831015610ea657603954604051631e2fff7160e21b8152610896918591600401918252602082015260400190565b6040516bffffffffffffffffffffffff19606086901b1660208201526034810184905242605482015260740160408051601f1981840301815291815281516020928301205f818152603a90935291205490925015610f1a57604051639f4f813360e01b815260048101839052602401610896565b5f610f286201518042612000565b5f848152603a602090815260409182902083905581518781529081018390529192506001600160a01b0387169185917f3b423fbfee76039f99f543e0aff845bc6fcf27114930f0ee213ca425ad2ab754910160405180910390a3505092915050565b345f03610faa57604051631f2a200560e01b815260040160405180910390fd5b610fb433346106c9565b565b610fbe6117fe565b610fc7826118a2565b610a8b8282611903565b5f610fda6119bf565b505f8051602061207483398151915290565b5f805160206120d48339815191526110038161164a565b60395460408051918252602082018490527faf5cbb372775f798a75956466feb5b6b48ec1ff4110983ff0625005ab5094a1c910160405180910390a150603955565b5f805160206120d483398151915261105c8161164a565b5f828152603a6020526040812054900361108c5760405163543a8abd60e01b815260048101839052602401610896565b5f828152603a60205260408082208290555183917f2c3f6464ee7dbe9f7d807f41160b09edb0dfc340865796a3b9d03c9fe1b1b02891a25050565b5f9182525f80516020612094833981519152602090815260408084206001600160a01b0393909316845291905290205460ff1690565b5f805160206120d48339815191526111148161164a565b6101f4821115611142576040516373ab893560e11b8152600481018390526101f46024820152604401610896565b60375460408051918252602082018490527fd779b22c57011fd80a7597b49b77fb7208dec288990e6fedf6ec2bcfb53d0f81910160405180910390a150603755565b5f61118d611a08565b805490915060ff600160401b820416159067ffffffffffffffff165f811580156111b45750825b90505f8267ffffffffffffffff1660011480156111d05750303b155b9050811580156111de575080155b156111fc5760405163f92ee8a960e01b815260040160405180910390fd5b845467ffffffffffffffff19166001178555831561122657845460ff60401b1916600160401b1785555b6001600160a01b03861661124d5760405163d92e233d60e01b815260040160405180910390fd5b611255611a30565b61125f5f876116a7565b506112775f805160206120d4833981519152876116a7565b506112a27f189ab7a9244df0848122154315af71fe140f3db0fe014031783b0946b8c9d2e3876116a7565b5083156112e957845460ff60401b19168555604051600181527fc7f505b2f371ae2175ee4913f4499e1f2633a7b5936321eed1cdaeb6115181d29060200160405180910390a15b505050505050565b6112fa82610c8a565b6113038161164a565b6109178383611785565b6040516370a0823160e01b81523060048201525f906001600160a01b038316906370a0823190602401602060405180830381865afa158015611351573d5f803e3d5ffd5b505050506040513d601f19601f8201168201806040525081019061094d9190612013565b60025f611380611a08565b8054909150600160401b900460ff16806113a85750805467ffffffffffffffff808416911610155b156113c65760405163f92ee8a960e01b815260040160405180910390fd5b805468ffffffffffffffffff191667ffffffffffffffff831617600160401b1781556101f4841115611416576040516373ab893560e11b8152600481018590526101f46024820152604401610896565b60378490556039839055805460ff60401b1916815560405167ffffffffffffffff831681527fc7f505b2f371ae2175ee4913f4499e1f2633a7b5936321eed1cdaeb6115181d29060200160405180910390a150505050565b5f805160206120d48339815191526114858161164a565b61148d611657565b5f848152603a6020526040812054908190036114bf5760405163543a8abd60e01b815260048101869052602401610896565b804210156114e95760405163126b74dd60e11b815260048101829052426024820152604401610896565b5f858152603a602052604081208190556037546127109061150a908661202a565b6115149190612041565b90505f6115218286612060565b9050478581101561154f57604051635c4a8f5560e01b81526004810182905260248101879052604401610896565b8260385f8282546115609190612000565b925050819055508160015f8282546115789190612000565b90915550506040515f906001600160a01b0389169084908381818185875af1925050503d805f81146115c5576040519150601f19603f3d011682016040523d82523d5f602084013e6115ca565b606091505b50509050806115ec57604051630db2c7f160e31b815260040160405180910390fd5b876001600160a01b03167f8455ae6be5d92f1df1c3c1484388e247a36c7e60d72055ae216dbc258f257d4b8460405161162791815260200190565b60405180910390a2505050505061091760015f805160206120b483398151915255565b6116548133611a38565b50565b61165f611a71565b60025f805160206120b483398151915255565b61167f8383836001611aa0565b610c8557604051635274afe760e01b81526001600160a01b0384166004820152602401610896565b5f5f805160206120948339815191526116c084846110c7565b61173f575f848152602082815260408083206001600160a01b03871684529091529020805460ff191660011790556116f53390565b6001600160a01b0316836001600160a01b0316857f2f8788117e7eff1d82e926ec794901d17c78024a50270940304540a733656f0d60405160405180910390a4600191505061094d565b5f91505061094d565b5092915050565b61175d848484846001611b02565b61091757604051635274afe760e01b81526001600160a01b0385166004820152602401610896565b5f5f8051602061209483398151915261179e84846110c7565b1561173f575f848152602082815260408083206001600160a01b0387168085529252808320805460ff1916905551339287917ff6391f5c32d9c69d2a47ea670b442974b53935d1edc7fd64eb21e047a839171b9190a4600191505061094d565b306001600160a01b037f000000000000000000000000000000000000000000000000000000000000000016148061188457507f00000000000000000000000000000000000000000000000000000000000000006001600160a01b03166118785f80516020612074833981519152546001600160a01b031690565b6001600160a01b031614155b15610fb45760405163703e46dd60e11b815260040160405180910390fd5b7f189ab7a9244df0848122154315af71fe140f3db0fe014031783b0946b8c9d2e36118cc8161164a565b6040516001600160a01b038316907fbc7cd75a20ee27fd9adebab32041f755214dbc6bffa90cc0225b39da2e5c2d3b905f90a25050565b816001600160a01b03166352d1902d6040518163ffffffff1660e01b8152600401602060405180830381865afa92505050801561195d575060408051601f3d908101601f1916820190925261195a91810190612013565b60015b61198557604051634c9c8ce360e01b81526001600160a01b0383166004820152602401610896565b5f8051602061207483398151915281146119b557604051632a87526960e21b815260048101829052602401610896565b610c858383611b6f565b306001600160a01b037f00000000000000000000000000000000000000000000000000000000000000001614610fb45760405163703e46dd60e11b815260040160405180910390fd5b5f807ff0c57e16840df040f15088dc2f81fe391c3923bec73e23a9662efc9c229c6a0061094d565b610fb4611bc4565b611a4282826110c7565b610a8b5760405163e2517d3f60e01b81526001600160a01b038216600482015260248101839052604401610896565b5f805160206120b483398151915254600203610fb457604051633ee5aeb560e01b815260040160405180910390fd5b60405163a9059cbb60e01b5f8181526001600160a01b038616600452602485905291602083604481808b5af1925060015f51148316611af6578383151615611aea573d5f823e3d81fd5b5f873b113d1516831692505b60405250949350505050565b6040516323b872dd60e01b5f8181526001600160a01b038781166004528616602452604485905291602083606481808c5af1925060015f51148316611b5e578383151615611b52573d5f823e3d81fd5b5f883b113d1516831692505b604052505f60605295945050505050565b611b7882611be9565b6040516001600160a01b038316907fbc7cd75a20ee27fd9adebab32041f755214dbc6bffa90cc0225b39da2e5c2d3b905f90a2805115611bbc57610c858282611c4c565b610a8b611ce5565b611bcc611d04565b610fb457604051631afcd79f60e31b815260040160405180910390fd5b806001600160a01b03163b5f03611c1e57604051634c9c8ce360e01b81526001600160a01b0382166004820152602401610896565b5f8051602061207483398151915280546001600160a01b0319166001600160a01b0392909216919091179055565b60605f611c598484611d1d565b9050808015611c7a57505f3d1180611c7a57505f846001600160a01b03163b115b15611c8f57611c87611d30565b91505061094d565b8015611cb957604051639996b31560e01b81526001600160a01b0385166004820152602401610896565b3d15611ccc57611cc7611d49565b611748565b60405163d6bda27560e01b815260040160405180910390fd5b3415610fb45760405163b398979f60e01b815260040160405180910390fd5b5f611d0d611a08565b54600160401b900460ff16919050565b5f805f835160208501865af49392505050565b6040513d81523d5f602083013e3d602001810160405290565b6040513d5f823e3d81fd5b6001600160a01b0381168114611654575f80fd5b5f805f60608486031215611d7a575f80fd5b8335611d8581611d54565b92506020840135611d9581611d54565b929592945050506040919091013590565b5f60208284031215611db6575f80fd5b81356001600160e01b031981168114611dcd575f80fd5b9392505050565b5f60208284031215611de4575f80fd5b8135611dcd81611d54565b5f8060408385031215611e00575f80fd5b8235611e0b81611d54565b946020939093013593505050565b5f60208284031215611e29575f80fd5b5035919050565b5f8060408385031215611e41575f80fd5b823591506020830135611e5381611d54565b809150509250929050565b5f8060408385031215611e6f575f80fd5b8235611e7a81611d54565b91506020830135611e5381611d54565b634e487b7160e01b5f52604160045260245ffd5b5f8060408385031215611eaf575f80fd5b8235611eba81611d54565b9150602083013567ffffffffffffffff80821115611ed6575f80fd5b818501915085601f830112611ee9575f80fd5b813581811115611efb57611efb611e8a565b604051601f8201601f19908116603f01168101908382118183101715611f2357611f23611e8a565b81604052828152886020848701011115611f3b575f80fd5b826020860160208301375f6020848301015280955050505050509250929050565b5f602080835283518060208501525f5b81811015611f8857858101830151858201604001528201611f6c565b505f604082860101526040601f19601f8301168501019250505092915050565b5f8060408385031215611fb9575f80fd5b50508035926020909101359150565b5f805f60608486031215611fda575f80fd5b833592506020840135611d9581611d54565b634e487b7160e01b5f52601160045260245ffd5b8082018082111561094d5761094d611fec565b5f60208284031215612023575f80fd5b5051919050565b808202811582820484141761094d5761094d611fec565b5f8261205b57634e487b7160e01b5f52601260045260245ffd5b500490565b8181038181111561094d5761094d611fec56fe360894a13ba1a3210667c828492db98dca3e2076cc3735a920a3ca505d382bbc02dd7bc7dec4dceedda775e58dd541e08a116c6c53815c0bd028192f7b6268009b779b17422d0df92223018b32b4d1fa46e071723d6817e2486d003becc55f00a49807205ce4d355092ef5a8a18f56e8913cf4a201fbe287825b095693c21775a26469706673582212201c3b13110df002548f12be56daff5d89d4d90c7d257959f624ddb25eccab3c8464736f6c63430008180033","linkReferences":{}},"methodIdentifiers":{"ADMIN_ROLE()":"75b238fc","BPS_DENOMINATOR()":"e1a45218","DEFAULT_ADMIN_ROLE()":"a217fddf","MAX_FEE_BPS()":"d55be8c6","TIMELOCK_DELAY()":"5ba1c1a9","UPGRADER_ROLE()":"f72c0d8b","UPGRADE_INTERFACE_VERSION()":"ad3cb1cc","accumulatedFees()":"587f5ed7","cancelWithdrawal(bytes32)":"7213c5a0","claimFees(address)":"15a0ea6a","depositEth()":"439370b1","depositToken(address,uint256)":"338b5dea","ethBalance()":"4e6630b0","ethDeposits(address)":"b9d1ed4a","executeWithdrawal(bytes32,address,uint256)":"fd66d9a6","getRoleAdmin(bytes32)":"248a9ca3","grantRole(bytes32,address)":"2f2ff15d","hasRole(bytes32,address)":"91d14854","initialize(address)":"c4d66de8","initializeV2(uint256,uint256)":"f1056766","proxiableUUID()":"52d1902d","renounceRole(bytes32,address)":"36568abe","revokeRole(bytes32,address)":"d547741f","scheduleWithdrawal(address,uint256)":"384f69fa","scheduledWithdrawals(bytes32)":"7b1ce425","setTimelockThreshold(uint256)":"67b6a37a","setWithdrawalFee(uint256)":"ac1e5025","supportsInterface(bytes4)":"01ffc9a7","timelockThreshold()":"710b2b1a","tokenBalance(address)":"eedc966a","tokenDeposits(address,address)":"3add0454","totalEthReceived()":"a9a18dda","totalEthWithdrawn()":"3c52b415","totalTokenDeposits(address)":"5f4f3f23","upgradeToAndCall(address,bytes)":"4f1ef286","withdrawEth(address,uint256)":"1b9a91a4","withdrawToken(address,address,uint256)":"01e33667","withdrawalFeeBps()":"04336bb3"},"id":92}